:020000040800F2
:100000000000012089530008DD530008E153000877
:10001000E5530008E9530008ED5300080000000014
:10002000000000000000000000000000F153000884
:10003000F553000800000000F9530008FD530008C4
:10004000D9530008D9530008D9530008D9530008E0
:10005000D9530008D9530008D9530008D9530008D0
:10006000D9530008D9530008D9530008D9530008C0
:10007000D9530008D9530008D9530008D9530008B0
:10008000D9530008D9530008D9530008D9530008A0
:10009000D9530008D9530008D9530008D953000890
:1000A000D9530008D9530008D9530008D953000880
:1000B000D9530008D9530008D9530008D953000870
:1000C000D9530008D9530008D9530008D953000860
:1000D000D9530008D9530008D9530008D953000850
:1000E000D9530008D9530008D9530008D953000840
:1000F000D9530008D9530008D9530008D953000830
:10010000D9530008D9530008D9530008D95300081F
:10011000D9530008D9530008D9530008D95300080F
:10012000D9530008D9530008D9530008D9530008FF
:10013000D9530008D9530008D9530008D9530008EF
:10014000D9530008D9530008D9530008D9530008DF
:10015000D9530008D9530008D9530008D9530008CF
:10016000D9530008D9530008D9530008D9530008BF
:10017000D9530008D9530008D9530008D9530008AF
:10018000D9530008D9530008D9530008D95300089F
:10019000D9530008D9530008D9530008D95300088F
:1001A000D9530008D9530008D9530008D95300087F
:1001B000D9530008D9530008D9530008D95300086F
:0801C000D9530008D9530008CF
:1002000010B5054C237833B9044B13B10448AFF350
:1002100000800123237010BDB00900200000000001
:1002200080AB0008084B10B51BB108490848AFF374
:1002300000800848036803B910BD074B002BFBD0B2
:10024000BDE81040184700BF00000000B4090020BE
:1002500080AB0008B00900200000000081F00041E0
:1002600002E000BF83F0004330B54FEA41044FEA9B
:10027000430594EA050F08BF90EA020F1FBF54EA36
:10028000000C55EA020C7FEA645C7FEA655C00F0D2
:10029000E2804FEA5454D4EB5555B8BF6D420CDDA3
:1002A0002C4480EA020281EA030382EA000083EA26
:1002B000010180EA020281EA0303362D88BF30BDC6
:1002C00011F0004F4FEA01314FF4801C4CEA11311C
:1002D00002D0404261EB410113F0004F4FEA03337B
:1002E0004CEA133302D0524263EB430394EA050F06
:1002F00000F0A780A4F10104D5F1200E0DDB02FA75
:100300000EFC22FA05F2801841F1000103FA0EF208
:10031000801843FA05F359410EE0A5F120050EF1CE
:10032000200E012A03FA0EFC28BF4CF0020C43FAFF
:1003300005F3C01851EBE37101F0004507D54FF00C
:10034000000EDCF1000C7EEB00006EEB0101B1F55C
:10035000801F1BD3B1F5001F0CD349085FEA3000A2
:100360004FEA3C0C04F101044FEA445212F5800FAD
:1003700080F09A80BCF1004F08BF5FEA500C50F14A
:10038000000041EB045141EA050130BD5FEA4C0C2D
:10039000404141EB010111F4801FA4F10104E9D1B6
:1003A00091F0000F04BF01460020B1FA81F308BFAD
:1003B0002033A3F10B03B3F120020CDA0C3208DD79
:1003C00002F1140CC2F10C0201FA0CF021FA02F154
:1003D0000CE002F11402D8BFC2F1200C01FA02F1C4
:1003E00020FA0CFCDCBF41EA0C019040E41AA2BFE9
:1003F00001EB0451294330BD6FEA04041F3C1CDAB1
:100400000C340EDC04F11404C4F1200220FA04F0D0
:1004100001FA02F340EA030021FA04F345EA03017A
:1004200030BDC4F10C04C4F1200220FA02F001FA3C
:1004300004F340EA0300294630BD21FA04F02946BE
:1004400030BD94F0000F83F4801306BF81F4801157
:100450000134013D4EE77FEA645C18BF7FEA655CCA
:1004600029D094EA050F08BF90EA020F05D054EA9C
:10047000000C04BF1946104630BD91EA030F1EBFA1
:100480000021002030BD5FEA545C05D140004941A5
:1004900028BF41F0004130BD14F580043CBF01F598
:1004A000801130BD01F0004545F0FE4141F470017E
:1004B0004FF0000030BD7FEA645C1ABF1946104659
:1004C0007FEA655C1CBF0B46024650EA013406BF5A
:1004D00052EA033591EA030F41F4002130BD00BF19
:1004E00090F0000F04BF0021704730B54FF48064D6
:1004F00004F132044FF000054FF0000150E700BF57
:1005000090F0000F04BF0021704730B54FF48064B5
:1005100004F1320410F0004548BF40424FF00001A2
:100520003EE700BF42004FEAE2014FEA31014FEAE5
:1005300002701FBF12F07F4393F07F4F81F0605134
:10054000704792F0000F14BF93F07F4F704730B5A3
:100550004FF4607401F0004521F0004120E700BF36
:1005600050EA010208BF704730B54FF000050AE0BD
:1005700050EA010208BF704730B511F0004502D5BE
:10058000404261EB41014FF4806404F132045FEAC0
:10059000915C3FF4DCAE4FF003025FEADC0C18BF65
:1005A00003325FEADC0C18BF033202EBDC02C2F15B
:1005B000200300FA03FC20FA02F001FA03FE40EAED
:1005C0000E0021FA02F11444C1E600BF70B54FF0ED
:1005D000FF0C4CF4E06C1CEA11541DBF1CEA1355CF
:1005E00094EA0C0F95EA0C0F00F0DEF82C4481EA37
:1005F000030621EA4C5123EA4C5350EA013518BF57
:1006000052EA033541F4801143F4801338D0A0FB43
:1006100002CE4FF00005E1FB02E506F00042E0FBF0
:1006200003E54FF00006E1FB03569CF0000F18BFF6
:100630004EF0010EA4F1FF04B6F5007F64F540749E
:1006400004D25FEA4E0E6D4146EB060642EAC62131
:1006500041EA55514FEAC52040EA5E504FEACE2E9E
:10066000B4F1FD0C88BFBCF5E06F1ED8BEF1004FA1
:1006700008BF5FEA500E50F1000041EB045170BD1D
:1006800006F0004646EA010140EA020081EA030161
:10069000B4EB5C04C2BFD4EB0C0541EA045170BD5D
:1006A00041F480114FF0000E013C00F3AB8014F1D7
:1006B000360FDEBF002001F0004170BDC4F1000420
:1006C000203C35DA0C341BDC04F11404C4F12005A1
:1006D00000FA05F320FA04F001FA05F240EA0200FC
:1006E00001F0004221F0004110EBD37021FA04F632
:1006F00042EB06015EEA430E08BF20EAD37070BDEC
:10070000C4F10C04C4F1200500FA04F320FA05F04A
:1007100001FA04F240EA020001F0004110EBD3704C
:1007200041F100015EEA430E08BF20EAD37070BDBC
:10073000C4F1200500FA05F24EEA020E20FA04F395
:1007400001FA05F243EA020321FA04F001F0004144
:1007500021FA04F220EA020000EBD3705EEA430EB5
:1007600008BF20EAD37070BD94F0000F0FD101F0E4
:100770000046400041EB010111F4801F08BF013C1D
:10078000F7D041EA060195F0000F18BF704703F05B
:100790000046520043EB030313F4801F08BF013DE2
:1007A000F7D043EA0603704794EA0C0F0CEA13559E
:1007B00018BF95EA0C0F0CD050EA410618BF52EA58
:1007C0004306D1D181EA030101F000414FF000005E
:1007D00070BD50EA410606BF1046194652EA43066C
:1007E00019D094EA0C0F02D150EA013613D195EAE0
:1007F0000C0F05D152EA03361CBF104619460AD128
:1008000081EA030101F0004141F0FE4141F4700131
:100810004FF0000070BD41F0FE4141F4780170BD21
:1008200070B54FF0FF0C4CF4E06C1CEA11541DBF86
:100830001CEA135594EA0C0F95EA0C0F00F0A7F888
:10084000A4EB050481EA030E52EA03354FEA0131B5
:1008500000F088804FEA03334FF0805545EA1313C8
:1008600043EA12634FEA022245EA111545EA106590
:100870004FEA00260EF000419D4208BF964244F127
:10088000FD0404F5407402D25B084FEA3202B61A46
:1008900065EB03055B084FEA32024FF480104FF41A
:1008A000002CB6EB020E75EB030E22BFB61A75468E
:1008B00040EA0C005B084FEA3202B6EB020E75EB21
:1008C000030E22BFB61A754640EA5C005B084FEA89
:1008D0003202B6EB020E75EB030E22BFB61A754656
:1008E00040EA9C005B084FEA3202B6EB020E75EB61
:1008F000030E22BFB61A754640EADC0055EA060E22
:1009000018D04FEA051545EA16754FEA06164FEA64
:10091000C30343EA52734FEAC2025FEA1C1CC0D110
:1009200011F4801F0BD141EA00014FF000004FF09D
:10093000004CB6E711F4801F04BF01430020B4F15E
:10094000FD0C88BFBCF5E06F3FF6AFAEB5EB030C16
:1009500004BFB6EB020C5FEA500C50F1000041EB13
:10096000045170BD0EF0004E4EEA113114EB5C04E0
:10097000C2BFD4EB0C0541EA045170BD41F48011B3
:100980004FF0000E013C90E645EA060E8DE60CEABB
:10099000135594EA0C0F08BF95EA0C0F3FF43BAFD8
:1009A00094EA0C0F0AD150EA01347FF434AF95EA8F
:1009B0000C0F7FF425AF104619462CE795EA0C0F73
:1009C00006D152EA03353FF4FDAE1046194622E740
:1009D00050EA410618BF52EA43067FF4C5AE50EA1A
:1009E00041047FF40DAF52EA43057FF4EBAE12E70A
:1009F0004FEA4102B2F1E04324BFB3F5001CDCF141
:100A0000FE5C0DD901F0004C4FEAC0024CEA507078
:100A1000B2F1004F40EB830008BF20F001007047A7
:100A200011F0804F21D113F13872BCBF01F00040AA
:100A3000704741F480114FEA5252C2F11802C2F1DC
:100A4000200C10FA0CF320FA02F018BF40F001005D
:100A50004FEAC1234FEAD32303FA0CFC40EA0C000F
:100A600023FA02F34FEA4303CCE77FEA625307D14C
:100A700050EA01331EBF4FF0FE4040F44000704783
:100A800001F0004040F0FE4040F40000704700BF1D
:100A900001F0FF01102A2BDB10F0070F08D010F82F
:100AA000013B013A8B422DD010F0070F42B3F6D133
:100AB000F0B441EA012141EA014122F007047FF04C
:100AC00000070023F0E80256083C85EA010586EAA3
:100AD000010685FA47F5A3FA87F586FA47F6A5FADF
:100AE00087F68EB9EED1F0BC01F0FF0102F00702EB
:100AF00032B110F8013B013A83EA010313B1F8D196
:100B00000020704701387047002D06BF3546033876
:100B1000073815F0010F07D1013015F4807F02BFAF
:100B2000013015F4C03F0130F0BC0138704700BF00
:100B3000844641EA000313F003036DD1403A41D3E8
:100B400051F8043B40F8043B51F8043B40F8043BA7
:100B500051F8043B40F8043B51F8043B40F8043B97
:100B600051F8043B40F8043B51F8043B40F8043B87
:100B700051F8043B40F8043B51F8043B40F8043B77
:100B800051F8043B40F8043B51F8043B40F8043B67
:100B900051F8043B40F8043B51F8043B40F8043B57
:100BA00051F8043B40F8043B51F8043B40F8043B47
:100BB00051F8043B40F8043B51F8043B40F8043B37
:100BC000403ABDD2303211D351F8043B40F8043BD7
:100BD00051F8043B40F8043B51F8043B40F8043B17
:100BE00051F8043B40F8043B103AEDD20C3205D3E7
:100BF00051F8043B40F8043B043AF9D2043208D0DF
:100C0000D2071CBF11F8013B00F8013B01D30B8850
:100C100003806046704700BF082A13D38B078DD02E
:100C200010F003038AD0C3F10403D21ADB071CBF00
:100C300011F8013B00F8013B80D331F8023B20F86A
:100C4000023B7BE7043AD9D3013A11F8013B00F8A3
:100C5000013BF9D20B7803704B7843708B7883702B
:100C60006046704700000000000000000000000027
:100C70000000000000000000000000000000000074
:100C800090F800F06DE9024520F007016FF0000CCC
:100C900010F0070491F820F040F049804FF0000474
:100CA0006FF00700D1E9002391F840F000F108004F
:100CB00082FA4CF2A4FA8CF283FA4CF3A2FA8CF387
:100CC0004BBBD1E9022382FA4CF200F10800A4FAEE
:100CD0008CF283FA4CF3A2FA8CF3E3B9D1E9042342
:100CE00082FA4CF200F10800A4FA8CF283FA4CF379
:100CF000A2FA8CF37BB9D1E9062301F1200182FA33
:100D00004CF200F10800A4FA8CF283FA4CF3A2FA38
:100D10008CF3002BC6D0002A04BF04301A4612BA46
:100D2000B2FA82F2FDE8024500EBD2007047D1E949
:100D3000002304F00305C4F100004FEAC50514F0D8
:100D4000040F91F840F00CFA05F562EA05021CBFA9
:100D500063EA050362464FF00004A9E74FF0FF3C49
:100D600006E000BF4FF0010C02E000BF4FF0010CA5
:100D70004DF804CD4FEA410C7FEA6C5C4FEA430C1E
:100D800018BF7FEA6C5C1BD001B050EA410C0CBF6D
:100D900052EA430C91EA030F02BF90EA020F0020CF
:100DA000704710F1000F91EA030F58BF994208BF36
:100DB00090422CBFD8176FEAE37040F001007047F3
:100DC0004FEA410C7FEA6C5C02D150EA013C07D14A
:100DD0004FEA430C7FEA6C5CD6D152EA033CD3D095
:100DE0005DF8040B704700BF8446104662468C468F
:100DF0001946634600E000BF01B5FFF7B7FF0028C2
:100E000048BF10F1000F01BD4DF808EDFFF7F4FFEA
:100E10000CBF012000205DF808FB00BF4DF808ED75
:100E2000FFF7EAFF34BF012000205DF808FB00BF98
:100E30004DF808EDFFF7E0FF94BF012000205DF8BA
:100E400008FB00BF4DF808EDFFF7CEFF94BF01206F
:100E500000205DF808FB00BF4DF808EDFFF7C4FF68
:100E600034BF012000205DF808FB00BF4FEA410CB1
:100E70007FEA6C5C02D150EA013C0AD14FEA430C94
:100E80007FEA6C5C02D152EA033C02D14FF00000D1
:100E900070474FF0010070474FEA410212F500120F
:100EA00015D211D56FF47873B3EB625212D94FEAB1
:100EB000C12343F0004343EA505311F0004F23FA9B
:100EC00002F018BF404270474FF00000704750EAF0
:100ED000013005D111F0004008BF6FF000407047AD
:100EE0004FF00000704700BF53B94AB9002908BF4E
:100EF00000281CBF4FF0FF314FF0FF3000F07EB9EB
:100F0000ADF1080C6DE904CE00F006F8DDF804E060
:100F1000DDE9022304B070472DE9F0478C460E4608
:100F20000446089D002B50D18A4217466CD9B2FA6C
:100F300082FEBEF1000F0BD0CEF1200420FA04F4A3
:100F400001FA0EF644EA060C02FA0EF700FA0EF465
:100F50004FEA1749220CBCFBF9F01FFA87F809FB8E
:100F600010C642EA064600FB08F3B34209D9F61957
:100F700000F1FF3280F02281B34240F21F8102383B
:100F80003E44F61AA2B2B6FBF9F309FB136642EA35
:100F9000064403FB08F8A04509D9E41903F1FF3220
:100FA00080F00A81A04540F20781023B3C44C8EB37
:100FB000040443EA00400021002D62D024FA0EF41C
:100FC00000232C606B60BDE8F0878B4207D9002DB1
:100FD00055D0002185E841000846BDE8F087B3FA06
:100FE00083F1002940F09080B34202D3824200F2A4
:100FF000F880841A66EB03060120B446002D40D029
:1010000085E81010BDE8F08712B90127B7FBF2F7A9
:10101000B7FA87FEBEF1000F35D1F31B4FEA174830
:101020001FFA87FC0121B3FBF8F0220C08FB1036F5
:1010300042EA06460CFB00F3B34207D9F61900F169
:10104000FF3202D2B34200F2CE801046F61AA2B2AC
:10105000B6FBF8F308FB136642EA06440CFB03FCFC
:10106000A44507D9E41903F1FF3202D2A44500F2E6
:10107000B5801346CCEB040443EA00409CE72946C4
:101080002846BDE8F087CEF1200106FA0EF307FAF4
:101090000EF720FA01F94FEA1748CE4049EA030952
:1010A000B6FBF8FA4FEA194408FB1A661FFA87FCE8
:1010B00044EA06430AFB0CF29A4200FA0EF40AD9FB
:1010C000DB190AF1FF3180F087809A4240F2848078
:1010D000AAF1020A3B449B1A1FFA89F9B3FBF8F103
:1010E00008FB113349EA034301FB0CF69E4207D982
:1010F000DB1901F1FF326BD29E4269D902393B44C0
:101100009B1B41EA0A418EE7C1F1200E22FA0EF440
:101110008B40234320FA0EF706FA01F44FEA134CF2
:1011200026FA0EF63C43B6FBFCF9270C0CFB1966BD
:101130001FFA83F847EA064609FB08F7B74202FAA6
:1011400001F200FA01FA08D9F61809F1FF3041D28C
:10115000B7423FD9A9F102091E44F61BA0B2B6FB63
:10116000FCF40CFB146640EA064704FB08F8B8459B
:1011700007D9FF1804F1FF3028D2B84526D9023C20
:101180001F4444EA0940C8EB0707A0FB02894F450A
:1011900044464E4614D329D065B3BAEB040367EB3B
:1011A000060707FA0EFECB40CF404EEA030385E860
:1011B00088000021BDE8F0871346F8E61046E0E617
:1011C000B8EB020469EB03060138E5E70446D8E70B
:1011D000114695E78146C0E78A467CE7023B3C44DE
:1011E00048E708460AE702383E442FE7C245E7D3FE
:1011F0003E46D1E72946BDE8F08700BF704700BFF3
:10120000034620B9044AFA20136000F069BC024B7F
:1012100001221A6000F08CBC380B00200B2802D889
:10122000014B43F820107047240A00200B2803D8F4
:10123000024B53F82000704700207047240A00201A
:101240000130F0B4082827D8DFE810F02800420069
:10125000570065007B009000A600B40009005F4BBA
:101260004FF4F9605E4984255E4A40F2C936186041
:1012700043F24534596040F20F10DA60D9211D6104
:101280006FF07F42584F594D5F619E611D625C62F5
:101290009862D9629A60DA61F0BC70474F4B40F2B5
:1012A0002B4243F21C07524E524D27246FF07F41D0
:1012B00004201A6000225F60DE605D619C62D8627B
:1012C0009960D9611A619A611A625A62F0BC7047DA
:1012D00040F22B44414B43F21C0045491C609722CD
:1012E000444F0026444D40F6286458602720D960BA
:1012F00004211A616FF07F42C6E740F22B44374B5E
:1013000043F21C003D491C603C223A4F00263C4DF4
:1013100041F6AF24E9E7314B40F2AE7039498525FB
:10132000394A4FF46C76186040F6874459604FF4A0
:101330008B70DA60D9211D616FF07F42334F344DDD
:10134000A2E7264B40F2AE7032498522324D40F280
:10135000A736186040F68744596040F20B10DD60F4
:10136000D9211A612D4F2E4D2E4A8DE71B4B40F28D
:10137000AE7024493E252C4A4FF46C76186040F636
:10138000874459604FF48B70DA60D9211D616FF08A
:101390007F421E4F254D77E740F22B440F4B43F21F
:1013A0001C0016491C603C22124F0026144D44F6C6
:1013B000F3249AE7094B362009498425094A062671
:1013C000186047F2C95459603320DA6003211D6167
:1013D0006FF07F42164F174D56E700BF240A0020DA
:1013E0008CE91000F57F7C0056B904004C340300F2
:1013F000D42355004A8606003D850400D3235500BA
:101400005FA80800035C1100D1E27A00C8730200F3
:10141000C7210300B0541100C6037B00BF73020054
:10142000BC21030060E2FF00D2E27A00DC56070034
:10143000AB6D02008B5C07002DE9F047DFF84C93A1
:101440004FF00208CF4F802509F1300ACE4C79E1E8
:10145000A7F80880022000F0EBFB0220258100F0B5
:10146000E7FB6581022000F0E3FB710240F1BA81E5
:10147000A7F80880022000F0DBFB0220258100F0A5
:10148000D7FB6581022000F0D3FBB20240F1A781B7
:10149000A7F80880022000F0CBFB0220258100F095
:1014A000C7FB6581022000F0C3FBF30240F1948189
:1014B000A7F80880022000F0BBFB0220258100F085
:1014C000B7FB0220658100F0B3FB300340F181815E
:1014D000A7F80880022000F0ABFB0220258100F075
:1014E000A7FB6581022000F0A3FB710340F16E8130
:1014F000A7F80880022000F09BFB0220258100F065
:1015000097FB6581022000F093FBB20340F15B8101
:10151000A7F80880022000F08BFB0220258100F054
:1015200087FB6581022000F083FBF30340F14881D3
:10153000A7F80880022000F07BFB0220258100F044
:1015400077FB0220658100F073FB300440F13581A8
:10155000A7F80880022000F06BFB0220258100F034
:1015600067FB6581022000F063FB710440F122817A
:10157000A7F80880022000F05BFB0220258100F024
:1015800057FB6581022000F053FBB20440F10F814C
:10159000A7F80880022000F04BFB0220258100F014
:1015A00047FB6581022000F043FBF30440F1FC801F
:1015B000A7F80880022000F03BFB0220258100F004
:1015C00037FB0220658100F033FB300540F1E980F4
:1015D000A7F80880022000F02BFB0220258100F0F4
:1015E00027FB6581022000F023FB710540F1D680C6
:1015F000A7F80880022000F01BFB0220258100F0E4
:1016000017FB6581022000F013FBB20540F1C38097
:10161000A7F80880022000F00BFB0220258100F0D3
:1016200007FB6581022000F003FBF30540F1B08069
:10163000A7F80880022000F0FBFA0220258100F0C4
:10164000F7FA0220658100F0F3FA300640F1978046
:10165000A7F80880022000F0EBFA0220258100F0B4
:10166000E7FA6581022000F0E3FA710640F1848018
:10167000A7F80880022000F0DBFA0220258100F0A4
:10168000D7FA6581022000F0D3FAB20671D5A7F827
:101690000880022000F0CCFA0220258100F0C8FA70
:1016A0006581022000F0C4FAF3065FD5A7F8088030
:1016B000022000F0BDFA0220258100F0B9FA0220D4
:1016C000658100F0B5FA30074DD5A7F808800220F3
:1016D00000F0AEFA0220258100F0AAFA658102200E
:1016E00000F0A6FA71073BD5A7F80880022000F0A9
:1016F0009FFA0220258100F09BFA6581022000F00C
:1017000097FAB20729D5A7F80880022000F090FACE
:101710000220258100F08CFA6581022000F088FA11
:10172000F30717D5A7F808800220802600F080FA7A
:101730000220258100F07CFA6581022000F078FA11
:10174000D14552D059F8046B30023FF581AEA7F86D
:101750000A807FE6A7F80A80E6E7A7F80A80D4E7C0
:10176000A7F80A80C2E7A7F80A80B0E7A7F80A80BE
:101770009EE7A7F80A808CE7A7F80A807AE7A7F81F
:101780000A8067E71004024010000240240A00208B
:10179000A7F80A804EE7A7F80A803BE7A7F80A8077
:1017A00028E7A7F80A8015E7A7F80A8002E7A7F854
:1017B0000A80EFE6A7F80A80DCE6A7F80A80C9E607
:1017C000A7F80A80B6E6A7F80A80A3E6A7F80A8079
:1017D00090E6A7F80A807DE6A7F80A806AE6A7F8EF
:1017E0000A8057E6A7F80A8044E6084B0222084C14
:1017F0000A205A8100F01CFA66810A2000F018FACB
:1018000026810A20BDE8F04700F012BA1004024019
:10181000101002402DE9F04F934D0024DFF8B8B2CC
:1018200087B0012203264FF40049904F4FF0800A01
:10183000294658466A6001924FF00208C5F80090A8
:10184000AC60EE6004F02CF8A7F80A9029468848AE
:10185000C5F800A004F024F8864B29468648A3F872
:1018600008A0C5F800A004F01BF8844B5846294690
:101870004FF4807BA3F80AA04FF4806AC5F800807B
:1018800004F00EF84FF6FF73A7F80A8029467C484B
:101890006C60AC60EE602B6004F002F8082329460F
:1018A00078482B60C5F804804FF40068AC60EE60A7
:1018B0002E6103F0F5FFA7F80A900A2000F0C2F9A4
:1018C000A7F808900A20362700F0BCF96E496F4D42
:1018D0004FF0840CCE6206236D486E4E0F6047F2C7
:1018E000C9574D603325C8606FF07F404E616A4E26
:1018F000C1F810C08B614F620E6220268D62886035
:10190000C861FFF799FD654948F27400DFF8CC9192
:101910004FF060630C60624D62492C6048F2340500
:101920000C60D9F84410604F41F00201019AC9F8E7
:101930004410D9F8441001F00201029102994FF4C9
:1019400000513C607E60B8607C62BC62BC61FC613E
:101950003C627A61D9F84000544E40F00400C9F866
:101960004000D9F8400000F0040003900398346070
:101970007460B5607462B462B461F46134627261BF
:10198000D9F830204A4D42F48002C9F83020D9F805
:1019900030206B604FF4403302F48002A9612B6267
:1019A0000492444A049828462A60AC60EC606C6259
:1019B000EC622C63C5F810A0C5F81480C5F81CB003
:1019C00003F0A2FED9F830004FF4805E3A4A4FF49B
:1019D000804C40F400104FF08061C9F83000104690
:1019E000D9F83030C2F814E003F40013C2F818C07C
:1019F000C2F810A00593059B4FF440339460136226
:101A00002E4BD460C2F81CB05462D46214631360CD
:101A10005160019203F078FE019A4346284910462E
:101A2000284A03F00DFF43462846274A274903F07A
:101A300007FFFB682649FA2043EA0B03254AFB60AF
:101A4000F36843EA0B03F3603B6843F001033B6038
:101A5000336843F0010333600C60146000F040F819
:101A600007B0BDE8F08F00BFB80A002010040240A4
:101A7000001002401010024000000240100002401E
:101A80000008024000200240240A00208CE91000D7
:101A9000F57F7C00AB6D02008B5C0700340B0020EF
:101AA000180A0020CC0A0020000401400008004071
:101AB000540A002028640240D00A0020A06002409E
:101AC0002400004000C0042000E004201008024070
:101AD000380B00203C0B002000040240003802407C
:101AE00010B4054B4FF08041044C421E4C63D86249
:101AF0005DF8044B5A6270470000014000400060EE
:101B0000014BD86A80B270470000014010B4064B08
:101B10004FF08040054C642163224463D9625DF834
:101B2000044B5A62704700BF000001400040002093
:101B300010B4064B4FF0C0444FF080406421632244
:101B40004463D9625DF8044B5A627047000001405B
:101B5000054A0649D36A181A10B480B2044C506280
:101B60008C615DF8044B7047000001400018024092
:101B7000002000402DE9F04186B00025012203231A
:101B80004FF4C04401A923484FF4807801944FF0EA
:101B9000804602924FF0C04703950595049303F0E9
:101BA0007FFE1D4B4FF040601C4C4FF4007E1A6BC3
:101BB0004FF48061A56042F48002256265621A6379
:101BC0004FF400621B6B606003F480031448E5620D
:101BD00000934FF40053206020462563C4F80CE0C6
:101BE00021616261A361009DC4F81C8003F08CFD3B
:101BF0002046776302230B4A0B4903F021FE0B4B6F
:101C000064216322C3F80C807763D9625A6206B0FC
:101C1000BDE8F0810018024000380240400B00206F
:101C2000886402401818024034000040000001405F
:101C300038B100228C2300BF013BFCD1013290421D
:101C4000F8D1704738B10022034B00BF013BFCD1F3
:101C500001329042F8D1704717A90100154B164880
:101C60001A6B42F0010270B51A6388B01A6B002437
:101C700003254FF4604602F0010203A90192019A84
:101C80001A6B42F002021A631B6B039603F0020305
:101C9000049405940293029B069503F001FE182319
:101CA00003A90648049405940695039303F0F8FDF0
:101CB00008B070BD0038024000000240000402403D
:101CC000284B40F27A601A6B42F01002F0B51A63AA
:101CD00087B01B6B00250224032703F01003224E5C
:101CE000019001A900932148009B0295059503945A
:101CF000049703F0D5FD336803F4CC63B3F5CC6FE0
:101D000026D01B4D2B6823B9336803F01803182B1A
:101D100012D00023032240F27A6401A913480293EF
:101D2000039305930194049203F0BAFD2B680BB161
:101D3000FFF794FF07B0F0BD012301A90B480393FF
:101D400003F0AEFD336813F0420F08BF2C60E0E7EC
:101D50000124074D01A90548039403F0A1FD336850
:101D60002C60D6E7003802401010024000100240FC
:101D7000CC09002030B585B0032503F073FC244A5C
:101D8000002301200821C2F3080401928DF800000D
:101D90008DF80C008DF80F008DF80B508DF80A307F
:101DA0008DF80E308DF80D308DF809308DF801303A
:101DB0008DF8081044B30446164B01200B21C3F3E1
:101DC0000B0201938DF801008DF80810C2B144F0A8
:101DD0000204114B02200C21C3F30C0201938DF875
:101DE00001008DF808103AB144F00404042003F017
:101DF00049FC204605B030BD684603F055FCF5E7C8
:101E0000684603F051FCE4E7684603F04DFCD3E775
:101E100000F6042000E0042000C00420014B024A28
:101E2000DA60FEE700ED00E00400FA05234B2448E9
:101E30001A6B42F00102F0B51A6389B01A6B0024E4
:101E400003254FF4604702F0010203A94FF4004656
:101E50000192019A1A6B42F002021A631B6B0397FC
:101E6000012703F00203049405940293029B069554
:101E700003F016FD182303A9124803930494059454
:101E8000069503F00DFD03A90E48069505940396EB
:101E9000049703F005FD0C4B0C4A56811C605C60F6
:101EA0009C6087F3108840F20003C1F6F0731B6852
:101EB00083F30888064B1B689847FEE7003802400A
:101EC000000002400004024010E000E01004024064
:101ED0000400F01F2A4902232A4A086C40F080506F
:101EE000F0B50864B5B0096C01244FF00B0E002763
:101EF00001F080510826D82507A8009100991168A3
:101F000041F4404111601268079302F440420D937E
:101F100011930192019A12930A94CDF82CE00E9736
:101F20000F96109503F018FE08B1174B1C6003F0D4
:101F3000D7FD10B1144B01221A600F260225002490
:101F40004FF4A0524FF48053072102A80296039544
:101F500004940592069304F027F810B10A4B01226D
:101F60001A604FF48072102313A81392269304F082
:101F7000F5F810B1044B01221A6035B0F0BD00BF76
:101F80000038024000700040D0090020214B88B08A
:101F90001A6B42F001021A631A6B02F001020192FD
:101FA000019A1A6B42F002021A631A6B02F00202E3
:101FB0000292029A1A6B42F004021A631A6B02F040
:101FC00004020392039A1A6B42F008021A631A6B16
:101FD00002F008020492049A1A6B42F010021A638B
:101FE0001A6B02F010020592059A1A6B42F0400239
:101FF0001A631A6B02F040020692069A1A6B42F4B8
:1020000080721A631B6B03F480730793079B08B0FD
:10201000704700BF00380240204B2DE9F04F5C6F45
:1020200095B014F0005440F092811D4A40F24941AD
:102030001268C2F30B028A423AD01A6B03264FF49D
:10204000C045012742F040020FA916481A631B6BD6
:10205000119403F04003139412964FF400540E931E
:102060004FF480460F950E9B109703F019FC142136
:102070000D4A0420568114810C4B00BF013BFCD15A
:102080000138F9D104205581084B00BF013BFCD138
:102090000138F9D10139ECD1FFF7C8FE0038024010
:1020A000002004E0001802401018024017A90100A7
:1020B000AF4DFFF75FFE2860BFF34F8FBFF36F8F09
:1020C000AC4BC3F85042BFF34F8FBFF36F8FBFF3DA
:1020D0004F8FBFF36F8FC3F850425A6942F40032FA
:1020E0005A61BFF34F8FBFF36F8FC3F88440BFF3C4
:1020F0004F8FD3F88020C2F34E30C2F3C9014201A2
:1021000043F6E0760C46164046EA8477013C994A4D
:10211000C3F86072671CF7D110F1FF30EFD2BFF344
:102120004F8FBFF36F8F0023C2F88430BFF34F8F00
:10213000D2F88030C3F34E34C3F3C903660143F6CB
:10214000E0701946304040EA81770139894EC2F883
:1021500060724F1CF7D114F1FF34EFD2BFF34F8FF1
:10216000736943F480337361BFF34F8FBFF36F8F95
:1021700003F00AFA804A00270320136843F400732F
:10218000136003F009FA3A466FF00B00394603F08A
:1021900017FA3A466FF00A00394603F011FA3A4648
:1021A0006FF00900394603F00BFA3A466FF003006E
:1021B000394603F005FA3A462046394603F000FA5C
:1021C000FFF77EFDFFF786FE03F078F96B4B1F608B
:1021D000FFF7DCFE00F0FAFEFFF7CCFC03F0CAF8D4
:1021E000FFF718FB664B0A2166481A68531C815496
:1021F000634AC3F30A03136001F0FAF94FF4007362
:102200000322012160480F93062312925F4A119125
:102210000FA91360109703F043FB5D4810235D493D
:102220003361C3685C4A43F00103C3600B6843F049
:1022300020030B60136843F01003136000F0D0FF1D
:10224000564B1B6813B1564801F0F0F92B68484C07
:1022500043B1544801F0EAF9206801F0FFF952480F
:1022600001F0E4F9514B5248DFF87891DFF878B18A
:10227000DFF878A10D9301F0D9F94E4B4E495A6819
:102280004E4B0F681B681A445242C2F30A02CBF845
:102290000020002F00F00E85002A00F0A9804FF0EA
:1022A0000108BE46464A474952F82370464A0F6025
:1022B00032F81320454E92B29009C2F3411402F055
:1022C0001F0102F0800500F4FE70326008FA01F18F
:1022D000ADB220433E4C3F4E21603F4C306054F83D
:1022E000204011EA040C18BF4FF0800CAC4534D0EC
:1022F000002D37D02143384C44F8201082EA0E0ECE
:1023000048F280010EEA010189B1DAF80010334C7D
:102310000131D9F80000C1F30C0144F82170814269
:102320002F4CCAF8001024F8112000F03785DBF894
:10233000002001332149C3F30A03013A0B60CBF8B3
:102340000020002A54D01C4AD2F800E0AAE75A6FB5
:1023500042F080725A67FFF769FD1EF0010FE6D167
:10236000002DC7D124EA01011B4C44F82010C5E719
:10237000D409002000ED00E0003C024010E000E045
:102380000C20002000F8042000000240C0130020B0
:10239000000401400048004058600240D00900207D
:1023A00098AB0008B4AB0008DCAB0008581D002057
:1023B000E4AB0008A06002403C0B0020CC0A0020E7
:1023C00000C00420BC13002000E00420A80B002063
:1023D000A00B0020B4130020B00B0020004001200F
:1023E00000000120340B0020B0130020180A002048
:1023F00001F01CFED9F80020DAF80030934200F01A
:1024000015859A4B18689A4B19689A4B5C68431A61
:10241000DB43C3F30A031B1BFF2B40F2DA840132B8
:102420009549964B0124C2F30C02954F53F8223084
:1024300031F8125093491E46ADB20C930A60924A8D
:10244000C5F3411105F080003D601360AA0905F055
:102450001F0380B202F4FE7204FA03F38B4C0A43AA
:102460008B490B608B49226051F8221013EA01045A
:1024700018BF8024844200F0E280002800F0DA8057
:1024800005F07F070B438449C5F3062583480F6099
:1024900047EAC5147F4941F82230814B814A53F8FD
:1024A00024301560F31A1840002840F0D6849E4668
:1024B00099B20EEB4E037A4E04EB44007A4A039332
:1024C0000C9B02EB4002DFF8048246F824303B020A
:1024D000548807932B0295880C440893039BA4B25D
:1024E000DFF8E4C19B009480704F09930EEB050365
:1024F0000025DFF8D0E103EB43030693A300059327
:10250000694B33F810300B449BB2538003EB430309
:10251000654A5B0022F810100A9322E08A1A3B6891
:10252000120A0133C2F580503B600899079B03FBF8
:1025300002F301FB02F2039900FB0133049900FB53
:1025400001221B0B120BC8F80030CCF8002001351B
:1025500008F104080CF1040C0437182D0EF1040ED8
:102560006DD0534BAE0053F82520002A67D00A9B4C
:102570009C1A504B53F8250084EAE471099BA1EBA7
:10258000E4719B1A0393059B039C9B1A002C0493F4
:10259000069BB8BF64429A1A049B002BB8BF5B42EB
:1025A0008142A8BF0146002AB8BF52428442D4BF2C
:1025B0000919091844008342D4BFCB180B18824272
:1025C000D4BF9B181B18A342C1DADCF80020D8F84E
:1025D000001008980391811ADEF8000004920B9015
:1025E000039A01FB01F10798821A0B9802FB021271
:1025F0003149013089591212CEF800008A428DD932
:10260000521A1B030D99B2F5803F715894BF1209FD
:1026100042F2E00293FBF4F301FB02F2C3F58053B4
:10262000B2EBC31FC0F0B4831B04B3FBF2F2C2F5DC
:1026300080507AE721EA0303164941F822301F4B04
:1026400042F6A9210C981A68821A8A4268D91C4E4F
:1026500000200C9A4FF48068154FB6460D968446BC
:10266000184C124D14491A60039655E00C200020B6
:10267000741F00205860024000000120004001202B
:10268000A80B0020340B0020BC130020B413002042
:10269000A00B002054150020AC0B002000C0FFFF51
:1026A00000400220A40B002000400320A01E0020B8
:1026B000201E002030140020CC130020941E002087
:1026C000581D002090140020F0140020BC1D002094
:1026D00023680A6803FB06F6C2EB562602EB2616B1
:1026E000B6F5806F98BF46460E601BB12E68360265
:1026F000B6FBF3F3039A013044F804CB043152F8EB
:10270000046B182845F804CBA3EB0603039206EBF1
:1027100023134EF8043B03D057F8046B002ED7D197
:10272000A14B1B68002B67D0A04A0C9C12689F48E5
:10273000A11A8B4260D2002A40F0A28304609C4B15
:1027400000259C4C9C4F9D4E0393DFF878821FE040
:10275000D8F8001046209A4B4A1C5854C2F30A027B
:10276000511C9854C1F30A02C8F8002057F8040B12
:10277000013500F0A7FF934B0A20182D1968904BE4
:1027800001F101025854C2F30A028E4B1A6033D091
:1027900054F8042B82B38B4B4FF02D0C05F1300E07
:1027A00056F8040B1A68864B0009511C03F802C046
:1027B0004FF0540CC1F30A014A1C03F801C0C2F3E4
:1027C0000A02511C03F802E07E4BC1F30A021A60B0
:1027D00000F044FF039B53F8040B0009039300F03F
:1027E0003DFF794B794A53F825000240002AAFD1CA
:1027F000000A00F067FFB9E7754B1D68002D72D025
:10280000744B754A1B681268C3F30624734EC2EBFF
:102810000231734A03F07F031068220333601B0305
:102820001144C0EB00306F4E090B18443460521A4B
:10283000000B694E6C4C316011111A1A684B01FB88
:1028400001F1246818601311674A03FB0313C4EBFA
:102850002323002B40F30683B3EB141F34BF203433
:1028600001341460614B624C1A68614B1B68D11AC9
:102870008D4238D2002B40F006832260514B2D242C
:102880004F4E54251B682E21000A5A1CF4544D4CFF
:10289000C2F30A02531CB554C3F30A035A1CF15481
:1028A000C2F30A03236000F0D9FE4B4B1868000AFC
:1028B00000F0D4FE4C4B18684E4B0340002B00F048
:1028C000E582236846215A1CF154C2F30A02531CC4
:1028D000B154C3F30A035A1C0A213948C2F30A024D
:1028E000C154384B1A60444B1D68002D00F0018123
:1028F000384B3C4A186800F07F06C0F30620B31E30
:102900000236871E10607F2E23EAE37300F1020077
:1029100027EAE77700F282827F2888BF7F202F4A4C
:10292000B3429E4613601CD807EBC314334B03EB32
:102930004404023CB842C0F0438221463A4631F892
:10294000023F0132013382420B80F8D90EF1010EB1
:1029500004F58074B645EDD9224B1A601F4BC3F8BD
:1029600000E0224B26481A68254B1B68D11A8D427D
:1029700080F0BF80002B40F080820260214B00225B
:102980002149D3F800C01646204B144603919046C7
:10299000D3F800E017461E49134615460A6018464C
:1029A000039900223CE000BF901E0020881E0020FA
:1029B000F0140020201E0020581D0020BC1D002007
:1029C00000F804200C200020CC1300200000FFFFA2
:1029D000B81D0020A80B0020801E0020AC0B00209A
:1029E0002C140020A40B0020C8130020BC130020CE
:1029F000501500200000F8FF981E002000C00120A4
:102A00001C1E0020C4130020FEBF01209C1E0020BD
:102A1000841E0020013203460D80802A18460DD006
:102A200031F8023F8342F5D9964601320124B4467B
:102A3000802A0D80A04627461846F1D1039A013618
:102A400002F58072802E0392A9D1002F40F0A4825B
:102A50008023B64A1360B8F1000F02D0B44BC3F81C
:102A600000C014B1B34BC3F800E0B34B2D21B34CFD
:102A700054251A68B24BA1541868531CAC4AAF4E87
:102A8000C3F30A031168C0EB0010AE4AF5540133DA
:102A900014680905A74AC3F30A0301EB00202A259D
:102AA0001268C4EB0414591CF5541205C1F30A034F
:102AB000A34902EB0422040B120B0C608021A14CF1
:102AC000000D22609C4A13609F4B196000F0C6FD08
:102AD0002068000A00F0C2FD9C4B186800F0BEFDA3
:102AE000954B0A211A68531CB154934AC3F30A0345
:102AF0001360974B1B6823B9964B1B689B053FF5EA
:102B0000BCAB954B1B68062B3FF6B7ABDFE803F079
:102B1000BE9778542B190400904B1A68904B02F022
:102B20007F011868C2F306230091C2F3C01201901E
:102B30008C498D4804F018FA8B4800F077FDFFF7B8
:102B40009CBB864B89491A68874802F07F04C2F310
:102B50000623C2F3C012009404F006FA824800F083
:102B600065FDFFF78ABB744B744E1D687B4B7C4A36
:102B70001C686B1C1268C3F30A03200A591C60F01E
:102B80007F00C1F30A017055F454100E4B1C140C55
:102B90007054100AC3F30A03591CF454C1F30A0118
:102BA0004B1C7054C3F30A03591CF254624AC1F31C
:102BB0000A031360FFF761BB5F4B604E1D68674BF4
:102BC0006A1C1C68C2F30A02654B200A1968531C70
:102BD00060F07F00C3F30A037055080CB4545A1C0C
:102BE000F054080AC2F30A02531CB054C3F30A0398
:102BF0005A1CF154C2F30A034F4A1360FFF73DBB5E
:102C00004D4B574A1D68554B10681C686B1C4B4E4A
:102C1000C3F30A03210A5A1C61F07F01C2F30A02BE
:102C20007155F454010A531CB154C3F30A035A1CDE
:102C3000F054C2F30A03404A1360FFF71EBB484B2F
:102C40004B4A18684B4B1B68C31A7F2B13603A4AD8
:102C500000F22181176863F07F06404B791C1D68E4
:102C6000C1F30A01354B2C0A4A1C64F07F04C2F3FD
:102C70000A02DC555D54531C3049C3F30A038E54D9
:102C80002D4A13603B4B1860FFF7F7BA2A4B2B4DC8
:102C90001C68324B1868631C010AC3F30A0361F015
:102CA0007F015A1C2955C2F30A02E854224B1A60CC
:102CB000FFF7E3BA002A3FF49BAB2F4C0CE0DBF8A4
:102CC000002001332D49C3F30A03013A0B60CBF80E
:102CD0000020002A3FF48CABDAF8002028490132AA
:102CE000284D51F82310C2F30C02D9F8000045F822
:102CF000221082422449204D31F81310CAF80020D6
:102D000089B225F81210DAD101322049C820C2F365
:102D10000C0234F812300A60C3F30E0324F81230A8
:102D2000FEF716FF154B1B68C9E700BFA40B002078
:102D3000C41300209C1E00200C20002000F804205A
:102D40008C1E0020541D0020AC0B0020841E00208F
:102D5000380B002010000240C0130020A80B0020F8
:102D6000BC130020FCAB0008E41F0020ECAB000803
:102D7000DC090020D809002000000120CC0A002036
:102D800000C004200040012000E00420340B00209B
:102D90004FF460604FF40072FFF7C7BB4B1C8049D3
:102DA000C820C3F30C0334F813200B60C2F30E02E7
:102DB00024F81320FEF7CCFE7A4B1B68FFF7B7BA56
:102DC0000EF1010E3A4604F58074B6457FF6B2ADB9
:102DD000C2E5754B0022754C88422261D3F88421EC
:102DE00042F48042C3F88421D3F8842142F0800267
:102DF000C3F884210FD06E498A6842F000628A606D
:102E0000D3F8802142F48042C3F88021694B5B688B
:102E1000002B3FF432AA20BFFFF72FBA7F284FF0D4
:102E20007F067FF67CAD9E4630467DE55E4B0022F8
:102E30005E490A61D3F8842142F48042C3F88421B8
:102E4000D3F8842142F08002C3F884215A4A1168E1
:102E50005A4A12689142CED1DDE743F6FF718E46A1
:102E6000FFF727BB3FF4FEAC21094942994234BF2A
:102E7000203C04F1FF341460F4E42B4403607DE54E
:102E8000134403605BE42B442360F7E4C00A00F0C2
:102E900019FC23681FE5B3F5804F20D2D2F800E07B
:102EA000DE09474A63F07F05464B17680EF10102C1
:102EB000C2F30A023C0A511C64F07F04C1F30A0108
:102EC00003F80E409F544A1C5E543E49C2F30A0266
:102ED000531C8D54394AC3F30A031360D2E6B3F589
:102EE000001F29D2D2F800C09F0B354AC3F3C61584
:102EF0000CF1010163F07F04D2F800E0C1F30A0194
:102F0000304B4FEA1E264A1C66F07F06C2F30A02C7
:102F100003F80C6003F801E0511C9F54C1F30A014F
:102F20004A1C5D542749C2F30A02531C8C54234A9D
:102F3000C3F30A031360A5E6D2F800E0C3F34656D4
:102F40001F4AC3F386351F4917680EF101023C0A78
:102F5000C2F30A0264F07F0402F1010C01F80E4092
:102F6000CCF30A01174CA7544A1C164FC3F3C614DE
:102F7000C2F30A0263F07F037E54511CBD54C1F3B7
:102F80000A014A1C7C54C2F30A02511CBB540B4A6E
:102F9000C1F30A03136075E60B4A136058E500BFDE
:102FA000340B0020CC0A002000E100E000040140C6
:102FB0000060024058600240741F00200C20002076
:102FC000A80B002000F80420841E0020364A0023AD
:102FD00036494FF0804040F2E73C2DE9F041146C57
:102FE00084B001264FF0040844F0020420276B252A
:102FF0004FF0270E1464146C04F002040094009C3B
:10300000C1F800804FF017084F604B628B62CD62B1
:103010008B61CB610B624E61176C254C3743254D9C
:103020001764176C37400197019F03604360436248
:103030008362C0F808E08361C36103624661176C74
:1030400047F008071764176C07F008070297029FFC
:10305000236063606362C4F828C0C4F80880A36179
:10306000E36123626661576C37435764526C3240A8
:103070000392039A2B606B606B62C5F828C0C5F899
:1030800008E0AB61EB612B626E612B6833432B6010
:103090002368334323600368334303600B6833437F
:1030A0000B6004B0BDE8F08100380240000400402D
:1030B000000C0040000001404FF080435862704710
:1030C0004FF08043586A704770B586B002230322E0
:1030D000402401A90E480194302602934FF0804508
:1030E00003930593049202F0DBFB0A4B01220021BB
:1030F00009489A611A6A094C42F001021A625E603C
:10310000696241626368012B00D1436106B070BD02
:1031100000000240000400400000014088640240BA
:1031200010B586B000230322064801A901240293AA
:10313000039305930492019402F0B2FBFFF7C4FFDE
:1031400006B010BD0004024070B586B00223032211
:1031500001260025044601A90C4802930593049218
:103160000196039502F09CFB094B7022DA611A6A02
:1031700042F480721A621CB13522DA6306B070BD67
:103180006C22DA63FFF7A0FF06B070BD00040240B6
:103190000004004030B587B000244023032501A976
:1031A0000C480193029403940594049502F078FB73
:1031B000012301A9084801930294039404950594FE
:1031C00002F06EFB054B20225A609C61DC611C62A0
:1031D00007B030BD0000024000040240000400407F
:1031E0002DE9F04F0021314D314C83B031484FF47F
:1031F000804929600A4621600B460160DFF80081A2
:103200002D48DFF800C1DFF800E12C4F2C4E2D4D8A
:103210002D4C0190013201984FF4806B48F8043F27
:10322000182A40F8043F4CF8043F4FF000014EF8D4
:10323000043F4FF4804A47F8043F46F8049F45F89E
:10324000049F44F804BF0190E4D120484BF6803439
:103250001F4B40F2EE22046008461A601D4C1E4BC4
:103260001E4D1F4A2160C3F800A01E4C1E4B296052
:10327000C2F800A01D4D1E4A216003F50044C5F8A8
:1032800000B0116003F5807223F8020F93424FF0F3
:103290000001F9D19C42F5D11648174A174B01603D
:1032A0001160196003B0BDE8F08F00BF901E0020D0
:1032B000941E0020881E0020541D00209C1E00200B
:1032C000B81D0020EC140020C8130020201E002090
:1032D0003014002050150020801E0020B81D002052
:1032E0002C140020981E0020FEBF0120C8130020CF
:1032F0001C1E0020841E00209C1E0020C4130020E1
:103300001C1E00202C1400208C1400200000000043
:103310002DE9F04FA2482DED028B9DB000F086F90B
:10332000A04800F083F9A04800F080F99F4800F021
:103330007DF901F025FE0720FDF782FFFEF77CF8FE
:103340003220FEF77FFC9A4B002103F5006243F820
:10335000041F9342FBD1974B0022974903F5C030DD
:103360001A80063323F8042C23F8022C834241F8F8
:10337000042FF5D1914C924DA368DFF868A223F099
:103380004003A3606B68C3F50063CAF80030FEF722
:10339000B7FB01906420FEF7A3FBE36913F0200361
:1033A00040F0D58099469FED878A0095009BDAF81A
:1033B00000405D6825446D42C5F30A05002D00F00C
:1033C000BF80DFF824B24F4678E04FEA530C0A433F
:1033D00003F07F037C480CF47E514BF82E200B4306
:1033E0007A499A001144D1F83819711A0840002816
:1033F00040F0C98088B203EB430CDFF8F0E1734B77
:1034000042F6BE381A440EEB4C03B3F8B0EAB3F8F8
:10341000B2CAC2F8386901EB0E02B3F8B49A62443A
:10342000A3F8B00AA3F8B2EAA3F8B4CA02EB0903FE
:103430006FF4487298108218424534D85B12C21A51
:10344000034491422FDD99422DDA96452BDD9E45AE
:1034500029DA944527DD9C4525DA914523DD9945F8
:1034600021DA07EE900AF8EEE77A17EE900AFDF7F8
:1034700059F847A3D3E90023FDF7A8F88046894609
:1034800018EE100AFDF74EF843A3D3E90023FDF729
:103490009DF802460B4640464946FCF7E5FEFDF71F
:1034A000A7FA08EE100A4A4B3B449E4231D8013439
:1034B000013DC4F30A04CAF8004040D0454B4FF028
:1034C000010C53F82460444B33F814309BB2990933
:1034D000C3F3411E03F01F0203F0800001F4FE71EC
:1034E0000CFA02F280B241EA0E0E5BF82E1012EADC
:1034F000010C18BF4FF0800C8445D4D000287FF415
:1035000064AF334B21EA02023B444BF82E209E422B
:10351000CDD9FCEEC87A314903A8374617EE902A78
:1035200003F022FD03A800F081F8DAF80040013D25
:1035300004F10104C4F30A04CAF80040BED1B9463C
:1035400000F074FD1D4BDB699B067FF52FAF1B4A16
:103550000198536ADBB28DF80B309DF80B300133C4
:10356000DBB28DF80B30936843F040039360FEF7B5
:10357000B7FA1B4800F05AF801F002FD1DB0BDEC8F
:10358000028BBDE8F08F43F6FF70014633E700BFC2
:10359000FCA9F1D24D62503F2B8716D9CEF7EF3FF1
:1035A00010AC000840AC00087CAC0008C8AC0008B7
:1035B0005015002000400320FC3F0220004800403E
:1035C000A06002400000000000C0FFFFC8360220DB
:1035D00040420F0000C0042000E0042008AD0008B5
:1035E000E8AC0008CC0A0020541500205035032018
:1035F00010B509480A2400F019F8084800F016F838
:10360000074800F013F8074A074811684B1C445458
:10361000C3F30A03136010BD18AD000824AD000801
:1036200028AD00080C20002000F8042003787BB1AE
:10363000084930B40B68084D5A1C0A6010F8014B59
:10364000EC54C2F30A030B600278002AF4D130BCB8
:10365000704700BF0C20002000F804202DE9F04343
:10366000154FC0F30333154AC0F3031E3E6812F82A
:103670000380C0F30323741C00F00F0012F803C092
:10368000C4F30A0412F80E9012F800E0611C0C4A10
:10369000C1F30A0102F8068002F804C04B1C02F8CC
:1036A0000190C3F30A035D1C02F803E0C5F30A00AE
:1036B0003860BDE8F08300BF0C200020CCB60008C5
:1036C00000F804200A490A6870B4531C094DC0F37D
:1036D0000316094CC3F30A0300F00F00AE5D285C2B
:1036E000A6545A1CE054C2F30A0370BC0B60704726
:1036F0000C200020CCB6000800F80420A24AF0B547
:10370000537893B0423B322B00F2EA80DFE813F0AB
:10371000A100E800E8008000E800E800E800E80018
:10372000E800E8006000E800E800E800E800E800E1
:10373000E800E8003300E800E800E800E800E800FE
:10374000E800E800E800E800E800E800E800E80039
:10375000A100E800E8008000E800E800E800E800D8
:10376000E800E8006000E800E800E800E800E800A1
:10377000E800E80033009178834B2E2900F0228185
:103780002A2900F0568101F0DF004D2800F08E82DA
:103790002D2940F00D8200207C4B7D4D7D4C014653
:1037A00003F160022860206043F8041F9A42FBD1B5
:1037B000794C2D2179482368794AD154013310F886
:1037C000011FC3F30A030029F7D1236013B0F0BD32
:1037D00095786D4A2D2D00F0C0812B2D00F0C1820F
:1037E000D3783D2B00F09882FA202E2D00F0A8828D
:1037F000694CFEF7ADF92D216A482368684AD15417
:10380000013310F8011FC3F30A030029F7D1DCE7E5
:1038100091785D4B01F0DF00542800F0818046284C
:1038200040F03381DB782D215F4E5B4C2B2B3268CF
:10383000236800F01F8222F001055C48584A356079
:10384000D154013310F8011FC3F30A030029F7D143
:10385000BBE7927802F0DF03462B4FD0A2F1300392
:10386000092B00F28E82524B002404EB840402EBFD
:10387000440413F8012FA2F13001303C0929F4D996
:103880002646587800210133A0F13002092A0AD8CF
:1038900001EB810100EB410113F8010FA0F13005AC
:1038A0003039092DF4D92046424DFDF7B7FC2046AA
:1038B000FDF7BCFC404903463246284603F054FB62
:1038C0002978002982D0344C2846354A2368D154BF
:1038D000013310F8011FC3F30A030029F7D174E77D
:1038E0002D4C5321354823682D4AD154013310F80B
:1038F000011FC3F30A030029F7D166E7264C2D21E7
:103900002F482368264AD154013310F8011FC3F30E
:103910000A030029F7D12360FDF78EFD13B0F0BD37
:10392000D978A1F149032A2B00F28681DFE813F050
:10393000F000840184018401000184018401840178
:1039400084018401E00084018401840184018401F4
:10395000840184018401840184018401840184013F
:10396000840184018401840184018401840184012F
:10397000F000840184018401000184018401840138
:1039800084018401E00000BF702000201C1E002084
:10399000901E0020881E00200C200020DCAD0008B6
:1039A00000F80420B4AD00083C0B00207CAD0008FA
:1039B00072200020E41F002084AE000870AE0008D2
:1039C0004CAD0008D8783D2800F00D8101F0DF00F3
:1039D000522840F05D81D378B6493D2B40F0F58008
:1039E0000A79A2F13003092B00F27E820431002310
:1039F00003EB830302EB430311F8012FA2F1300024
:103A0000303B0928F4D9AC480021AC4A036011606E
:103A1000002B40F04F82AA4C2D21AA482368AA4AC5
:103A2000D154013310F8011FC3F30A030029F7D161
:103A3000CBE6D8783D28C9D11A79A2F130010929FD
:103A400000F22C820433002404EB840402EB4404CF
:103A500013F8012FA2F13001303C0929F4D99B4918
:103A600000229B4B0C601A60002C40F0F781944CB4
:103A70002D2198482368944AD154013310F8011F2E
:103A8000C3F30A030029F7D19FE6502876D03D29D9
:103A900000F07B819A1CA1F13003092B00F2FA811E
:103AA000002303EB830301EB430312F8011FA1F191
:103AB0003000303B0928F4D9062B874988BF0623FC
:103AC0001A460B60854D8649284603F04DFA297841
:103AD00000293FF47BAE7A4C28467B4A2368D154B8
:103AE000013310F8011FC3F30A030029F7D16CE674
:103AF000734CFFF715FB2D217A482368724AD15485
:103B0000013310F8011FC3F30A030029F7D15CE663
:103B10006B4CFFF73FFB2D21734823686A4AD15451
:103B2000013310F8011FC3F30A030029F7D14CE653
:103B30001379302B00F05581614C0120FFF704FB15
:103B40002D216A482368604AD154013310F8011FBF
:103B5000C3F30A030029F7D137E6594CFDF7E8FF14
:103B60002B4663482168584A5354013110F8013FED
:103B7000C1F30A01002BF7D1216027E6D9785D4E09
:103B80002B2900F006812D2900F03C8132682D217F
:103B90004B4C22F40045584823684B4A3560D154B9
:103BA000013310F8011FC3F30A030029F7D10CE613
:103BB0006F2940F09F81D97866297FF409AF1B797E
:103BC000662B3FF4E8AD522862D13D4C65214B484D
:103BD00023683D4AD154013310F8011FC3F30A038F
:103BE0000029F7D1F1E51A79A2F13001092900F293
:103BF0005B810433002404EB840402EB440413F8D7
:103C0000012FA2F13001303C0929F4D93C490022AE
:103C10003C4B0C601A60002C40F00681284C2D2192
:103C200039482368284AD154013310F8011FC3F3DF
:103C30000A030029F7D1C8E53D2900F0BE80002421
:103C4000264D2046FFF738FA30492246284603F031
:103C50008BF9297800293FF4B9AD194C28461A4A46
:103C60002368D154013310F8011FC3F30A0300295C
:103C7000F7D1AAE542F001052548134A3560D15431
:103C8000013310F8011FC3F30A030029F7D19CE5A3
:103C90000B4C75211F4823680B4AD154013310F88F
:103CA000011FC3F30A030029F7D18EE5FFF730FBAC
:103CB0008CE500BF70200020901E0020881E002090
:103CC0000C2000200CAE000800F80420981E0020F4
:103CD0001C1E0020CCAD0008C0130020E41F0020F3
:103CE0009CAE000854AD00086CAD000864AD00083F
:103CF0009CAD00083C0B002094AD00081CAE0008F1
:103D0000B81D002050150020BCAD000890AE000882
:103D100074AD000850AE00081379A3F130010929F1
:103D200000F2B6800432002000EB800003EB40007C
:103D300012F8013FA3F1300130380929F4D954E5D4
:103D4000A04C80B2FDF7CCFE2D219F4823689F4AEE
:103D5000D154013310F8011FC3F30A030029F7D12E
:103D600033E5984CFDF7D2FE2D2199482368974AF8
:103D7000D154013310F8011FC3F30A030029F7D10E
:103D800023E50026934B34467BE51A4612F8031FC1
:103D900081E632682D218B4C22F080058E48236805
:103DA00045F40045894A3560D154013310F8011FAC
:103DB000C3F30A030029F7D107E51379A3F1300211
:103DC000092A3FF63CAF854A002404EB840403EB48
:103DD000440412F8013FA3F13001303C0929F4D921
:103DE0002EE7784C0020FFF7AFF92D217C4823689F
:103DF000764AD154013310F8011FC3F30A03002996
:103E0000F7D1E2E4326848F280056E4C15437548FC
:103E100023686E4A3560D154013310F8011FC3F393
:103E20000A030029F7D1D0E46F4B22466F4902A85C
:103E3000B3FBF4F303F098F89DF8081000293FF461
:103E4000C5AC604C02A8614A2368D154013310F814
:103E5000011FC3F30A030029F7D1B6E4624B2246DF
:103E6000634902A8B3FBF4F303F07EF89DF8081051
:103E700000293FF4ABAC534C02A8544A2368D154F8
:103E8000013310F8011FC3F30A030029F7D19CE4A2
:103E90000020AAE4574B00221A6013E6002356497B
:103EA000564A0B601360E2E500235549554A0B6002
:103EB0001360B3E64C4C1A46534902A8B4FBF3F323
:103EC00003F052F89DF8081000293FF47FAC3D4CF8
:103ED00002A83E4A2368D154013310F8011FC3F3EE
:103EE0000A030029F7D170E400234849484A0B60CF
:103EF000136090E544287FF46BADDA78303AD1B2A4
:103F0000172902D819793D290DD02E4C6521414839
:103F100023682E4AD154013310F8011FC3F30A035A
:103F20000029F7D151E45879A0F1300109293BD893
:103F30000533002101EB810100EB410113F8010F72
:103F4000A0F130043039092CF4D901EB4101324C95
:103F500032488B00990944F8223040F8221053B3BC
:103F60002F4E02AD204FA6FB03032846A6FB0116E9
:103F70002C49DC08F60823460096B7FBF4F40194BC
:103F800002F0F2FF9DF8081000293FF41FAC0D4C21
:103F900028460E4A2368D154013310F8011FC3F399
:103FA0000A030029F7D110E400231B481B4940F8FD
:103FB000223041F8223002AD1B49284602F0D4FFDE
:103FC000E0E700BF0C200020ACAD000800F80420A2
:103FD000A4AD00087220002084AD000874200020E9
:103FE0005CAD00088CAD000840420F00A4AE000894
:103FF000B8AE0008C0130020981E00201C1E002030
:10400000B81D00205015002000AF0008901E0020B1
:10401000881E0020E4AD0008201E0020301400207F
:10402000ABAAAAAACCAE0008ECAE00082DE9F04776
:104030007D4B7E4C5A6823687D4D1A447D4952421F
:104040000B68C2F30802B2F5E07F2A6040F2DB8021
:10405000002B40F0D88078484FF480460123068139
:104060000B60764FDFF8FC913B68D9F80000834283
:104070003DD073494968002939D1C01AC0F30A00FC
:104080001A18B2F5006F6F4A02EB030E88BFC3F532
:1040900000602EF01F02BFF34F8F00F11F03002BB3
:1040A0000EDD00F11E0102F12003674E21F01F0119
:1040B00019449942C6F868221A4603F12003F8D140
:1040C000BFF34F8FBFF36F8F60495D4B8A6842F03B
:1040D00074628A605860C3F80CE01A6842F001020A
:1040E0001A603B682A680344C3F30A033B60584FD5
:1040F000584EDFF874810AB32368013AF95C013342
:104100002A60C9B2C3F30803A1F1080023600B2899
:1041100060D8DFE800F03D5F215F5F215F5F5F15E2
:104120005F06D8F800304C4923F04063C8F80030EF
:104130000B6843F400030B60002ADDD1BDE8F08773
:1041400045490B6823F440030B60D8F8003043F076
:104150000063C8F80030CEE733684FF0000E3F4AE6
:10416000DFF8FCC0D018D154DCF8003080F801E052
:1041700043B9D9F800203348531C8154C3F30A03D0
:10418000C9F800300023336000F01CFF2A68B2E752
:104190003368002BAFD032490968C1B9D9F8001093
:1041A0004FF0080CDFF89CE04FF0200A481C0EF896
:1041B00001C0C0F30A00411C0EF800A0C1F30A01BF
:1041C000481C0EF801C0C0F30A01C9F80010013BF9
:1041D000336090E733682248DFF880C003F1010EB6
:1041E00000680CF80310C6F800E0002883D1D9F865
:1041F0000000DFF850E0431C0EF80010C3F30A0380
:10420000C9F8003077E7B2F5C07F2CBF002303F078
:104210000103002B3FF425AF07484FF480460023ED
:1042200046810B601DE700BF28600240801F002010
:10423000781F00207C1F002010040240741F002003
:104240005860024000F8042000ED00E000600240E9
:1042500000F60420001F0020000C02407020002007
:10426000380B00200C20002000040240F8B5994CC7
:10427000FFF7BEF9636823B1FFF7D8FE6368002B30
:10428000FAD1954D0A26954C532328689449421C2F
:104290002654C2F30A02A354013211F8013FC2F3BB
:1042A0000A028E4E002BF6D1531C0A2720218D487E
:1042B000C3F30A03B754E154013310F8011FC3F3E9
:1042C0000A030029F7D120228749E254013311F86B
:1042D000012FC3F30A03002AF7D120228349E254B5
:1042E000013311F8012FC3F30A03002AF7D120226A
:1042F0007F49E254013311F8012FC3F30A03002A66
:10430000F7D120227B49E254013311F8012FC3F386
:104310000A03002AF7D120227749E254013311F829
:10432000012FC3F30A03002AF7D120227349E25474
:10433000013311F8012FC3F30A03002AF7D1202219
:104340006F49E254013311F8012FC3F30A036348A4
:10435000002AF6D15A1C0A215E4EC2F30A02C15449
:104360002A6073682BB1FFF761FE7368002BFAD1E6
:104370002A6820236349A354013211F8013FC2F394
:104380000A02002BF7D120235F49A354013211F810
:10439000013FC2F30A02002BF7D120235B49A3544B
:1043A000013211F8013FC2F30A024C4E002BF6D144
:1043B000531C47275D215648C3F30A03B754E15401
:1043C000013310F8011FC3F30A030029F7D120229B
:1043D0005049E254013311F8012FC3F30A03002AB4
:1043E000F7D120224C49E254013311F8012FC3F3D5
:1043F0000A03002AF7D120224849E254013311F878
:10440000012FC3F30A03354E002AF6D15A1C0A279E
:1044100020214348C2F30A02F754A154013210F894
:10442000011FC2F30A020029F7D120233D49A354FA
:10443000013211F8013FC2F30A02002BF7D1202309
:104440003949A354013211F8013FC2F30A0223484B
:10445000002BF6D1531C0A211E4EC3F30A038154CC
:104460002B6072682AB1FFF7E1FD7368002BFAD167
:104470002B6820222D49E254013311F8012FC3F398
:104480000A03002AF7D120222949E254013311F806
:10449000012FC3F30A03002AF7D120222549E25451
:1044A000013311F8012FC3F30A03002AF7D12022A8
:1044B0002149E254013311F8012FC3F30A030748DD
:1044C000002AF6D15A1C0A21C2F30A02C1542A60FA
:1044D000F8BD00BF586002400C20002000F8042006
:1044E00014AF00082CAF00087CAF0008C0AF000874
:1044F00014B000084CB0000880B00008C0B000083C
:10450000F0B0000818B1000868B10008B0B10008A8
:10451000E0B1000800B200083CB2000890B2000808
:10452000E4B2000830B3000860B3000894B3000898
:10453000C8B30008E8B3000814B4000810B5294C4B
:10454000636823B1FFF772FD6368002BFAD1264C34
:10455000202126482368264AD154013310F8011F30
:10456000C3F30A030029F7D120212248D154013393
:1045700010F8011FC3F30A030029F7D120211E48B8
:10458000D154013310F8011FC3F30A030029F7D1F6
:1045900020211A48D154013310F8011FC3F30A0334
:1045A0000029F7D120211648D154013310F8011FFA
:1045B000C3F30A030029F7D120211248D154013353
:1045C00010F8011FC3F30A030029F7D120210E4878
:1045D000D154013310F8011FC3F30A030029F7D1A6
:1045E000236010BD586002400C20002034B4000845
:1045F00000F804207CB40008C0B4000804B500082A
:1046000048B500088CB50008C4B500082DE9F04F86
:10461000834C93B063783F3B372B00F20583DFE890
:1046200013F03D000303030365001B010303A70010
:10463000030303030303030303030303030303034A
:10464000030303030303030303030303C30003037D
:1046500038000303030303030303030303030303F8
:10466000030303030303030365001B010303A70004
:10467000030303030303030303030303030303030A
:10468000030303030303030303030303C30003033D
:104690003800FEF7ADFF13B0BDE8F08FA37803F04C
:1046A000DF03452B00F09D83542B40F0B0835D4821
:1046B0002D225D4C03685D49CA54013314F8012F63
:1046C000C3F30A03002AF7D130220360541CCA54F2
:1046D0000133564DE2B2C3F30A03482AF6D15A1CFD
:1046E0000A21C2F30A02E9540260D4E7A3780D2B31
:1046F00018BF0A2B00F0438303F0DF02A2F141024E
:10470000B2FA82F25209002A40F03983A3F1300153
:10471000092900F21983464902EB820203EB4202A7
:1047200011F8013FA3F13000303A0928F4D90B2ADF
:10473000144640F38483002004463E4DFCF776FD8A
:10474000224603463C49284602F00EFC2A78002AFD
:10475000A1D0344835490368CA54013315F8012FF4
:10476000C3F30A03002AF7D1036013B0BDE8F08F4A
:10477000A37803F0DF03542B00F0E982462B40F0CE
:1047800062822E4B2D2227481B68DC0740F1B9823C
:104790002B4C03682549CA54013314F8012FC3F385
:1047A0000A03002AF7D1DFE7A5781D4E2E2D00F071
:1047B00006832A2D00F01883A5F13003DAB2172AF8
:1047C00000F256821F4A52F82310002900F030836D
:1047D0001D4E1A461D4802ACA6FB01511C4F50F855
:1047E00023302046CD081B49A6FB03362B46F6088E
:1047F000B7FBF5F50096019502F0B6FB9DF8082091
:10480000002A3FF448AF074808490368CA540133F7
:1048100014F8012FC3F30A03002AF7D1A4E700BF5D
:10482000702000200C20002058B6000800F804205A
:1048300072200020E41F002084AE00083C0B002002
:1048400074AD0008201E0020ABAAAAAA30140020D4
:1048500040420F00CCAE0008E44B4422E448196803
:104860001D684FEA114E0368C5F30B07E14CE2499E
:10487000CA54013314F8012FC3F30A03DE4E002A91
:10488000F6D103F1010805F00F023C0ADB4DC8F335
:104890000A08C7F3031715F80290302208F1010C3B
:1048A00015F807B0F2542022CCF30A0C15F804A036
:1048B000D34C0CF1010706F808A006F80CB0C7F3BA
:1048C0000A077B1C06F80790C3F30A030360CA5467
:1048D000013314F8012FC3F30A03C74F002AF6D19E
:1048E0005C1C4FEA1E32CEF3032CCEF30316C4F346
:1048F0000A0415F8029015F80C800EF00F0E621CD9
:1049000007F80390AE5DC2F30A0207F8048015F8B9
:104910000EC04324531CBE544FF00A0EB94EC3F3CD
:104920000A035A1C07F803C0C2F30A02531C07F813
:1049300002E0C3F30A03CC54013316F8014FC3F36A
:104940000A03AD4A002CF6D103F1010EAE4C036010
:104950004FF02E0CCEF30A0E24680EF10107260F3D
:10496000C4F30369C4F30358C7F30A0715F806A094
:1049700015F808807E1C02F803A015F80930C6F36C
:104980000A06DFF89C9202F80E30C4F3034E731C43
:1049900002F8078015F80EE0C4F30337C3F30A03E7
:1049A00002F806E0C4F3032E5E1CEF5D15F80EE07E
:1049B000C6F30A06D754C4F3031704F00F04731C9C
:1049C00002F806E015F807804FF00A0EC3F30A0359
:1049D0002F5D8E4E5C1C02F80380C4F30A04631C36
:1049E0001755C3F30A035C1C02F803C0C4F30A049E
:1049F00004F1010804603368C8F30A081E0FC3F30A
:104A0000036A08F10107AE5DC7F30A0715F80AA0AB
:104A10001655C3F303547E1C02F808A02C5DC3F3A3
:104A2000034AC6F30A06C3F30338D455741C15F8B9
:104A30000A7015F80880C4F30A049755C3F30327D6
:104A4000661C02F8048015F80780C3F30317C6F349
:104A50000A0603F00F03741C02F8068015F807809D
:104A6000C4F30A04EF5C661C02F804804624C6F313
:104A70000A06731C9755664EC3F30A035F1C02F8BF
:104A800003C0C7F30A0707F101080760D9F800302F
:104A9000C8F30A084FEA1379C3F3036A08F1010C5B
:104AA00015F80990CCF30A0C15F80AA002F8079043
:104AB000C3F303590CF1010702F808A015F80980A7
:104AC000C3F3034AC7F30A0702F80C80C3F30338A1
:104AD00007F1010915F80AC015F808B0C3F3032A55
:104AE000C9F30A0902F807C0C3F3031803F00F075C
:104AF00009F1010C15F80A3015F808A0CCF30A0CDE
:104B000015F8078002F809B00CF1010702F80C3023
:104B1000C7F30A077B1C02F807A0C3F30A035F1C54
:104B200002F80380C7F30A077B1C02F807E0C3F30F
:104B30000A030360CC54013316F8014FC3F30A0390
:104B40002D4F002CF6D103F1010C324A4FF00A0828
:104B5000CCF30A0C12880CF1010E92B2CEF30A0EBD
:104B6000C2F3032AC2F303164FEA123B0EF101040B
:104B700002F00F0915F80B20C4F30A0415F80AB067
:104B800015F806A0661CFA5415F809905022C6F3D1
:104B90000A0607F80CB007F80EA0731C07F804907B
:104BA0001D4CC3F30A0307F806800360CA5401339F
:104BB00014F8012FC3F30A030F4E002AF6D15A1C32
:104BC000302716490A24C2F30A020988F754531CF5
:104BD000C1F30221C3F30A036D5C591CB554F454AC
:104BE000C1F30A03036013B01CE000BF002004E01F
:104BF0000C2000200CB6000800F80420CCB60008F9
:104C000024B600082CB6000820F4F01F24F4F01F8E
:104C10003CB6000842F4F01F48B60008F07BFF1FC6
:104C200028F4F01FBDE8F08FA7484722A74C03687F
:104C3000A749CA54013314F8012FC3F30A03002A09
:104C4000F7D1036091E5502B67D1A24B2D229E48EE
:104C50001B68190400F1DE809F4C03689C49CA540C
:104C6000013314F8012FC3F30A03002AF7D17BE5BF
:104C70009A4B1B68002B40F0E48093482D22984CFF
:104C800003689349CA54013314F8012FC3F30A038C
:104C9000002AF7D1036005F0DF05522D3FF4FBAC8D
:104CA000904D0024904F914EDFF8788255F8043BE8
:104CB000002B3FF4F0ACA6FB032357F8041B22465D
:104CC000DB08A6FB010102A8C908B8FBF3FE8DE8CA
:104CD0000240874902F048F99DF808206AB17A48F5
:104CE0000DF1080E7A490368CA5401331EF8012FEA
:104CF000C3F30A03002AF7D103600134182CD5D17D
:104D0000C9E47C4C03687249CA54013314F8012F7A
:104D1000C3F30A03002AF7D126E5774B774D1A68CB
:104D20002846774902F020F92A78002A3FF4B3ACEC
:104D3000654867490368CA54013315F8012FC3F366
:104D40000A03002AF7D10FE510461446F5E46B4D2F
:104D5000FEF7B6F96B490246284602F005F92A78B3
:104D6000002A3FF498AC584859490368CA540133A3
:104D700015F8012FC3F30A03002AF7D1F4E4002445
:104D80005E4D514E2046FCF751FA224603465E49DD
:104D90005A4802F0E9F82A785AB1336857484C4922
:104DA000CA54013310F8012FC3F30A03002AF7D1C4
:104DB000336001340C2CE5D113B0BDE8F08F534BB8
:104DC0001B68002B59D140482D22514C03684049A3
:104DD000CA54013314F8012FC3F30A03002AF7D190
:104DE000C2E4FFF7ABFB56E44A4B1B68002B40F0D4
:104DF000A18035482D22484C03683549CA540133F7
:104E000014F8012FC3F30A03002AF7D1ACE4FFF72B
:104E10002DFA40E41B064AD5404C03682C49CA547D
:104E2000013314F8012FC3F30A03002AF7D19BE4DE
:104E300002AC1A463A49204602F096F8DEE41046E3
:104E40007BE4384D1A46384902A8B5FBF3F302F06B
:104E50008BF89DF80820002A00F087801A4802ADE0
:104E60001B490368CA54013315F8012FC3F30A0321
:104E7000002AF7D10360A5780DE72A4C1A462B4982
:104E800002A8B4FBF3F302F06FF89DF80820002AA3
:104E90003FF401AC0C4802AC0D490368CA5401331D
:104EA00014F8012FC3F30A03002AF7D15CE4204C65
:104EB00003680749CA54013314F8012FC3F30A03E6
:104EC000002AF7D150E400BF0C20002078B600087B
:104ED00000F804203C0B002094AD0008901E002038
:104EE0000CAE0008201E002030140020ABAAAAAA95
:104EF000CCAE00087CAD0008C0130020E41F0020E9
:104F00009CAE000890AE000884AE0008B81D0020DA
:104F1000BCAD0008981E0020CCAD00088CAD000888
:104F2000ECAE000840420F0000AF0008A4AE00083D
:104F300084AD00080E4C1A460E4902A8B4FBF3F3E8
:104F400002F012F89DF80820002A3FF4A4AB0A48AA
:104F500002AC0A490368CA54013314F8012FC3F3A1
:104F60000A03002AF7D1FFF7FFBBB57893E600BF2D
:104F700040420F00A4AE00080C20002000F80420DE
:104F800070B5FFF753F80B4E0B4D0C4C01E0FFF7DB
:104F90004DF86368002BFAD132682B689A42F6D13B
:104FA000074AD369590603D400BFD3695B06FBD512
:104FB00070BD00BF741F00200C200020586002400C
:104FC00000480040F8B5664D2B78213B512B39D86D
:104FD000DFE803F087383838383838383838473819
:104FE0002C3838383838383838383838383838384D
:104FF00038384C383838383829383838383838382C
:105000003838383838313838383838383838383827
:10501000383838383838383829383838383838381F
:105020003838385038316B782B2B1AD00020BDE837
:10503000F840FCF7E5B86B780A2B6AD00D2B68D0E6
:10504000452B52D0474E484C33683F224749E254E3
:10505000013311F8012FC3F30A03002AF7D133609B
:10506000F8BD0120BDE8F840FCF7CAB8BDE8F8403B
:10507000FFF7CCBA6B783A4A522BE3D193786F2B77
:10508000E0D1D378672BDDD11379422B45D0354E53
:10509000354C0A2B01D00D2BD6D13368652234490B
:1050A000E254013311F8012FC3F30A03002AF7D1A8
:1050B00033604CF6CC44FFF763FF2E4B012245F2E0
:1050C0005550FF211C60186059609A60DA681AB167
:1050D00000BFDA68002AFBD1264B4AF6AA221A60E2
:1050E000FEE7BDE8F840FEF709BBAA781C4B732A1F
:1050F000A8D1DA78652AA5D11A79742AA2D15B7968
:105100000A2B01D00D2B9DD1FCF788FE154E164CB5
:105110009AE7FCF783FE6B7892E75379114E0A2BDE
:1051200003D00D2B01D0104C8EE77327124A336841
:105130000D4CE754013312F8017FC3F30A03002F2B
:10514000F7D13360FFF71CFF384601370021FCF729
:1051500065F80C2FF8D1FCF76FF96B7999E700BF70
:10516000702000200C20002000F80420C8B60008A1
:10517000A8B60008003000408CB600086B4A136CDB
:1051800043F480232DE9F04F13648BB0156C4FF07E
:105190000208674E012705F480234FF4006905A932
:1051A000304603930024039B4FF4007B136BDFF81E
:1051B000B8A143F400135F4D13630323126B0893EC
:1051C000072302F40012CDF8149009930492079774
:1051D000049ACDF8188000F063FB4FF4005205A943
:1051E0003046CDF81C80059200F05AFB05A95046C8
:1051F000CDF814904FF48069079700F051FBDAF86E
:1052000000200C21AC60284622F440026961EC6069
:10521000CAF800203368484A43F0006347496A608F
:105220003360DFF848A1296001912C61EC612C62A8
:105230006C62C5F818B001F093FD4FF400334FF4E1
:1052400080703F4ACAF820304FF00063CAF81C0053
:105250005046CAF80020CAF80430CAF80840CAF814
:105260000C40CAF81440CAF81840CAF82440CAF8DA
:105270002C40CAF83040CAF8109000F045FA019965
:105280005B4650462F4AD1F808E0DFF8E4B04EF014
:10529000400EC1F808E02C4900F0D2FA2B4B4FF435
:1052A000803E40214FF000621846C3F820E05A606B
:1052B000DC60C3F810905C619C61DC615C62DC6264
:1052C0001C639960C3F800B000F01EFA2A6805A9B3
:1052D0001F4B30461F4DCBF808309368CDF8149023
:1052E00043F08003CDF8188093600323079408935C
:1052F0000723099300F0D4FA4FF4804305A9304600
:10530000069705934FF480470794099400F0C8FA74
:1053100011481249124A134B77832C6004600C60C9
:1053200014601C600BB0BDE8F08F00BF0038024075
:1053300000040240041F0020001BB700004800408A
:105340002860024000F6042024480040841F00200A
:10535000284800400C200020741F0020801F0020DF
:10536000781F00207C1F0020000C0240102000202D
:105370005860024008B5FFF701FF024B00221A6097
:1053800008BD00BF001F0020DFF834D0002103E07B
:105390000C4B5B58435004310B480C4B42189A425B
:1053A000F6D30B4A02E0002342F8043B094B9A4231
:1053B000F9D300F05BF801F017FDFCF72DFE704704
:1053C00000000120CCB9000800000020B009002036
:1053D000B0090020DC200020FEE70000704700BF7D
:1053E000FEE700BFFEE700BFFEE700BFFEE700BF2D
:1053F000704700BF704700BF704700BF08B500F09E
:10540000B5F8BDE8084000F07BB900BF0120704747
:1054100008B501F0E3FC162303604FF0FF3008BD30
:1054200008B501F0DBFC16230360FEE70C4A38B533
:105430000346106828B1034469468B4205D81360BF
:1054400038BD084908461160F5E7074C04F1190515
:1054500014F8010BAFF30080AC42F9D101F0B6FCB7
:10546000E0090020DC200020DCB600080F4A104BC9
:10547000D2F888000F4940F4700070B4C2F8880078
:10548000002418684FF000650B4E40F001001860D2
:105490009C601868014019605E60196821F48021E1
:1054A0001960DC60956070BC704700BF00ED00E0E3
:1054B00000380240FFFFF6FE1030002410B41B4CF1
:1054C000A36803F00C03042B25D0082B0CD0184B39
:1054D000164A184892681849C2F303125DF8044B43
:1054E000825CD3400B607047636861685B0201F0C7
:1054F0003F0212D40E496368B1FBF2F1C3F3881383
:1055000001FB03F2094B5B68C3F3014301335B000A
:10551000B2FBF3F3DCE7094BDAE708486368B0FB5A
:10552000F2F1C3F3881301FB03F2EBE7003802400A
:105530000024F400F8B600080000002040787D0147
:10554000084B10B51B6804460748A0FB03308009D0
:1055500000F070F8214600224FF0FF3000F030F8E4
:10556000002010BD00000020D34D6210024A1368D5
:1055700001331360704700BFD4200020014B18682E
:10558000704700BFD4200020024A136A43F0010391
:10559000136270470038014007494FF6FF020002CE
:1055A000064B10B4CC6800F4E06022405DF8044B78
:1055B00013430343CB60704700ED00E00000FA05A1
:1055C000194BDB68C3F3022330B4C3F107051C1D7C
:1055D000042D28BF0425062C19D9033B01249C4027
:1055E000013C22400124002804FA05F404F1FF34B0
:1055F00001EA040101FA03F342EA03020ADB1201A1
:105600000A4BD2B2034483F8002330BC7047002217
:105610001346E7E700F00F001201054BD2B2034436
:105620001A7630BC704700BF00ED00E000E100E0FA
:10563000FCEC00E00138B0F1807F0DD2074B002276
:10564000072130B4F025064C5860104684F82350EA
:105650009A60196030BC70470120704710E000E08C
:1056600000ED00E0BFF35F8F044A00200449536A55
:1056700023F4803353624860704700BF00ED00E0C0
:1056800090ED00E0064A40F00100064B5860536A76
:1056900043F480335362BFF34F8FBFF36F8F704774
:1056A00000ED00E090ED00E0F0B4134E4378B360FD
:1056B00003781BB9F3603361F0BC70474368F36053
:1056C000C47A027B24060578817A44EA0274427B1C
:1056D000877B2C43C37B457A44EAC141007A41EA87
:1056E000824141EA474242EA034242EA052343EA51
:1056F00040033361F0BC704790ED00E0704700BF9D
:1057000008B5FFF7FBFF08BDF8B50446FFF736FF05
:10571000002C72D0022223680021054684F835202F
:105720001A6884F8341022F001021A6005E0FFF7CD
:1057300025FF401B05283DD823681A68D107F6D4F9
:10574000A2686568E0681543226961692843A66913
:105750001F680243E569206A1143354A31433A40E4
:10576000676A0D43042F40EA050042EA000228D090
:105770001A605A6922F0070247EA0201DAB22D4D97
:105780005961103A2C48A5FB02120021012512098B
:10579000805C032A294AE06502EA03024FF03F03D6
:1057A00088BF043283400846A2659360616584F82F
:1057B0003550F8BD032320221846626584F8353041
:1057C000F8BDE56A216BA06A294340F004070A434B
:1057D0001A605A6922F0070247EA02017EB90128DD
:1057E00022D001D30228C9D1EA01C7D50123402222
:1057F0001846626584F83530F8BD0120F8BDB6F56D
:10580000005F04D00228F1D90328B7D1ECE70328C0
:10581000B4D801A252F820F0ED570008E95700086B
:10582000ED57000829580008B5F1C07FA6D1DDE783
:105830003F8010F0ABAAAAAA10B7000800FCFFFF37
:1058400070B490F83440012C0DD0012590F835400B
:10585000AC4280F834500AD00022022380F8342071
:10586000184670BC7047022370BC18467047046825
:105870000226002580F83560456586682568402E3B
:1058800025F480202060636007D0A160E260226878
:10589000002342F001022260E2E7A260E160F6E745
:1058A0002DE9F04FD1F800C083B00026DFF8188250
:1058B000DFF81892DFF818E203E00136102E00F04E
:1058C000B1800123B34033EA0C02F6D14C6824F0D6
:1058D0001005022D40F0A980F50806F0070A4FF0E8
:1058E0000F0B0A6900EB85054FEA8A0A2F6A0BFA4B
:1058F0000AFB02FA0AF24FEA460A27EA0B074FF0C0
:10590000030B3A430BFA0AFB04F003072A626FEA1F
:105910000B02056807FA0AF715403D4305608568E4
:10592000C4F3001BCF6815400BFA06FB07FA0AF711
:105930002F438760456825EA03054BEA0505456066
:10594000C7688D683A40E70005FA0AF542EA0502A1
:10595000C260B2D5D8F8447006F0030226F0030BFB
:10596000524D47F4804A92000F275D44C8F844A086
:105970004845D8F844A007FA02FB0AF4804701978B
:10598000019FAF6827EA0B0B65D0494FB84264D03E
:10599000484FB84266D0484FB84268D0474FB842E7
:1059A0006AD0474FB8426CD0464FB8426ED0DFF84D
:1059B00024A150456FD0DFF820A1504570D0DFF80A
:1059C0001CA150450CBF4FF0090A4FF00A0A0AFA11
:1059D00002F242EA0B02DF430136AA60E503DEF879
:1059E00000204CBF1A433A40A503CEF80020DEF851
:1059F00004204CBF1A433A40E502CEF80420DEF8FA
:105A000008204CBF1A433A40A402CEF80820DEF822
:105A10000C2054BF07EA02031343102ECEF80C30BB
:105A20007FF44FAF03B0BDE8F08F4FEA460A032280
:105A30000768013D04EA020B02FA0AF2012D6FEA3F
:105A400002020BFA0AFB07EA02074BEA07070760A4
:105A50003FF676AF63E70022BBE74FF0010A0AFA90
:105A600002F2B6E74FF0020A0AFA02F2B1E74FF08B
:105A7000030A0AFA02F2ACE74FF0040A0AFA02F249
:105A8000A7E74FF0050A0AFA02F2A2E74FF0060A6A
:105A90000AFA02F29DE74FF0070A0AFA02F298E7C3
:105AA0004FF0080A0AFA02F293E700BF00380140FB
:105AB0000004024000080240000C024000100240B6
:105AC000001402400018024000380240000002406A
:105AD000003C0140001C0240002002400024024023
:105AE0001B4A1C4B116C41F0805130B5116483B0DE
:105AF000126C1C4602F080520192019A1A6842F41C
:105B000080321A60FFF73AFD054605E0FFF736FDE3
