:020000040800F2
:10000000000001209D310008E7310008E9310008B7
:10001000EB310008ED310008EF310008000000006E
:10002000000000000000000000000000E5310008B2
:10003000F131000800000000E5310008F33100084C
:10004000E5310008E5310008E5310008E531000838
:10005000E5310008E5310008E5310008E531000828
:10006000E5310008E5310008E5310008E531000818
:10007000E5310008E5310008E5310008E531000808
:10008000E5310008E5310008E5310008E5310008F8
:10009000E5310008E5310008E5310008E5310008E8
:1000A000E5310008E5310008E5310008E5310008D8
:1000B000E5310008E5310008E5310008E5310008C8
:1000C000E5310008E5310008E5310008E5310008B8
:1000D000E5310008E5310008E5310008E5310008A8
:1000E000E5310008E5310008E5310008E531000898
:1000F000E5310008E5310008E5310008E531000888
:10010000E5310008E5310008E5310008E531000877
:10011000E5310008E5310008E5310008E531000867
:10012000E5310008E5310008E5310008E531000857
:10013000E5310008E5310008E5310008E531000847
:10014000E5310008E5310008E5310008E531000837
:10015000E5310008E5310008E5310008E531000827
:10016000E5310008E5310008E5310008E531000817
:10017000E5310008E5310008E5310008E531000807
:10018000E5310008E5310008E5310008E5310008F7
:10019000E5310008E5310008E5310008E5310008E7
:1001A000E5310008E5310008E5310008E5310008D7
:1001B000E5310008E5310008E5310008E5310008C7
:0801C000E5310008E5310008FB
:1001C80010B5054C237833B9044B13B10448AFF389
:1001D80000800123237010BD8C080020000000005F
:1001E80020870008084B10B51BB108480849AFF331
:1001F80000800848036803B910BD074B002BFBD0EB
:10020800BDE81040184700BF000000002087000824
:10021800900800208C08002000000000844641EA75
:10022800000313F003036DD1403A41D351F8043B66
:1002380040F8043B51F8043B40F8043B51F8043BB8
:1002480040F8043B51F8043B40F8043B51F8043BA8
:1002580040F8043B51F8043B40F8043B51F8043B98
:1002680040F8043B51F8043B40F8043B51F8043B88
:1002780040F8043B51F8043B40F8043B51F8043B78
:1002880040F8043B51F8043B40F8043B51F8043B68
:1002980040F8043B51F8043B40F8043B51F8043B58
:1002A80040F8043B51F8043B40F8043B403ABDD2C7
:1002B800303211D351F8043B40F8043B51F8043B69
:1002C80040F8043B51F8043B40F8043B51F8043B28
:1002D80040F8043B103AEDD20C3205D351F8043BF8
:1002E80040F8043B043AF9D2043208D0D2071CBFC4
:1002F80011F8013B00F8013B01D30B8803806046ED
:10030800704700BF082A13D38B078DD010F0030362
:100318008AD0C3F10403D21ADB071CBF11F8013BD2
:1003280000F8013B80D331F8023B20F8023B7BE721
:10033800043AD9D3013A11F8013B00F8013BF9D24C
:100348000B7803704B7843708B78837060467047E6
:1003580081F0004102E000BF83F0004330B54FEA6E
:1003680041044FEA430594EA050F08BF90EA020FDB
:100378001FBF54EA000C55EA020C7FEA645C7FEA6E
:10038800655C00F0E2804FEA5454D4EB5555B8BF91
:100398006D420CDD2C4480EA020281EA030382EA02
:1003A800000083EA010180EA020281EA0303362D94
:1003B80088BF30BD11F0004F4FEA01314FF4801C67
:1003C8004CEA113102D0404261EB410113F0004F79
:1003D8004FEA03334CEA133302D0524263EB430330
:1003E80094EA050F00F0A780A4F10104D5F1200ECE
:1003F8000DDB02FA0EFC22FA05F2801841F1000129
:1004080003FA0EF2801843FA05F359410EE0A5F1FC
:1004180020050EF1200E012A03FA0EFC28BF4CF02D
:10042800020C43FA05F3C01851EBE37101F00045E3
:1004380007D54FF0000EDCF1000C7EEB00006EEBF0
:100448000101B1F5801F1BD3B1F5001F0CD349087A
:100458005FEA30004FEA3C0C04F101044FEA4452D1
:1004680012F5800F80F09A80BCF1004F08BF5FEA58
:10047800500C50F1000041EB045141EA050130BD38
:100488005FEA4C0C404141EB010111F4801FA4F1DB
:100498000104E9D191F0000F04BF01460020B1FA30
:1004A80081F308BF2033A3F10B03B3F120020CDA68
:1004B8000C3208DD02F1140CC2F10C0201FA0CF046
:1004C80021FA02F10CE002F11402D8BFC2F1200CAB
:1004D80001FA02F120FA0CFCDCBF41EA0C01904061
:1004E800E41AA2BF01EB0451294330BD6FEA0404AA
:1004F8001F3C1CDA0C340EDC04F11404C4F1200295
:1005080020FA04F001FA02F340EA030021FA04F3A6
:1005180045EA030130BDC4F10C04C4F1200220FAFD
:1005280002F001FA04F340EA0300294630BD21FA3B
:1005380004F0294630BD94F0000F83F4801306BF01
:1005480081F480110134013D4EE77FEA645C18BFF5
:100558007FEA655C29D094EA050F08BF90EA020F8C
:1005680005D054EA000C04BF1946104630BD91EA84
:10057800030F1EBF0021002030BD5FEA545C05D187
:100588004000494128BF41F0004130BD14F58004C6
:100598003CBF01F5801130BD01F0004545F0FE413A
:1005A80041F470014FF0000030BD7FEA645C1ABF6F
:1005B800194610467FEA655C1CBF0B46024650EAA6
:1005C800013406BF52EA033591EA030F41F40021D2
:1005D80030BD00BF90F0000F04BF0021704730B558
:1005E8004FF4806404F132044FF000054FF000012D
:1005F80050E700BF90F0000F04BF0021704730B5EE
:100608004FF4806404F1320410F0004548BF4042C2
:100618004FF000013EE700BF42004FEAE2014FEA17
:1006280031014FEA02701FBF12F07F4393F07F4FF2
:1006380081F06051704792F0000F14BF93F07F4F24
:10064800704730B54FF4607401F0004521F0004167
:1006580020E700BF50EA010208BF704730B54FF0ED
:1006680000050AE050EA010208BF704730B511F0F2
:10067800004502D5404261EB41014FF4806404F12A
:1006880032045FEA915C3FF4DCAE4FF003025FEAAC
:10069800DC0C18BF03325FEADC0C18BF033202EB34
:1006A800DC02C2F1200300FA03FC20FA02F001FA8E
:1006B80003FE40EA0E0021FA02F11444C1E600BF2D
:1006C80070B54FF0FF0C4CF4E06C1CEA11541DBFE0
:1006D8001CEA135594EA0C0F95EA0C0F00F0DEF8AB
:1006E8002C4481EA030621EA4C5123EA4C5350EA90
:1006F800013518BF52EA033541F4801143F48013E1
:1007080038D0A0FB02CE4FF00005E1FB02E506F071
:100718000042E0FB03E54FF00006E1FB03569CF0C6
:10072800000F18BF4EF0010EA4F1FF04B6F5007FCC
:1007380064F5407404D25FEA4E0E6D4146EB06063E
:1007480042EAC62141EA55514FEAC52040EA5E50C7
:100758004FEACE2EB4F1FD0C88BFBCF5E06F1ED871
:10076800BEF1004F08BF5FEA500E50F1000041EBA8
:10077800045170BD06F0004646EA010140EA020055
:1007880081EA0301B4EB5C04C2BFD4EB0C0541EA77
:10079800045170BD41F480114FF0000E013C00F38C
:1007A800AB8014F1360FDEBF002001F0004170BDB0
:1007B800C4F10004203C35DA0C341BDC04F11404C9
:1007C800C4F1200500FA05F320FA04F001FA05F255
:1007D80040EA020001F0004221F0004110EBD37022
:1007E80021FA04F642EB06015EEA430E08BF20EA4E
:1007F800D37070BDC4F10C04C4F1200500FA04F3F1
:1008080020FA05F001FA04F240EA020001F0004182
:1008180010EBD37041F100015EEA430E08BF20EAF5
:10082800D37070BDC4F1200500FA05F24EEA020E3D
:1008380020FA04F301FA05F243EA020321FA04F06C
:1008480001F0004121FA04F220EA020000EBD37023
:100858005EEA430E08BF20EAD37070BD94F0000F23
:100868000FD101F00046400041EB010111F4801F57
:1008780008BF013CF7D041EA060195F0000F18BF08
:10088800704703F00046520043EB030313F4801F44
:1008980008BF013DF7D043EA0603704794EA0C0FFE
:1008A8000CEA135518BF95EA0C0F0CD050EA410614
:1008B80018BF52EA4306D1D181EA030101F0004191
:1008C8004FF0000070BD50EA410606BF10461946B9
:1008D80052EA430619D094EA0C0F02D150EA0136C5
:1008E80013D195EA0C0F05D152EA03361CBF104606
:1008F80019460AD181EA030101F0004141F0FE41A5
:1009080041F470014FF0000070BD41F0FE4141F428
:10091800780170BD70B54FF0FF0C4CF4E06C1CEA28
:1009280011541DBF1CEA135594EA0C0F95EA0C0FDD
:1009380000F0A7F8A4EB050481EA030E52EA033598
:100948004FEA013100F088804FEA03334FF08055B9
:1009580045EA131343EA12634FEA022245EA1115E6
:1009680045EA10654FEA00260EF000419D4208BF97
:10097800964244F1FD0404F5407402D25B084FEA44
:100988003202B61A65EB03055B084FEA32024FF4F0
:1009980080104FF4002CB6EB020E75EB030E22BF4D
:1009A800B61A754640EA0C005B084FEA3202B6EB0D
:1009B800020E75EB030E22BFB61A754640EA5C00BC
:1009C8005B084FEA3202B6EB020E75EB030E22BF4C
:1009D800B61A754640EA9C005B084FEA3202B6EB4D
:1009E800020E75EB030E22BFB61A754640EADC000C
:1009F80055EA060E18D04FEA051545EA16754FEA6E
:100A080006164FEAC30343EA52734FEAC2025FEA8B
:100A18001C1CC0D111F4801F0BD141EA00014FF01A
:100A280000004FF0004CB6E711F4801F04BF0143EB
:100A38000020B4F1FD0C88BFBCF5E06F3FF6AFAE07
:100A4800B5EB030C04BFB6EB020C5FEA500C50F197
:100A5800000041EB045170BD0EF0004E4EEA11311A
:100A680014EB5C04C2BFD4EB0C0541EA045170BD21
:100A780041F480114FF0000E013C90E645EA060E65
:100A88008DE60CEA135594EA0C0F08BF95EA0C0F93
:100A98003FF43BAF94EA0C0F0AD150EA01347FF4DB
:100AA80034AF95EA0C0F7FF425AF104619462CE7B2
:100AB80095EA0C0F06D152EA03353FF4FDAE104615
:100AC800194622E750EA410618BF52EA43067FF466
:100AD800C5AE50EA41047FF40DAF52EA43057FF4F6
:100AE800EBAE12E74FF0FF3C06E000BF4FF0010C01
:100AF80002E000BF4FF0010C4DF804CD4FEA410C65
:100B08007FEA6C5C4FEA430C18BF7FEA6C5C1BD031
:100B180001B050EA410C0CBF52EA430C91EA030FB2
:100B280002BF90EA020F0020704710F1000F91EA0F
:100B3800030F58BF994208BF90422CBFD8176FEADD
:100B4800E37040F0010070474FEA410C7FEA6C5CAB
:100B580002D150EA013C07D14FEA430C7FEA6C5CB2
:100B6800D6D152EA033CD3D05DF8040B704700BFDE
:100B78008446104662468C461946634600E000BF2C
:100B880001B5FFF7B7FF002848BF10F1000F01BDFE
:100B98004DF808EDFFF7F4FF0CBF012000205DF8C9
:100BA80008FB00BF4DF808EDFFF7EAFF34BF01204E
:100BB80000205DF808FB00BF4DF808EDFFF7E0FFE7
:100BC80094BF012000205DF808FB00BF4DF808ED38
:100BD800FFF7CEFF94BF012000205DF808FB00BF9F
:100BE8004DF808EDFFF7C4FF34BF012000205DF881
:100BF80008FB00BF4FEA410212F5001215D211D5C9
:100C08006FF47873B3EB625212D94FEAC12343F001
:100C1800004343EA505311F0004F23FA02F018BF83
:100C2800404270474FF00000704750EA013005D14C
:100C380011F0004008BF6FF0004070474FF000000F
:100C4800704700BF53B94AB9002908BF00281CBF24
:100C58004FF0FF314FF0FF3000F03CB882B0EC4667
:100C68002DE9005000F01EF8DDF804E002B00CBCDD
:100C7800704700BF2DE9F041904606460F461D46D5
:100C8800069C00F029F808FB01FC8646A8FB002317
:100C980000FB05C5B21A2B4467EB0303C4E9002324
:100CA800BDE8F0812DE9F8431D4617468046894680
:100CB800089E00F053F900FB05F3A0FB074507FB6E
:100CC8000137B8EB04043D4469EB0505C6E9004566
:100CD800BDE8F883704700BF00292DE9F047C0F24E
:100CE800A2800026002BC0F298808C4690469E4633
:100CF800154604460F46CBBB8A4256D9B2FA82F350
:100D08003BB1C3F120029F409D409C4020FA02F273
:100D18001743280C220C1FFA85FEB7FBF0F100FBE5
:100D280011770EFB01F342EA0747BB4207D97F1947
:100D380080F00181BB4240F2FE8002392F44FF1A45
:100D4800A4B2B7FBF0F300FB13770EFB03FE44EAF3
:100D58000747BE4506D97F1980F0EB80BE4540F2B3
:100D6800E880023B43EA0143002203E08B420FD9AB
:100D780000221346341C4FF0000518BF01246042BE
:100D880065EB45015840514000196941BDE8F087BD
:100D9800B3FA83F2002A40F08380804540F2CD8088
:100DA8008B42C0F0CA801346E4E712B90123B3FBB3
:100DB800F2F5B5FA85F2002A3BD1781B4FEA154EB9
:100DC8001FFA85FC0122210CB0FBFEF80EFB18006F
:100DD8000CFB08F341EA0047BB4208D97F1980F0B1
:100DE800B080BB4240F2AD80A8F102082F44FF1A40
:100DF800A4B2B7FBFEF30EFB13770CFB03FC44EA2B
:100E08000747BC4506D97F1980F09980BC4540F258
:100E18009680023B43EA0843ACE752426FEA060673
:100E280063EB430361E740424FF0FF3661EB41015A
:100E380058E79540C2F1200107FA02F34FEA154E30
:100E4800CF4024FA01F194401FFA85FC1943B7FBFF
:100E5800FEF24FEA11480EFB12770CFB02F348EA48
:100E68000747BB4205D97F1971D2BB426FD9023AF5
:100E78002F44FF1A89B2B7FBFEF80EFB18770CFB5C
:100E880008F041EA0743984206D95B1961D29842B3
:100E98005FD9A8F102082B44181A48EA024292E7DF
:100EA800C2F1200703FA02FE08FA02F5914028FA77
:100EB80007F32CFA07FCF84043EA0E0E08434FEA02
:100EC8001E48070C1FFA8EFABCFBF8F908FB19CC70
:100ED8000AFB09F147EA0C4C614507D91CEB0E0CDB
:100EE80032D2614530D9A9F10209F444C1EB0C0CA6
:100EF80080B2BCFBF8F308FB13CC0AFB03FA40EA08
:100F08000C418A4506D911EB0E0125D28A4523D911
:100F1800023B714443EA0943CAEB0101A3FB05897B
:100F2800494503D303D19440444500D2013B0022F4
:100F380020E7013B16E7013901E701231AE7013BE6
:100F480068E708F1FF3852E709F1FF39CEE7013ABF
:100F58008FE708F1FF389FE7013BDBE72DE9F04316
:100F6800002B40D18A42044615464AD9B2FA82F388
:100F78000F464BB1C3F12006994000FA03F402FA78
:100F880003F5F04040EA0107290C260C1FFA85FEFC
:100F9800B7FBF1F001FB10770EFB00F246EA0743BE
:100FA8009A4207D95B1980F0EA809A4240F2E780BA
:100FB80002382B449A1AA4B2B2FBF1F301FB1322B4
:100FC8000EFB03FE44EA0242964506D9521980F008
:100FD800DA80964540F2D780023B43EA004000267B
:100FE8003146BDE8F0838B4244D8B3FA83F6002E2D
:100FF80045D1824240F2BF808B42C0F0BC8030466F
:10100800EEE712B90125B5FBF2F5B5FA85F2002A2B
:101018007BD14A1B2F0C1FFA85FE0126230CB2FB3D
:10102800F7F007FB10220EFB00FC43EA02418C4557
:1010380007D9491980F0A1808C4540F29E8002387A
:101048002944CCEB0101A4B2B1FBF7F307FB131160
:101058000EFB03FE44EA0144A64506D9641980F054
:101068009080A64540F28D80023B43EA004031461D
:10107800BDE8F083002630463146BDE8F083C6F16E
:101088002005B34002FA06F701FA06F4EA40E940FF
:1010980020FA05F51A4325434FEA124C4FEA154E3C
:1010A80093B2B1FBFCF80CFB181103FB08F44EEAF1
:1010B80001418C4206D9891869D28C4267D9A8F1B6
:1010C80002081144091BADB2B1FBFCF40CFB14116E
:1010D80003FB04FE45EA01439E4505D99B1854D2FB
:1010E8009E4552D9023C134444EA0844CEEB03031C
:1010F800A4FB07894B4503D351D1B04040454ED29C
:101108000026601E3146BDE8F083C2F120069540F6
:1011180001FA02F300FA02F42F0CF140F0401FFA32
:1011280085FEB1FBF7F6184307FB16110EFB06F216
:101138004FEA104C4CEA01439A4205D95B1929D26F
:101148009A4227D9023E2B449B1A80B2B3FBF7FC84
:1011580007FB1C330EFB0CF140EA0343994206D906
:101168005B1919D2994217D9ACF1020C2B445A1ABF
:101178004CEA064652E7012032E7013861E70138B8
:1011880018E7013B71E7013B27E7013CACE708F1B1
:10119800FF3897E7013ED7E70CF1FF3CE7E7204629
:1011A80000261DE730B50C490C4B0D4A38B100201C
:1011B80008604FF4C04159810123136030BD6FF0BE
:1011C800F904084D0C604FF480412C6019814FF4EC
:1011D80000515981106030BD1C0A002010180240CF
:1011E800040A00203C0A00200B289CBF014B43F84E
:1011F80020107047000900200B289ABF024B53F8B3
:1012080020000020704700BF00090020072800F2D6
:10121800DE80DFE810F00800200038004E006B0088
:101228008700A300BE006A4B40F22B42694943F293
:101238001C0CD960972183E8041019616FF07F4274
:1012480065499A6059610021DA61644A99611A62B4
:1012580040F628627DE05E4B40F22B42604943F243
:101268001C0CD9603C2183E8041019616FF07F429F
:1012780059499A6059610021DA615A4A99611A629A
:1012880041F6AF2265E0524B40F2AE725649DFF8A4
:1012980090C1D96085211961544983E804105961C6
:1012A8006FF07F424FF46C719A60DA619961504A2D
:1012B80031E0474B40F2AE724E491A6002F58A128D
:1012C800D960852102F6025219615A604A4A4B498F
:1012D8009A60DA614A4A596140F2A7311A6240F6C7
:1012E800874299615A6240F20B126DE0384B40F226
:1012F800AE724449DFF828C1D9603E2183E8041062
:1013080019616FF07F4239499A6059614FF46C71E5
:10131800DA613D4A99611A6240F687425A624FF48F
:101328008B7251E02A4B40F22B422D4943F21C0CA0
:10133800D9603C2183E804106FF07F421961264987
:101348009A60DA61274A596100211A6244F6F32249
:1013580099615A6227229A62042237E01C4B36228E
:10136800DFF8C0C0294983E804106FF07F42D960D4
:1013780084219A60DA61264A19611A6247F2C952D1
:1013880024495A623322596106219A6203229961DB
:101398001CE00F4B4FF4F962DFF888C01B4983E863
:1013A80004106FF07F42D96084219A60DA611A4A8A
:1013B80019611A6243F2453218495A6240F20F1213
:1013C800596140F2C93199619A62D922DA6270474B
:1013D80000090020D42355004A8606003D850400F4
:1013E800D32355005FA80800D1E27A00C873020031
:1013F800C7210300C6037B0060E2FF00BF73020041
:10140800BC210300D2E27A00DC560700F57F7C009D
:101418008B5C0700AB6D02004C34030056B9040026
:10142800035C11008CE910002DE9F0410027D44B32
:10143800D44C53F82760022316F4000F01D02381FF
:1014480000E06381D04D4FF08008022000F0A4FB3B
:101458000220A5F8088000F09FFBA5F80A8002206A
:1014680000F09AFB16F4800F4FF0020301D023819D
:1014780000E063814FF08008022000F08DFB02201D
:10148800A5F8088000F088FBA5F80A80022000F083
:1014980083FB16F4001F4FF0020301D0238100E004
:1014A80063814FF08008022000F076FB0220A5F847
:1014B800088000F071FBA5F80A80022000F06CFBA0
:1014C80016F4801F4FF0020301D0238100E06381EE
:1014D8004FF08008022000F05FFB0220A5F808808A
:1014E80000F05AFBA5F80A80022000F055FB16F41C
:1014F800002F4FF0020301D0238100E063814FF0F9
:101508008008022000F048FB0220A5F8088000F0BF
:1015180043FBA5F80A80022000F03EFB16F4802F5A
:101528004FF0020301D0238100E063814FF080086F
:10153800022000F031FB0220A5F8088000F02CFB07
:10154800A5F80A80022000F027FB16F4003F4FF0B0
:10155800020301D0238100E063814FF0800802205C
:1015680000F01AFB0220A5F8088000F015FBA5F88A
:101578000A80022000F010FB16F4803F4FF00203AF
:1015880001D0238100E063814FF08008022000F041
:1015980003FB0220A5F8088000F0FEFAA5F80A80EF
:1015A800022000F0F9FA16F4004F4FF0020301D0C0
:1015B800238100E063814FF08008022000F0ECFAFC
:1015C8000220A5F8088000F0E7FAA5F80A800220B2
:1015D80000F0E2FA16F4804F4FF0020301D02381A5
:1015E80000E063814FF08008022000F0D5FA022065
:1015F800A5F8088000F0D0FAA5F80A80022000F0CB
:10160800CBFA16F4005F4FF0020301D0238100E00B
:1016180063814FF08008022000F0BEFA0220A5F88E
:10162800088000F0B9FAA5F80A80022000F0B4FAA0
:1016380016F4805F4FF0020301D0238100E063813C
:101648004FF08008022000F0A7FA0220A5F80880D1
:1016580000F0A2FAA5F80A80022000F09DFA16F41C
:10166800006F4FF0020301D0238100E063814FF047
:101678008008022000F090FA0220A5F8088000F007
:101688008BFAA5F80A80022000F086FA16F4806F1B
:101698004FF0020301D0238100E063814FF08008FE
:1016A800022000F079FA0220A5F8088000F074FA08
:1016B800A5F80A80022000F06FFA16F4007F4FF0B8
:1016C800020301D0238100E063814FF080080220EB
:1016D80000F062FA0220A5F8088000F05DFAA5F88B
:1016E8000A80022000F058FA16F4807F4FF00203B7
:1016F80001D0238100E063814FF08008022000F0D0
:101708004BFA0220A5F8088000F046FAA5F80A80EE
:10171800022000F041FA16F0800F4FF0020301D0CA
:10172800238100E063814FF08008022000F034FA42
:101738000220A5F8088000F02FFAA5F80A800220F8
:1017480000F02AFA16F0400F4FF0020301D023816F
:1017580000E063814FF08008022000F01DFA0220AB
:10176800A5F8088000F018FAA5F80A80022000F011
:1017780013FA16F0200F4FF0020307D0238106E07A
:1017880000090020100402401000024063814FF05D
:101798008008022000F000FA0220A5F8088000F076
:1017A800FBF9A5F80A80022000F0F6F916F0100FF0
:1017B8004FF0020301D0238100E063814FF08008DD
:1017C800022000F0E9F90220A5F8088000F0E4F909
:1017D800A5F80A80022000F0DFF916F0080F4FF094
:1017E800020301D0238100E063814FF080080220CA
:1017F80000F0D2F90220A5F8088000F0CDF9A5F88C
:101808000A80022000F0C8F916F0040F4FF0020316
:1018180001D0238100E063814FF08008022000F0AE
:10182800BBF90220A5F8088000F0B6F9A5F80A80EF
:10183800022000F0B1F916F0020F4FF0020301D0B8
:10184800238100E063814FF08008022000F0A4F9B2
:101858000220A5F8088000F09FF9A5F80A80022068
:1018680000F09AF916F0010F4FF0020301D023811E
:1018780000E063818026022000F08EF90137022003
:101888002E8100F089F96E81022000F085F90C2F75
:101898007FF4CDAD02230A206381064C00F07CF969
:1018A8000A20668100F078F926810A20BDE8F04117
:1018B80000F072B9101002402DE9F04F864D002457
:1018C800DFF868B24FF400474FF00308834E4FF03B
:1018D800010A87B04FF0800958462946AC60C5F820
:1018E8000C8085E8800401F03DFE778129467C481C
:1018F800C5F8009001F036FE7A4B29467A48A3F8DD
:101908000890C5F8009001F02DFE784B58462946FE
:101918004FF4807BA3F80A904FF00209C5F80090B5
:1019280001F020FE4FF6FF73A6F80A90294670488A
:10193800AC60C5F80C8085E8180001F013FE082398
:1019480029466C48AC60C5F80C80C5F81080DFF8F3
:10195800E08185E8080201F005FE77810A20664DDE
:1019680000F024F937810A2007F1804700F01EF9BA
:101978000620FFF74BFC07F50447FFF755FD5F4BC3
:1019880002941C605E4B5F4E1C605F4B30465F4AA2
:101998001C606B6C43EA09036B646B6C03EA090314
:1019A8004FF400690293029B20233C607B6048F25D
:1019B8007403BB607C62BC62BC61FC613C62C7F8BA
:1019C80014A003942B6C43F004032B642B6C03F0DA
:1019D80004030393039B48F23403C8F80040C8F893
:1019E8000440C8F808304FF080435C629C629C61F8
:1019F800DC611C62C3F814A04FF4403A04942B6BCA
:101A080043F480032B632B6BB46003F48003F4600E
:101A1800C6F814900493049B4FF06063C6F81CB09A
:101A2800C6F820A07462F462346386E80C004FF4B0
:101A380080624FF4005332610192B36101F032FDCC
:101A480005942B6B324943F40013019A2B632B6BDB
:101A5800304D03F4001328462A610593059B4FF087
:101A68008063AC60EC60C5F81CB0C5F820A06C625F
:101A7800EC622C6385E80A004FF480536B614FF4E5
:101A88008043AB6101F00EFD4B4630462249234AA4
:101A980001F042FD2249234A4B46284601F03CFD0D
:101AA800FB68204643EA0B03FB60D8F80C3043EA96
:101AB8000B03C8F80C303B6843F001033B60D8F8CF
:101AC800003043F00103C8F80030174B1C60FFF7E3
:101AD80069FB07B0BDE8F08F8C09002010040240B4
:101AE80000100240101002400000024010000240A6
:101AF800000802400020024000380240F40800209C
:101B0800000A002030090020A009002028640240B3
:101B1800A0600240A40900201008024000D0042060
:101B28002400004000E00420040A002000040240D1
:101B3800000800400022124B1A61124BD3F884218E
:101B480042F48042C3F88421D3F8842142F0800211
:101B5800C3F884210C4A11680C4A126891420DD0CE
:101B68000B49CA6842F02002CA60D3F8802142F4C7
:101B78000042C3F88021074B5B6803B120BF704760
:101B88000004014000E100E0C00A0020F80A00203B
:101B980000600240706002400023834205D08C221E
:101BA80000BF013AFCD10133F7E7704700238342B5
:101BB80005D0034A00BF013AFCD10133F7E770476B
:101BC80017A9010010B5012386B04FF4C0440322C1
:101BD80002930023054801A90393059301940492F5
:101BE80001F0C0FC024B5C8106B010BD0018024039
:101BF8001018024030B5164B89B00024032503A9FC
:101C0800144801941A6B42F001021A631A6B02F02D
:101C180001020192019A02941A6B42F002021A63BD
:101C28001B6B049403F00203059406950293029B30
:101C38004FF46043039301F095FC1823064803A969
:101C4800049403930594069501F08CFC09B030BD0B
:101C580000380240000002400004024070B5002332
:101C680086B0284A0093116B274C41F01001274891
:101C7800274D116301A9126B029302F0100205931C
:101C88000092009A40F27A620192022203920322A1
:101C9800049201F067FC236803F4CC63B3F5CC6FBE
:101CA80007D10126194801A9039601F05BFC2368B6
:101CB8002E602B6893B9236803F01803182B0DD1F5
:101CC8000123124801A9039301F04CFC0E4B1B6839
:101CD80013F0420F02BF02220D4B1A6040F27A63E2
:101CE80003220A4801A90193002304920293039353
:101CF800059301F037FC2B680BB1FFF77BFF06B0AB
:101D080070BD00BF003802401010024000100240B1
:101D1800A80800202D4A08202D49536A23F480334F
:101D280030B5536285B04B6801220D4623F001039C
:101D38004B6003238DF800208DF80B3000238DF8BD
:101D48000C208DF80A308DF80E308DF80D308DF896
:101D580009308DF801301F4B8DF80F20C3F30804AC
:101D680001938DF808001CB9684601F059FB00E0A2
:101D7800144601230B228DF80130174B8DF80820EB
:101D88000193C3F30B0313B144F0020402E0684665
:101D980001F046FB02230C228DF801300F4B8DF821
:101DA80008200193C3F30C0313B144F0040402E0C8
:101DB800684601F035FB054A052320466B60536AE7
:101DC80043F48033536205B030BD00BF00ED00E03E
:101DD80090ED00E000C8042000D0042000E00420BA
:101DE800014A024BDA60FEE70400FA0500ED00E064
:101DF800F0B5244B89B00024032503A92248019497
:101E08004FF400471A6B012642F001021A631A6B5D
:101E180002F001020192019A02941A6B42F0020246
:101E28001A631B6B049403F002030594069502934E
:101E3800029B4FF46043039301F094FB182303A91A
:101E48001248039304940594069501F08BFB0F4800
:101E580003A9039704960594069501F083FB0C4BA0
:101E68005F810C4B1C605C609C6086F3108840F2BC
:101E78000003C1F6F0731B6883F30888064B1B68E0
:101E88009847FEE700380240000002400004024084
:101E98001004024010E000E00400F01F30B5224BAF
:101EA800B5B00025022407A800951A6C42F08052AC
:101EB8001A641B6C03F080530093009B1B4B019525
:101EC8001A6842F440421A601B68079403F44043BE
:101ED8000D940E950193019B012311940A930B23F2
:101EE80012940B9308230F936023109301F066FC60
:101EF80001F02AFC0F23072102A802934FF4A053F4
:101F0800039405934FF480530495069301F02CFE37
:101F1800102313A82693064B13934FF08073309326
:101F280001F08EFF35B030BD00380240007000402F
:101F38000001040088B0254B00220192196B41F082
:101F480001011963196B01F00101019101990292D4
:101F5800196B41F002011963196B01F0020102913A
:101F680002990392196B41F004011963196B01F08E
:101F78000401039103990492196B41F00801196354
:101F8800196B01F00801049104990592196B41F04D
:101F980010011963196B01F010010591059906925A
:101FA800196B41F040011963196B01F0400106916A
:101FB800069907921A6B42F480721A631B6B03F43A
:101FC80080730793079B08B0704700BF0038024032
:101FD800994B2DE9F04F5C6F8BB014F0005405D08D
:101FE8005A6F42F080725A67FFF702FFFFF792FEBE
:101FF80092490860BFF34F8FBFF36F8F904BC3F8C0
:102008005042BFF34F8FBFF36F8FBFF34F8FBFF3B4
:102018006F8FC3F850425A6942F400325A61BFF3D5
:102028004F8FBFF36F8FC3F88440BFF34F8FD3F840
:1020380080208846C2F34E33C2F3C902590143F6E1
:10204800E0740C40114644EA81757D4811F1FF3176
:10205800C0F86052F7D213F1FF33EFD2BFF34F8FBE
:10206800BFF36F8F0023C0F88430BFF34F8FD0F8D1
:102078008030C3F34E34C3F3C903620143F6E07002
:1020880010401A4640EA82756D4912F1FF32C1F8D4
:102098006052F7D214F1FF34EFD2BFF34F8F4B6980
:1020A80043F480334B61BFF34F8FBFF36F8F654AA3
:1020B8000320654E1368654F43F40073644D136045
:1020C80001F04EF900216FF00B000A4601F05AF9B1
:1020D80000216FF00A000A4601F054F900216FF060
:1020E80009000A4601F04EF900216FF003000A4684
:1020F80001F048F90021204600240A4601F042F97F
:10210800FFF7ACFDFFF7CAFE01F0D0F8514B1C6099
:10211800FFF710FFFFF756FD01F02EF800F05AFA0E
:10212800FFF7CAFB00F00EFB06234B4A3360D8F8D2
:1021380000109346494B14603C601C602C601C46A0
:10214800029641B1464800F021FB3C4B186800F06C
:1021580031FB444800E0444800F018FB4FF400739A
:10216800424805A9059300230693012307930323F7
:10217800089301F0F7F91022314B1A613C4AD368F1
:1021880043F00103D360A2F53C42136843F02003F7
:102198001360384B1A6842F010021A600393DBF898
:1021A80000302268DFF8DCC0991A002937DA2A4A99
:1021B80003F57A731360DCF800208AB1013ACCF891
:1021C8000020002A64D12C4B1A682C4B12B94FF40A
:1021D800C04210E04FF480421A814FF400520AE0E6
:1021E80025490B68012B08DD013B012B15D10A603D
:1021F8004FF4C042214B5A814AE0002B48DA0133A0
:102208000B60002B44D11D4B5A6882F480425A60FF
:102218004FF400525A811A4B1B680B6038E03B6838
:102228009A4231D12B680133DE042B6030D54FF050
:1022380080435A6A094B2AE000380240AC08002063
:1022480000ED00E0003C0240440A0020140A00208F
:102258000C0A002010E000E0240A0020100A0020E8
:10226800388700085E87000864870008000002407D
:1022780000040140706002401C0A0020101802404F
:102288003C0A0020280A002000232B60B44B1A6067
:10229800B44BB54A5B681268B4491344B448D4F8DF
:1022A80000805B420068DCF800A0C3F30A030B60FF
:1022B800B049D1F800E0B04909687BB3DFF8E8E23B
:1022C8000131DFF8E8823EF812E0C1F30E0158F858
:1022D80022801FFA8EFEDFF8B092A84E814229F8BC
:1022E80011E046F8218014D1481CC0F30E0039F8DB
:1022F80010A0CAF30E0A29F810A04FF4005ADFF80C
:10230800B092A9F808A04FF4804AA9F80AA04FF0A3
:10231800C80A0132013BC2F30A02CEE7DFF84C9249
:10232800CCF800A0C9F80030C4F800808E4BDFF864
:102338004092DFF84482DFF83CA2C9F800001A6036
:10234800CAF800E0C8F8001000F038FCD9F800001E
:10235800D8F80030834202D1FFF7ECFB1FE7039B5C
:102368008749D3F804E0874B0A681B68D31ADB4314
:10237800C3F30A03CEEB0303172BEDD90130DFF8C3
:10238800FCE1814BC0F30E0033F81030C9F80000AF
:102398005EF820C09BB27D48DFF818E20068CAF8F2
:1023A8000030CEF800C020B97948006880053FF5B4
:1023B800F6AE0298006806283FF6F1AEDFE800F0B6
:1023C8000415677889B4C000180ADFF8CCE160F01A
:1023D8007F000EF802000132C2F30A020EF8023042
:1023E8000132C2F30A020A60D9E66A484FEA1328A2
:1023F800DFF8C4E1006868F07F08C0EB0C00CEF895
:1024080000007F28DFF890E10EF8028002F1010257
:10241800C2F30A020EF802300BD8013260F07F00D6
:10242800C2F30A020EF802000132C2F30A020A607D
:1024380029E0531CB0F5804FC3F30A0301D2C20947
:1024480014E0B0F5001F29BFC0F34652820B0EF806
:102458000320013324BFC0F38632C3F30A030EF806
:1024680003200133C0F3C612C3F30A030EF8032096
:10247800013360F07F00C3F30A030EF80300013351
:10248800C3F30A030B60434BC3F800C087E64FEA67
:10249800132C41486CF07F0C00F802C00132C2F3E3
:1024A8000A028354531CDEF80020C3F30A032EE00B
:1024B8004FEA132C38486CF07F0C00F802C0013248
:1024C800C2F30A028354531CDEF80020C3F30A0344
:1024D80016E04FEA132C30486CF07F0C00F802C06D
:1024E8000132C2F30A028354531CDEF80020C3F3FE
:1024F8000A034FEA126E00F803E00133C3F30A033C
:102508004FEA124E00F803E00133C3F30A034FEA1F
:10251800122E00F803E00133C3F30A03C254013357
:10252800C3F30A030B603AE603F07F021B491C4819
:102538000092C3F3C012C3F3062302F00DFB0BE0B5
:1025480003F07F02164817498DE80410C3F3C01240
:10255800C3F3062302F000FB114800F017F91EE64A
:10256800140A0020A0600240A0090020300A0020C0
:10257800000A0020200A0020F408002000000120A2
:10258800F80A0020C00A002000000320040A0020E6
:1025980010000240B408002000C004206A87000828
:1025A800D00A00207787000800D0042000E004202B
:1025B80010180240400A0020B00800204FF0804365
:1025C8005862024B1860024B18607047240A0020BA
:1025D800100A00207FB50024284A0421012601940E
:1025E8004FF08045136C204643F002031364136CCC
:1025F80003F002030193019B214B196020215960CC
:102608002F215C629C62D9629C61DC611C625E6104
:1026180019683143196040F2E7310294136C43F0B2
:1026280008031364136C03F008030293029B154B11
:102638001C605C605C629962172199609C61DC6136
:102648001C625E611968314319600394136C33434B
:102658001364136C33400393039B2C606C60FFF787
:10266800ADFF2723AC62AB60AC61EC612C626E619C
:102678002B6833432B6004B070BD00BF00380240A4
:1026880000040040000C00404FF08043586A704737
:1026980008B50B4920230B480B6002234B608B6065
:1026A8000323CB6001230B6100F05CFF4FF08043F4
:1026B80044F2770200209A60BDE80840FFF77EBF29
:1026C8008C090020000002400E494023002210B56A
:1026D8000B6002238A60032204460B484B60CA60E1
:1026E8000B6100F03FFF094B70229A6101221A62C8
:1026F80014B117225A6310BD3022BDE810405A6346
:10270800FFF7C6BF8C09002000000240000400400B
:1027180010B50A490024602309488C600C6181E8DF
:1027280018000323CB6000F01DFF4FF080432722E1
:102738009A60C3F81844C3F8204410BD8C090020DF
:102748000000024070B50C4C0A260C4D23680C485A
:10275800EE540133C3F30A03236000F017F8094865
:1027680000F014F8084800F011F82368EE5401331B
:10277800C3F30A03236070BDF80A002000C00420D8
:1027880089870008948700089887000830B503787F
:102798005BB1064A064C11684B1C1360C3F30A036D
:1027A80010F8015B13606554F1E730BDF80A0020AA
:1027B80000C0042030B51149C0F30335104C114A4C
:1027C80023684D5DD554C0F3032501334D5DC3F334
:1027D8000A03D554C0F30315013300F00F004D5D13
:1027E800C3F30A03095CD5540133C3F30A03D15474
:1027F8000133C3F30A03236030BD00BF5B8C0008BC
:10280800F80A002000C0042070B5254CFFF79AFF95
:10281800244D0A2623682448EE540133C3F30A03DF
:102828002360FFF7B3FF23682048EE540133C3F356
:102838000A032360FFF7AAFF1D48FFF7A7FF1D48FB
:10284800FFF7A4FF1C48FFF7A1FF1C48FFF79EFFF6
:102858001B48FFF79BFF23681A48EE540133C3F364
:102868000A032360FFF792FF1748FFF78FFF174807
:10287800FFF78CFF23681648EE540133C3F30A03AD
:102888002360FFF783FF1348FFF780FF1248FFF725
:102898007DFF2368EE540133C3F30A03236070BD40
:1028A800F80A002000C00420B9870008CE87000875
:1028B800FA8700083888000866880008A388000896
:1028C800CF880008F48800083D8900086789000857
:1028D80098890008BB890008D689000808B50B4804
:1028E800FFF754FF0A48FFF751FF0A48FFF74EFF6A
:1028F8000948FFF74BFF0948FFF748FF0848FFF76B
:1029080045FF0848BDE80840FFF740BFF2890008C6
:10291800398A00087B8A0008BD8A0008FF8A0008F7
:10292800418B0008788B0008002110B502681378E5
:10293800303BDCB2092C05D80A24013204FB0131F2
:102948000260F3E7084610BD304A13B553781146C4
:10295800452B37D004D83F2B47D0422B05D04FE02A
:10296800622B02D0652B2DD04AE0294B01938B783E
:1029780003F0DF02412A03D00A2B01D00D2B10D11E
:1029880000242046FEF738FC224603462149224807
:10299800013402F0E1F82048FFF7F8FE0C2CF0D1E2
:1029A80031E001A8FFF7C0FF0B28D4BF044600247C
:1029B8002046FEF721FC174903462246164802F036
:1029C800CBF80BE08B7803F0DF03542B08D1FFF72B
:1029D8005BFE12490246104802F0BEF80E4810E0AD
:1029E8000F4B0D480F491A68F6E7937803F0DF0399
:1029F800452B02D1FFF772FF05E0FFF705FF02E064
:102A08000948FFF7C3FE02B010BD00BFAC0B0020A1
:102A1800AE0B0020BD8B0008D00A0020C88B000830
:102A2800440A0020D18B0008D88B0008534A73B59C
:102A38005378452B3DD002D8422B05D099E0622B24
:102A480002D0652B35D094E093784D4E03F0DF0328
:102A5800462B0BD1336833B94A4B1B68012B02D97B
:102A68004948FFF793FEFEF7DFFC85E002AC474BD1
:102A780044F8043D2046FFF757FF019B05462046D2
:102A880001330193FFF750FF01462846FEF7ACFBE0
:102A98003368002B70D13B4B1B68012B6CD928463F
:102AA800FEF7AAFB3A4903462A463A4802F054F888
:102AB8005DE09178314B01F0DF0054283DD1DB789F
:102AC800532B0CD004D8492B1AD04D2B0BD01BE01C
:102AD8006D2B08D0732B02D0692B15D110E0FFF7AE
:102AE800D7FD2D4846E01379302B04D10020FFF79D
:102AF800EBFD2A483EE00120FFF7E6FD284839E0D3
:102B0800FFF706FE274835E03D2B07D102A8264BE4
:102B180040F8043DFFF708FF044600E00024204683
:102B2800FFF74CFD164B1B6833BB164B1B68012B7C
:102B380022D9184822461D4917E03D2901A814BF8B
:102B4800023303330193FFF7EFFE0628184B8ABFC1
:102B5800062218601A600A4A12686AB9094A126895
:102B6800012A09D90B4813491A6801F0F5FF0948E9
:102B780000E01148FFF70AFE02B070BDAC0B002060
:102B8800040A00204C0A0020EC8B0008AE0B002041
:102B9800BD8B0008D00A0020F18B0008F78B0008D5
:102BA800FE8B0008058C0008B00B0020C88B0008BD
:102BB800440A0020D18B00080B8C00082DE9F04155
:102BC8007F4B804D5A682B687F4913447F4E0A68B3
:102BD80008465B42C3F30803B3F5E07F336007D9C7
:102BE80032B97B4B4FF480421A8101230B600CE011
:102BF800B3F5C07F2CBF002302F001032BB1744B47
:102C08004FF480425A81002303607248724C026874
:102C180023689A4246D071494F688E46002F41D1A9
:102C28009B1AC3F30A039918B1F5006F6C4988BF62
:102C3800C2F50063114403F11F0721F01F0CBFF315
:102C48004F8F0CF11F02002F1A44A2EB070205DD7B
:102C5800DFF8B081203FC8F86822F2E7BFF34F8F52
:102C6800BFF36F8F5F4FFA6842F03D02FA60CEF80B
:102C78000430CEF80C10DEF8002042F00102CEF845
:102C8800002002681344C3F30A0303600AE0564AAB
:102C9800136823F040631360D2F8003843F400034C
:102CA800C2F800383168002900F087802B680139A4
:102CB8004E4AD25C0133C3F30803D2B22B60434BB4
:102CC8001960A2F108030B2B60D801A151F823F079
:102CD800232D0008952D0008632D0008952D000868
:102CE800952D0008632D0008952D0008952D0008E6
:102CF800952D0008092D0008952D0008972C00082F
:102D08003B4A1368A2F5006223F44003C2F8003876
:102D1800136843F000631360C4E736480268002A6A
:102D2800C0D0354B1B68ABB9344B1B6893B12368D3
:102D380008272B494FF0200ECF540133C3F30A0361
:102D480001F803E00133C3F30A03CF540133C3F39B
:102D58000A032360013A0260A4E7264928480B6861
:102D6800C254034400205870234B1B684BB9234BB3
:102D78001B6833B123681A48C2540133C3F30A03EA
:102D8800236000230B6000F05BF88BE719490B68A0
:102D9800581C08601A49CA54174B1B68002B81D16C
:102DA800164B1B68002B3FF47DAF23680C49CA54AF
:102DB8000133C3F30A03236074E7BDE8F08100BF61
:102DC80028600240CC0A0020C80A0020C40A00205B
:102DD80010040240C00A0020F80A00207060024077
:102DE80000C00420006002400004024000C8042023
:102DF800000C0240480A0020040A00204C0A002067
:102E0800AC0B002000ED00E008B5FFF7D7FE084B3B
:102E18005B68002BF9D1074B1A68074B1B689A426D
:102E2800F3D1064BDB695B0601D400BFF9E708BDA7
:102E380070600240C00A0020F80A002000480040E4
:102E480010B54A4C23783F2B23D014D8302B6DD0A3
:102E580006D8212B40F08580BDE81040FFF7E6BD7D
:102E6800312B6AD0322B7CD16FF0F903404A1360C2
:102E7800404A136064E0652B6AD003D8452B67D0BD
:102E8800522B02E0702B08D0722B6AD1FEF7A8FFF4
:102E980003E0BDE81040FFF757BD6278334B522A74
:102EA8005FD19A786F2A5CD1DA78672A59D11A7972
:102EB800422A15D15A790A2A01D00D2A10D10024A4
:102EC8002D48FFF763FCFFF79FFF204601340021E0
:102ED800FEF78AF90C2CF8D1FEF7A6FA274B00E08A
:102EE80004331B780A2B01D00D2B3AD12448FFF765
:102EF8004DFCFFF789FF234B4FF400521A814FF422
:102F080080425A814CF6CC421F4B1A6045F255520A
:102F18001A60FF225A6001229A60DA680AB100BF7B
:102F2800FBE74AF6AA22184B1A60FEE70022114B6B
:102F38001A604FF4C042134B08E001220D4B1A608F
:102F48004FF480420F4B1A814FF400525A8110BD42
:102F580063782B2BBDE810400CBF01200020FEF742
:102F680021B90A48BDE81040FFF710BCAC0B00209F
:102F78003C0A00201C0A00201F8C0008B10B00200E
:102F88003B8C00081018024000300040588C0008A4
:102F98002DE9F04F654B8DB00024654F4FF0030CC1
:102FA8004FF0020905944FF001081A6C4FF40065C0
:102FB8004FF0070B384642F4802207A95D4E4FF4C4
:102FC800806A1A641A6C02F480220592059A0694A3
:102FD8001A6B42F400121A631B6BCDF828C003F475
:102FE8000013CDF80CC007950693069BCDF82090EA
:102FF800CDF82480CDF82CB000F0B4FA4FF400538B
:10300800384607A9CDF82490079300F0ABFA079546
:1030180007A9494DCDF82480284600F0A3FA2B686B
:10302800464A4FF4004123F4400330462B603B6886
:10303800434D43F000633B60424B326073600C23A6
:10304800029273614FF40073F161B3610193B4604C
:10305800F46034613462746201F07BFC4FF0006309
:1030680039492846AC60EC60C5F810A06C61AC61C9
:103078006C62EC622C6385E80A004FF48071E961A8
:103088004FF40031296200F00DFA029A2846019B9C
:1030980091682E4D41F0400191602D492D4A00F074
:1030A8003BFA2D484FF06063056043604023C460DD
:1030B80083604FF48033C0F810A044618461C46118
:1030C80003624462C462046300F0ECF93268384673
:1030D800224B07A9DDF80CC0AB604FF4804593681C
:1030E800CDF81CA043F08003CDF820909360CDF874
:1030F80028C00994CDF82CB000F034FA384607A956
:103108000795CDF8208009940B9400F02BFA144B06
:103118005D81144B1C60144B1C60144B1C60144BD9
:103128001C60144B1C600DB0BDE8F08F00380240E5
:1031380000040240500A0020000C024000480040F1
:10314800FC0A0020001BB7002860024070600240A3
:103158002448004000C80420540B002028480040A0
:1031680010040240F80A0020C00A0020CC0A0020FF
:10317800C40A0020C80A002008B5FFF709FF00228A
:10318800024B1A600222024B1A6008BD480A00204E
:103198004C0A0020002103E00B4B5B5843500431DC
:1031A8000A480B4B42189A42F6D30A4A02E0002317
:1031B80042F8043B084B9A42F9D300F057F801F063
:1031C80009FCFEF705FF70474C8E00080000002040
:1031D8008C0800208C080020140C0020FEE77047A3
:1031E800FEE7FEE7FEE7FEE7FEE708B500F0AAF80F
:1031F800BDE8084000F03BB90120704708B501F070
:10320800E3FB162303604FF0FF3008BD08B501F05B
:10321800DBFB16230360FEE770B50E4615460C4629
:10322800A31BAB4204DA14F8010BAFF30080F7E7F5
:10323800284670BD08B50A4B1A680AB9094A1A60C7
:103248001A68694613188B4206D9074919220120C2
:10325800FFF7E2FF01F0B0FB014910460B6008BD23
:10326800B8080020140C00206B8C00080C4B0021BF
:103278001A6842F001021A6099601A6822F0847292
:1032880022F480321A60074A5A601A6822F48022AF
:103298001A604FF00062D960034B9A60704700BF14
:1032A800003802401030002400ED00E0174A1849A9
:1032B800936803F00C03042B03D0082B03D0154BA1
:1032C80019E0154B17E05068536810F4800F5068E8
:1032D80003F03F0318BF104AC0F3881008BF0D4A17
:1032E800B2FBF3F3094A43435268C2F30142013285
:1032F8005200B3FBF2F30B60044B084A9B68C3F31C
:103308000313D25C0B68D3400B607047003802404F
:10331800100000200024F40040787D010000002007
:1033280010B5044600F046FD4FF47A73B0FBF3F095
:1033380000F060F84FF0FF302146002200F022F83C
:10334800002010BD024A136801331360704700BFA4
:10335800BC080020014B1868704700BFBC0800205B
:10336800074A00F00700D36823F4E0631B041B0C32
:1033780043F0BF6343F4003343EA0023D36070474C
:1033880000ED00E0194BDB68C3F3022370B5C3F10D
:1033980007051C1D042D28BF0425062C4FF0010429
:1033A8008CBF033B0023002804FA03F604FA05F453
:1033B80004F1FF3406F1FF3601EA040102EA0602CD
:1033C80001FA03F142EA01024FEA021205DA00F0BB
:1033D8000F00D2B2064B1A5470BD00F16040D2B251
:1033E80000F5614080F8002370BD00BF00ED00E0EB
:1033F80014ED00E00138B0F1807F0AD2064BF021CD
:10340800064A5860002082F82310072298601A6044
:1034180070470120704700BF10E000E000ED00E0B9
:10342800437811498B600378DBB14368CB60C37A7A
:10343800027B1B0643EA027302781343827A43EA4B
:10344800C243427B43EA8243827B43EA4243C27BD4
:1034580043EA0243427A43EA0223027A43EA4203F6
:1034680000E0CB600B61704790ED00E0704708B555
:10347800FFF7FCFF08BD000003681821DAB223F447
:103488007F73103A23F00303B2FBF1F20449032AD5
:10349800895C88BF043341650365006D704700BFD0
:1034A800858C000838B50446002831D0016802230D
:1034B800184A80F835300B6880681A4063681843EA
:1034C800E36818432369184363691843A3691843D9
:1034D800E3691843236A03431343626A042A01BF5A
:1034E800E06A256B28430343042A20460B604B6996
:1034F80023F0070343EA020304BFA26A13434B61A4
:10350800FFF7BAFF00200123E06484F8353038BDA6
:10351800012038BD3F8010F030B590F83440012CC0
:103528004FF002041CD080F835400125046880F86B
:103538003450256825F001052560256825F4802587
:10354800256063608368402B02D1A260E16001E0DE
:10355800A160E2602368002043F00103236030BDCE
:10356800204630BD2DE9F34100220F680123934026
:1035780003EA07059D4240F0DA804C6824F0100CFD
:10358800BCF1020F14D14FEAD20E02F007064FF039
:103598000F0800EB8E0EB600DEF8203008FA06F8A9
:1035A80023EA08080B69B34048EA0303CEF8203041
:1035B8004FEA420E032306680CF1FF3C03FA0EF3B0
:1035C800BCF1010F6FEA030303EA060804F00306DF
:1035D80006FA0EF648EA0606066011D8866803EA77
:1035E800060CCE6806FA0EF64CEA060686604668B1
:1035F80026EA050CC4F3001696404CEA0606466017
:10360800C66803EA060C8B6803FA0EF64CEA060352
:10361800C360E30040F18B80484E002302F0030CA6
:103628000193D6F844E04FEA8C0C4EF4804EC6F86D
:1036380044E04FF00F0E766C0EFA0CFE06F480464E
:103648000196019E22F0030606F1804606F59C3697
:10365800D6F8088028EA0E0EDFF8E880404537D013
:1036680003F1804303F50133984222D003F58063C8
:10367800984220D003F5806398421ED003F58063FA
:1036880098421CD003F5806398421AD003F58063F2
:10369800984218D003F58063984216D003F58063EA
:1036A800984214D003F5806398420CBF09230A237B
:1036B8000EE001230CE002230AE0032308E00423C0
:1036C80006E0052304E0062302E0072300E00823C0
:1036D80003FA0CF314F4803F43EA0E03DFF860E0CA
:1036E800B3606FEA0506DEF8003014BF2B433340A1
:1036F80014F4003FCEF80030DEF80430DFF840E084
:1037080014BF2B43334014F4801FCEF80430DEF886
:10371800083014BF2B433340A402CEF80830DEF83B
:103728000C3054BF06EA03051D43054BDD6001322A
:10373800102A7FF41BAF02B0BDE8F08100380240C8
:10374800003C014000000240002313B50193194BCF
:103758001A6C42F080521A641B6C174A03F08053AB
:103768000193019B136843F480331360FFF7F2FD64
:103778000446114B5A68D20307D4FFF7EBFD001B30
:10378800B0F57A7FF5D9032012E01A6842F40032C6
:103798001A60FFF7DFFD0446074B5B689B0306D4FE
:1037A800FFF7D8FD001BB0F57A7FF5D9EBE70020CD
:1037B80002B010BD0038024000700040036873B5C5
:1037C800DE07044603D423689D076DD4BFE0A34BEE
:1037D8009A6802F00C02042A07D09A6802F00C02D8
:1037E800082A0BD15B68580208D59C4B1B689903C3
:1037F800E9D56368002BE6D10120B1E1974B1A683F
:1038080022F480321A601A6822F480221A601A6838
:1038180022F480321A60FFF79DFD05468F4B1A6827
:10382800920306D5FFF796FD401B6428F6D90320BE
:1038380096E11A6822F480321A606268B2F5803F15
:1038480003D11A6822F4802205E0B2F5A02F08D12E
:103858001A6842F480221A601A6842F480321A60A8
:1038680008E0196821F480211960196821F4803171
:10387800196062B1FFF76EFD0546784B1B689E0321
:10388800A1D4FFF767FD401B6428F6D9CFE7FFF7FF
:1038980061FD0546714B1B68980394D5FFF75AFDE7
:1038A800401B6428F6D9C2E76C4B9A6812F00C0FDB
:1038B80007D09A6802F00C02082A16D15B685902F0
:1038C80013D4664B1A68920702D5E268012A93D18D
:1038D8001968F82090FAA0F02269B0FA80F021F077
:1038E800F80182400A431A6031E0E2685B4BEAB1B2
:1038F8001A6842F001021A60FFF72CFD0546574886
:1039080003689E0705D4FFF725FD401B6428F6D9F8
:103918008DE70268F82191FAA1F12369B1FA81F1E2
:1039280022F0F8028B401343036010E01A6822F07B
:1039380001021A60FFF70EFD0546484B1B68990700
:1039480005D5FFF707FD401B6428F6D96FE7236804
:103958001A0703D423685B0767D524E062693F4BE5
:1039680082B15A6F42F001025A67FFF7F3FC05462D
:103978003A4B5B6F9E07EDD4FFF7ECFC401B6428C5
:10398800F6D954E75A6F22F001025A67FFF7E2FCB2
:103998000546324B5B6F9807DCD5FFF7DBFC401B15
:1039A8006428F6D943E7002301932C4B1A6C42F0A4
:1039B80080521A641B6C2A4A03F080530193019BBE
:1039C800136843F480731360FFF7C4FC0546244B67
:1039D8001B68D9052DD5214B1A6F22F001021A67F1
:1039E8001A6F22F004021A671A6F22F001021A678E
:1039F800FFF7B0FC0546194B1A6F92071FD41A6FD0
:103A080022F001021A67A268012A20D11A6F22F057
:103A180004021A671A6F42F001021A67FFF79AFC4C
:103A280005460E4B1B6F9E0726D5A16900293AD182
:103A38007BE0FFF78FFC401B6428C8D9F7E6FFF747
:103A480089FC41F28833401B9842D4D9EFE6052A15
:103A580008D11A6F42F00402DBE700BF00380240C9
:103A680000700040196F21F004011967196F21F0E7
:103A78000101196742B1D1E7FFF76CFC41F28833C5
:103A8800401B9842CDD9D2E6FFF764FC0546354B7A
:103A98001B6F9807C9D5FFF75DFC41F28833401BBF
:103AA8009842F4D9C3E62F4B9A6802F00C02082A10
:103AB8003FF4A2AE1A68022922F080721A6042D13D
:103AC800FFF748FC05462748036899012FD447F6B5
:103AD800C07696FAA6F64FF44035B6FA86F695FA09
:103AE800A5F54FF07061B5FA85F591FAA1F1E36992
:103AF800B1FA81F1226A1A43636A42F00052B34074
:103B08001A43A36A5B08013BAB401343E26A8A404D
:103B180013434360036843F080730360FFF71AFCA4
:103B28000446104B1B689A0107D5002018E0FFF7E0
:103B380011FC401B6428C6D979E6FFF70BFC001B73
:103B48006428EED973E6FFF705FC0446054B1B68AD
:103B58009B01EAD5FFF7FEFB001B6428F6D966E651
:103B680002B070BD00380240704A136803F00F03BA
:103B7800994270B504460D466AD9136823F00F03BD
:103B88000B431360136803F00F038B4201D001202D
:103B980070BD01688B0706D56548836823F0F0027D
:103BA800A36813438360CE070BD421684D0740F107
:103BB800AE805F48836823F4E052E3681343836070
:103BC800A5E062685A4B012A196802D111F4003F36
:103BD80006E0022A02D111F0007F01E011F0020F85
:103BE800D5D0996821F003010A439A60FFF7B2FB28
:103BF80063680546012B0ED14D4B9B6803F00C03FF
:103C0800042BD2D0FFF7A6FB41F28833401B984221
:103C1800F2D9032070BD022B14D1454B9B6803F0E9
:103C28000C03082BC1D0FFF795FB41F28833401BEA
:103C38009842F2D9EDE7FFF78DFB41F28833401B3C
:103C48009842E6D83A4B9B6813F00C0FF3D1ACE7D7
:103C58000168880706D53648836823F0F002A36810
:103C680013438360CA070BD4304A136823F00F0349
:103C78002B431360136803F00F03AB4287D194E71B
:103C880062682B4B012A196802D111F4003F06E043
:103C9800022A02D111F0007F01E011F0020F3FF477
:103CA80076AF996821F003010A439A60FFF752FB47
:103CB80063680646012B0DD11D4B9B6803F00C036E
:103CC800042BD1D0FFF746FB41F28833801B984282
:103CD800F2D99EE7022B14D1154B9B6803F00C0315
:103CE800082BC1D0FFF736FB41F28833801B98427E
:103CF800F2D98EE7FFF72EFB41F28833801B9842FA
:103D080087D80B4B9B6813F00C0FF3D1ACE70B076C
:103D180007D5074A2169936823F4604343EAC1033E
:103D280093600020FFF7FCFA002070BD003C0240C1
:103D38000038024010B51C4CA36803F00C03042B98
:103D48002ED0082B2ED1626847F6C07102F03F03CF
:103D5800626812F4800F626891FAA1F147F6C070A8
:103D6800B1FA81F100EA020008BF104A20FA01F016
:103D780016BF0F49B2FBF3F2B1FBF3F202FB00F3FB
:103D8800094A50684FF4403292FAA2F2B2FA82F22B
:103D980000F44030D04001304000B3FBF0F010BDDB
:103DA800034810BD014810BD003802400024F4004B
:103DB80040787D0108B5FFF7BDFF084BF0229B68EE
:103DC80092FAA2F2B2FA82F203F0F003D340044A64
:103DD800D35CD840034B186008BD00BF00380240D0
:103DE8008D8C00081000002008B5FFF7E3FF074B93
:103DF8004FF4E0529B6892FAA2F2B2FA82F203F40C
:103E0800E053D340024AD35CD84008BD0038024092
:103E18008D8C000808B5FFF7CDFF074B4FF46042C3
:103E28009B6892FAA2F2B2FA82F203F46043D3409A
:103E3800024AD35CD84008BD003802408D8C000887
:103E480003682DE9F34713F0010604460BD0B54A81
:103E5800916821F400019160466B91683143B6FA8C
:103E680086F67609916013F4002512D0AD49E56B0A
:103E7800D1F88C20B5F5801F22F4401208BF012626
:103E880042EA050216BFB5FA85F500256D09C1F8A5
:103E98008C20D90211D5A348216CD0F88C20B1F51B
:103EA800800F22F4400242EA0102C0F88C2003D0BD
:103EB800002908BF012500E0012613F0807F18BF04
:103EC80001269A065BD500230193964B1A6C42F0A3
:103ED80080521A641B6C944A03F080530193019B2F
:103EE800136843F480731360FFF734FA07468E4B68
:103EF8001B68DB0506D4FFF72DFAC01B6428F6D92A
:103F0800032034E3874B226B196F4A4012F4407F39
:103F180035D0196F1A6F21F440708F0742F4803240
:103F28001A671A6F22F480321A6718670FD4226B47
:103F380002F44073B3F5407F7A4B17D1996822F0A9
:103F4800704021F4F81120F44070014311E0FFF7AC
:103F580001FA0746734B1B6F9807E8D4FFF7FAF985
:103F680041F28833C01B9842F4D9C9E7996821F413
:103F7800F8119960C2F30B02196F0A431A67236894
:103F8800D9060CD5674AD2F88C1021F08071C2F896
:103F98008C10D2F88C00A16B0143C2F88C105A0423
:103FA80008D56048D0F8902022F44031626E0A4368
:103FB800C0F890201F0408D55A48D0F8902022F461
:103FC8004021A26E0A43C0F89020D80308D555486E
:103FD800D0F8902022F44011E26E0A43C0F89020F5
:103FE800990308D54F48D0F8902022F44001226F59
:103FF8000A43C0F890205A0608D54A48D0F89020BD
:1040080022F00301626C0A43C0F890201F0608D50D
:104018004448D0F8902022F00C01A26C0A43C0F862
:104028009020D80508D53F48D0F8902022F03001DC
:10403800E26C0A43C0F89020990508D53948D0F8B1
:10404800902022F0C001226D0A43C0F890205A0542
:1040580008D53448D0F8902022F44071626D0A43A4
:10406800C0F890201F0508D52E48D0F8902022F4DB
:104078004061A26D0A43C0F89020D80408D52948A9
:10408800D0F8902022F44051E26D0A43C0F8902005
:10409800990408D52348D0F8902022F44041226E94
:1040A8000A43C0F890205A0208D51E48D0F890203C
:1040B80022F08061A26F0A43C0F890209F020CD5BD
:1040C8001848E16FD0F89020B1F1006F22F000623B
:1040D80008BF01250A43C0F8902013F0080F18BF45
:1040E8000125580308D50F48D0F8902022F04071D8
:1040F800626F0A43C0F89020190209D50948D0F820
:10410800902022F08051D4F880200A43C0F89020F3
:10411800012E0BD0B3F1007F08D0012D40F088812B
:1041280021E100BF0038024000700040C64A136811
:1041380023F080631360FFF70DF90746C24E33681A
:104148001A0105D5FFF706F9C01B6428F6D9D7E68A
:104158002068C3073CD5636BD3BBD6F884204FF4E3
:10416800403C9CFAACF84FF07061B8FA88F8D6F881
:10417800843091FAA1FE47F6C079BEFA8EFE99FA0C
:10418800A9F9B9FA89F99CFAACFCBCFA8CFC91FA49
:10419800A1F14FF0E04AB1FA81F19AFAAAFAA768B8
:1041A800BAFA8AFA02F4403203F0706307FA0AFA9C
:1041B800676822FA08F223FA0EF307FA09F902FAF5
:1041C8000CF28B404AEA09073A431343C6F8843095
:1041D800070303D5E36BB3F5801F05D0C60248D5A6
:1041E800236CB3F5800F44D1974E4FF4403CD6F87A
:1041F80084209CFAACF84FF0E041B8FA88F8D6F879
:10420800843091FAA1FE47F6C079BEFA8EFE99FA7B
:10421800A9F9B9FA89F99CFAACFC4FF0706ABCFAB2
:104228008CFC9AFAAAFABAFA8AFA91FAA1F1E76822
:1042380002F4403203F0E043B1FA81F107FA0AFAD6
:10424800676822FA08F223FA0EF307FA09F902FA64
:104258000CF28B404AEA09073A431343C6F8843004
:10426800D6F88C30626A23F01F03013A1343C6F86C
:104278008C30C1013BD5744E4FF0706CD6F8842059
:104288009CFAACF84FF0E041B8FA88F8D6F88430D8
:1042980091FAA1FE47F6C079BEFA8EFE99FAA9F9FD
:1042A8004FF4403AB9FA89F99AFAAAFABAFA8AFAA4
:1042B8009CFAACFCBCFA8CFC91FAA1F1276902F0DB
:1042C800706203F0E043B1FA81F107FA0AFA67680D
:1042D80022FA08F223FA0EF307FA09F902FA0CF2A5
:1042E8008B404AEA09073A431343C6F884308201EF
:1042F80026D547F6C07696FAA6F64FF44037B6FAB2
:1043080086F697FAA7F74FF07060B7FA87F790FA32
:10431800A0F04FF0E041B0FA80F091FAA1F12269E3
:10432800B1FA81F102FA07F36268B2401A43E3680E
:1043380083401A43A3688B401343434AC2F884302E
:10434800414A136843F080631360FFF703F8064699
:104358003D4B1B681B013FF5E0AEFEF7FBFF801BE2
:104368006428F5D9CCE5384A136823F080531360E4
:10437800FEF7F0FF0546344B1B689F005AD42168AE
:104388000E035DD4CD0261D4880200F1A8800A072B
:1043980041D52D4D4FF07061D5F8883091FAA1F7CD
:1043A8004FF44030B7FA87F7D5F8882090FAA0FC88
:1043B80047F6C07EBCFA8CFC9EFAAEFEBEFA8EFEB4
:1043C80090FAA0F0B0FA80F091FAA1F14FF0E0482D
:1043D800B1FA81F198FAA8F8E669B8FA88F802F40F
:1043E800403203F0706306FA08F8666922FA0CF2A4
:1043F800FB4006FA0EF682408B4048EA0606324336
:104408001343C5F88830D5F88C3023F44032E36A7A
:104418001343C5F88C300C4A136843F0805313607B
:10442800FEF798FF0446084B1B689B0040F19880F4
:1044380000209CE0FEF78EFF401B64289BD95FE5B7
:10444800E36B33B19EE700BF00380240236C002BBA
:104458009AD1484D4FF4403ED5F888209EFAAEF8E0
:104468004FF0E040B8FA88F8D5F8883090FAA0F70D
:1044780047F6C07CB7FA87F79CFAACFCBCFA8CFC10
:104488009EFAAEFE4FF07069BEFA8EFE99FAA9F94F
:10449800B9FA89F990FAA0F0A66902F4403203F05B
:1044A800E043B0FA80F006FA09F9666922FA08F2E0
:1044B800FB4006FA0CFC02FA0EF2834049EA0C06AD
:1044C80032431343C5F88830D5F88C30A26A23F4F8
:1044D800F853013A43EA0223C5F88C3054E7E36FF6
:1044E800B3F1006F7FF453AF224D4FF0706ED5F8E3
:1044F80088209EFAAEF84FF0E040B8FA88F8D5F870
:10450800883090FAA0F747F6C07CB7FA87F79CFA8C
:10451800ACFC4FF44039BCFA8CFC99FAA9F9B9FA09
:1045280089F99EFAAEFEBEFA8EFE90FAA0F0266ACF
:1045380002F0706203F0E043B0FA80F006FA09F97D
:10454800666922FA08F2FB4006FA0CFC02FA0EF23F
:10455800834049EA0C0632431343C5F8883016E70E
:10456800FEF7F8FE001B64287FF65DAFC8E402B0D2
:10457800BDE8F0870038024070472DE9F0419046C9
:1045880004460E461D46FEF7E5FE0746B8F1000F45
:1045980036D12268D3693340B3420ED0691CF9D0B2
:1045A8007DB1FEF7D7FEC01BA842F2D309E06B1C11
:1045B80006D1D3693340B342F9D00020BDE8F08179
:1045C800CDB9236803201A6822F080021A601A689D
:1045D80022F020021A601A6822F480721A609A681F
:1045E80022F001029A60012384F86930002384F8DC
:1045F8006830BDE8F081FEF7ADFEC01BA842E0D2EE
:104608002268D6E738B504460568C369A2682169F7
:104618002868114362690A4342EA0301814A024059
:10462800206A0A432A606A6822F44051E2680A4311
:10463800A1696A600143AA6822F430620A43AA6049
:10464800794A954207D102F594327849D2F89020F8
:1046580002F0030209E0764A95420CD102F5FA32DB
:104668007449D2F8902002F00C02B3F5004F8A5C2E
:1046780040F0B18072E0704A95420DD102F5F832EF
:10468800D2F8902002F03002102A00F082805DD922
:10469800202A78D0302A0EE0684A95420DD102F5DA
:1046A800F632D2F8902002F0C002402A71D04DD9DB
:1046B800802A68D0C02A76D080E0614A95420FD11E
:1046C80002F5F432D2F8902002F44072B2F5807FFD
:1046D8005FD03BD9B2F5007F55D0B2F5407FEAE70D
:1046E800584A954212D102F59232D2F8902002F43B
:1046F8004062B2F5806F4CD002D8002A3DD05DE010
:10470800B2F5006F3FD0B2F5406FD4E74E4A9542FC
:104718000FD102F5E032D2F8902002F44052B2F5FF
:10472800805F36D012D9B2F5005F2CD0B2F5405F69
:10473800C1E7464A954241D102F5DE32D2F89020CF
:1047480002F44042B2F5804F23D001D87AB135E067
:10475800B2F5004F17D0B2F5404FACE7082A30D871
:10476800DFE802F0080E142F1A2F2F2F2400B3F5BC
:10477800004F39D1FFF738FB10E0B3F5004F36D1C1
:10478800FFF748FB0AE0B3F5004F33D16068304BC0
:104798000FE0B3F5004F33D1FFF7CCFA4000636860
:1047A800B0FBF3F307E0B3F5004F31D160684FF485
:1047B8008033B3FBF0F39BB2002004E0B3F5004F65
:1047C8002ED10120002323F00F01C3F342032268F6
:1047D8000B43D36038BD082A22D8DFE802F0050869
:1047E8000B21112121211900FFF7FEFA0AE0FFF73A
:1047F80011FB07E06268174BB3FBF2F39BB20CE0C6
:10480800FFF798FA6368B0FBF3F080B2E86005E060
:1048180062684FF40043B3FBF2F3EB60002038BD4D
:10482800012038BDF369FFEF00100140AA8C000891
:10483800004400409D8C000800480040004C0040A7
:10484800005000400014014000780040007C004007
:104858000048E8010024F400436ADA0710B506D5D9
:104868000468626822F40031826A0A4362609C0725
:1048780006D50468626822F48031C26A0A4362601D
:10488800590706D50468626822F48021026B0A433E
:1048980062601A0706D50468626822F40041426B18
:1048A8000A436260DC0606D50468A26822F48051D7
:1048B800826B0A43A260990606D50468A26822F4AE
:1048C8000051C26B0A43A2605A0610D50168046CF5
:1048D8004A68B4F5801F22F4801242EA04024A6052
:1048E80005D14A6822F4C004426C22434A601B0680
:1048F80006D501684B6823F40022836C13434B6090
:1049080010BD0022036810B5C26604461B6819076B
:1049180004D423681B685B0714D509E04FF4001121
:104928006FF07E43FFF729FE0028F2D0032010BD68
:1049380020464FF4800100226FF07E43FFF71DFEF2
:104948000028F3D10123002084F8693084F8680036
:1049580010BD10B5044660B390F8693003F0FF024B
:104968001BB980F86820FFF707FE2268022320465B
:1049780084F86930136823F001031360FFF742FEDF
:10498800012816D0636A13B12046FFF765FF236834
:1049980020465A6822F490425A609A6822F02A0205
:1049A8009A601A6842F00102BDE810401A60FFF7E9
:1049B800A8BF012010BD000008B5062000F0AEF821
:1049C8000120FEF723FC00BF014B1868704700BFA9
:1049D8004004002070B50F4E0F4D761BB61018BF5F
:1049E800002405D0013455F8043B9847A642F9D174
:1049F8000A4E03F091FE0A4D761BB61018BF00242C
:104A080006D0013455F8043B9847A642F9D170BD49
:104A180070BD00BF408E0008408E0008488E000818
:104A2800408E0008830770B449D0541E002A44D031
:104A3800CDB2034602E0002C3FD0144603F8015BD8
:104A480013F0030F04F1FF32F5D1032C2ED9CDB2A8
:104A58000F2C45EA052545EA054519D903F1100249
:104A68002646103E42F8105C42F80C5C10320F2EBD
:104A780042F8185C42F8145CF3D8A4F1100204F070
:104A88000F0422F00F02032C02F1100213440DD977
:104A98001E462246043A46F8045B032AFAD8221F27
:104AA80004F0030422F00302043213442CB1C9B207
:104AB8001C4403F8011BA342FBD170BC7047144689
:104AC8000346C2E71F2938B5054621D8D0F8DC22AD
:104AD8000C469AB152F8213083B1012B0CD0591CE5
:104AE80006D00025204642F824509847284638BD6D
:104AF800162301202B6038BD002038BD284600F061
:104B080029F8224601462846BDE8384000F00EB88C
:104B180016234FF0FF302B6038BD00BF024B014613
:104B28001868FFF7CFBF00BF4004002038B5002346
:104B3800074C0546084611462360FEF75FFB431CF9
:104B480000D038BD2368002BFBD02B6038BD00BFD8
:104B5800100C0020FEF750BB0EB4F0B59CB0104B03
:104B680006464FF4027E21AC6FF000454FF6FF7702
:104B7800186854F8042B02A9029623460696019455
:104B8800ADF814E004950795ADF8167000F00AF832
:104B9800029B00221A701CB0BDE8F04003B07047B9
:104BA800400400202DE9F04FC1B0894608920C93CB
:104BB800099002F0BBFA03681846169303F0F2F85E
:104BC800B9F80C3017901D0604D5D9F81030002B11
:104BD80001F080800DF1C0080023C346139314939D
:104BE8001293159319930A9325932493CDF88C80E7
:104BF800089A1378252B00F0A6800BB9A3E01BB107
:104C080012F8013F252BFAD108991446551A10D0ED
:104C1800249B259A0133CBF800102A44CBF8045082
:104C2800072B2493259273DC0BF1080B0A9B2B446A
:104C38000A932378002B73D000234FF0FF3C611CAC
:104C480066781A4664468DF86F300B9306934B1CB2
:104C5800A6F12001582900F2B283DFE811F0190308
:104C6800B003B0032003B003B003B003B003B00334
:104C7800B0034002FB01B003E201FF01B0032703C8
:104C88002E032E032E032E032E032E032E032E0394
:104C98002E03B003B003B003B003B003B003B003F6
:104CA800B003B003B0033D036503B0036503B0036D
:104CB800B003B003B003FE02B003B0039302B00325
:104CC800B003B003B003B003B002B003B003C60230
:104CD800B003B003B003B003B003B003B003B00334
:104CE800B003B003EB0218026503650365034E02C7
:104CF8001802B003B0033602B0036002E901990359
:104D08005902B0037202B0037600B003B003050382
:104D18000998494623AA03F073F840B9C34685E7C2
:104D2800259B23B10998494623AA03F069F8B9F8E5
:104D38000C3013F0400F0A9B18BF4FF0FF33184692
:104D480041B0BDE8F08F089C73E70893A446069B22
:104D5800980640F13E820C9F0123073727F007028F
:104D680002F10801D2E900450C910022CDF840C0BB
:104D780017468DF86F20BCF1000F03DB069A22F06E
:104D880080020692BCF1000F40F0AC8354EA0502A1
:104D980014BF01220022002A40F0A483002B40F017
:104DA8006084069AD20740F1FD840DF5807A30239D
:104DB8000AF8413DCAEB0804CDF83CA0A445634677
:104DC800B8BF234607930023119317B1079B0133FC
:104DD8000793069B13F002030D9302D0079B02333F
:104DE8000793069B13F084030E9340F007830B9BF5
:104DF800079AC2EB030ABAF1000F40F3FF82BAF137
:104E0800100F259940F3DD87BF4F10251896249A77
:104E18003E462746099C04E0AAF1100ABAF1100F91
:104E28001BDD01321031CBF800600BF1080B072AAB
:104E38004BF8045C25912492EEDD2046494623AACE
:104E4800C34602F0DDFF00287FF471AFAAF1100A13
:104E58002599249ABAF1100FE3DC3C463746189E90
:104E680001320AEB010CCBF80070072ACDF894C088
:104E78002492CBF804A000F3B6820BF1080B9DF83E
:104E88006F7097B1249B01220CF1010C0DF16F0199
:104E98001344CBF80420CDF894C0072BCBF80010AE
:104EA800249300F3FB830BF1080B0D9B8BB1249B20
:104EB8000CF1020C1CA902220133CDF894C0CBF8E6
:104EC8000010072B2493CBF8042000F3DB830BF1AD
:104ED800080B0E9B802B00F02183109B1F1B002FBB
:104EE80037DD102F249B40F3EC850D944FF0100A0A
:104EF800864D6246099C02E0103F102F19DD0133F0
:104F08001032CBF800500BF1080B072B4BF804AC10
:104F180025922493F0DD2046494623AAC34602F091
:104F28006FFF00287FF403AF103F259A249B102FB2
:104F3800E5DC0D9C94460133BC44CBF80050072BAC
:104F4800CDF894C02493CBF8047000F38F830BF151
:104F5800080B069BDF0500F15482249BA4440F9A9A
:104F68000133CDF894C0CBF80020072BCBF80440D0
:104F7800249300F360830BF1080B069B5A0740D576
:104F88000B9B079A9C1A002C3BDD102C249B40F3AA
:104F98006B8710255C4F6246099E02E0103C102C7E
:104FA80019DD01331032CBF800700BF1080B072B19
:104FB8004BF8045C25922493F0DD3046494623AA39
:104FC800C34602F01DFF00287FF4B1AE103C259ABD
:104FD800249B102CE5DC94460133A444CBF80070E4
:104FE800072BCDF894C02493CBF8044009DD099829
:104FF800494623AA02F004FF00287FF498AEDDF8A2
:1050080094C00A9B079A0B998A42ACBF9B185B18FD
:105018000A93BCF1000F40F01A830023C34624937F
:10502800E6E5194606981E7840F0040006900EE65C
:105038000893A446069B13F0200300F0AE800C9F53
:105048000023073727F0070202F10801D2E90045DB
:105058000C918AE61E7819462B22F8E51E78591C11
:105068002A2E01F00680A6F130000B4600240928FC
:105078003FF6EEAD04EB840413F8016B00EB440437
:10508800A6F130000928F5D944EAE474E0E508936C
:10509800A446069B8DF86F209C0640F129810C9F41
:1050A800073727F00707D7E9002307F10801144657
:1050B8001D460C91002A73F10003C0F22A819DF865
:1050C8006F700123CDF840C055E61E7806996C2E06
:1050D80000F0578541F0100106911946B7E50C9D7F
:1050E800296808460B912946002801F10401C0F2FD
:1050F8004F850C9119461E78A9E5069941F04001A3
:10510800069119461E78A2E50C8D0008B88C000897
:10511800069941F02001069119461E7897E50893F3
:10512800069B8DF86F209E0640F1A4840A990C9A7C
:10513800CD1708461368043229460C92C3E90001CA
:1051480056E50C9A002508931368171D8DF86F50C3
:105158000F93002B00F07A86002C0F98C0F224865B
:105168002946224602F092FA002800F0DF860F9BBB
:105178000C97C41A10959DF86F7024EAE473119582
:10518800079322E60893A446069B43F01003069370
:10519800069B13F020037FF452AF069A12F0100218
:1051A80040F05283069B13F0400300F04D830C99A6
:1051B800134600250A460C8804320C92D5E508935C
:1051C800A446069B43F010030693069B98063FF5FA
:1051D800C2AD069BD90640F132840C9A13460432BC
:1051E8001C68002501230C92BFE50893A446B74B21
:1051F8008DF86F201593069B9A063ED50C9F0737AE
:1052080027F0070303F10802D3E900450C92069B37
:10521800DF0740F1688254EA050300F06482069BC8
:1052280030228DF8716043F002038DF870200693E8
:1052380002239AE50C990120089300230A68043197
:105248001F468DF86F3010930446119326AB0790D4
:105258000C918DF898200F93BBE5069941F0080151
:10526800069119461E78F2E40893A446984B8DF8E7
:105278006F201593069B9A06C0D4069BDB0640F167
:10528800EC830C9A00251346146804330C93BEE78C
:105298001E781946002A7FF4DAAC2022D7E4069952
:1052A80041F00101069119461E78D0E4069941F0B3
:1052B8008001069119461E78C9E4A6F13000002144
:1052C80001EB810113F8016B00EB4101A6F13000FD
:1052D8000928F5D90B91BBE40893A446069B8DF8E1
:1052E8006F2043F010030693069B9C063FF5D7AE4C
:1052F800069BD80640F1D5830C9A13461C680433E4
:10530800E51722460C93002A2B4673F10003BFF6DB
:10531800D6AE2D276442CDF840C04FF0010365EBAF
:1053280045058DF86F7026E50C9F089307378DF8B3
:105338006F2027F0070303F108020C921A681392F2
:105348005B68139814931499079402F0F7FC0128EA
:10535800DDF81CC040F055831398002200231499EF
:10536800FBF720FC002840F082859DF86F7003232E
:105378000698584A00211C460793574B20F0800096
:105388001091472ED8BF1A46069011910F921CE52E
:105398000C9D30220698A44629460893782340F0AD
:1053A800020004312C681E468DF87130484B0025E8
:1053B8000690159302230C918DF87020D5E408937C
:1053C8008DF86F20002E3FF4ABAC0023012226A9F4
:1053D8008DF8986007921F460F9114468DF86F302C
:1053E80010931193F5E40998494623AA02F008FDA1
:1053F80000287FF49CAC9DF86F70C346DDF894C01C
:105408003FE5652E40F3C9801398002200231499C4
:10541800CDF834C0FBF7BCFBDDF834C0002800F041
:105428006581249B01220CF1010C2C491344CBF813
:105438000420CDF894C0072BCBF80010249300F378
:1054480043830BF1080B1D9B129A934203DB069BC7
:10545800DE077FF592AD249B17990133169A8C4489
:10546800CBF80410072BCBF80020CDF894C0249378
:1054780000F31D840BF1080B129B5C1E002C7FF7B8
:105488007CAD102C249B40F3BC851026144D62463D
:10549800099F03E0103C102C40F3C88101331032FF
:1054A800CBF800500BF1080B072B4BF8046C259236
:1054B8002493EFDD3846494623AAC34602F0A0FCF0
:1054C80000287FF434AC259A249BE3E7D88C0008A5
:1054D800EC8C0008CC8C0008C88C0008088D0008EB
:1054E800B88C0008012B00F04D81022B40F0E380BE
:1054F800C2461598230904F00F012A0943EA0573E7
:1055080015461C46435C0AF8013D54EA0503F1D1EF
:105518005346CDF83CA0C3EB08044FE40B9B079A15
:105528009F1A002F7FF7D9AC102F249B40F3F984E2
:105538000D944FF0100AC84D6246099C02E0103FD6
:10554800102F19DD01331032CBF800500BF1080B86
:10555800072B4BF804AC25922493F0DD20464946EE
:1055680023AAC34602F04CFC00287FF4E0AB103FAE
:10557800259A249B102FE5DC0D9C94460133BC44EE
:10558800CBF80050072BCDF894C02493CBF80470C7
:1055980000F3FC810BF1080B9FE4129B0CF1010650
:1055A800249C012B40F3C98101230F9A25961C44A2
:1055B800CBF80020CBF80430072C249400F3DA81D0
:1055C8000BF1080B179A0134169B1644072CCBF8DD
:1055D800003025962494CBF8042000F3BF810BF10A
:1055E800080B0023139800221499FBF7D1FA129B99
:1055F800002840F0DC80013B01340F9A1E44072C40
:1056080002F1010224942596CBF80020CBF804304F
:1056180000F300810BF1080B199A01341FAB06EB5C
:10562800020C072CCBF80420CDF894C02494CBF8B6
:1056380000307FF7A0AC0998494623AA02F0E0FBA6
:1056480000287FF474ABDDF894C0C34695E409984C
:10565800494623AA02F0D4FB00283FF4DEACFFF74A
:1056680066BB1446CDF83C80FFF7A8BB09984946AD
:1056780023AA02F0C5FB00287FF459ABDDF894C0DB
:10568800C34666E40998494623AA02F0B9FB0028F4
:105698007FF44DABDDF894C0C3461AE40998494637
:1056A80023AA02F0ADFB00287FF441ABDDF894C0DB
:1056B800C346FFF7FABB4146E20804F00703E808CF
:1056C80042EA457230330546144601F8013D54EA72
:1056D8000502F1D1069A0F91D00700F16481C1EB60
:1056E8000804FFF76BBB0223FFF73FBB1D9C002C90
:1056F80040F3F681129A119913468A42A8BF0B46C5
:105708000F991C468F18002C0EDD249BA444CBF85F
:1057180000100133CDF894C0CBF80440072B249334
:1057280000F353830BF1080B119B002CA8BF1B1B24
:10573800002B1C4640F3A180102C249B40F36C8462
:105748001026454D6246DDF824A003E0103C102CDD
:1057580040F3848001331032CBF800500BF1080B72
:10576800072B4BF8046C25922493EFDD50464946ED
:1057780023AAC34602F044FB00287FF4D8AA259A3E
:10578800249BE3E7002D08BF0A2C80F01A810DF551
:10579800807A30340AF8414DCAEB0804CDF83CA0B1
:1057A800FFF70CBB1C46CDF83C80FFF707BB5F1E1C
:1057B800002F7FF731AF102F274DC8BF4FF0100AC9
:1057C80003DC1CE0103F102F19DD01341036CBF834
:1057D80000500BF1080B072C4BF804AC25962494C9
:1057E800F0DD0998494623AAC34602F009FB0028C0
:1057F8007FF49DAA103F259E249C102FE5DC0134E0
:105808003E44CBF80050072C25962494CBF804701E
:105818007FF700AF0998494623AA02F0F1FA002859
:105828007FF485AA259EC346249CF5E69446013359
:10583800A444CBF80050072BCDF894C02493CBF8A0
:1058480004407FF798ABF6E60C9900250A460C68E9
:1058580004320C92FFF789BAB88C000894460133D9
:10586800A444CBF80050072BCDF894C02493CBF870
:10587800044000F3DF820BF1080B0F9A11991D9B6E
:105888000A441646129A934245DB069AD00742D438
:10589800129ABC1BD31A9C42A8BF1C46002C254652
:1058A8000EDD249AA444CBF800600132CDF894C0F0
:1058B800CBF80440072A249200F3A0820BF1080BCE
:1058C800002DACBF5C1B1C46002C7FF756AB102C80
:1058D800249B40F396831026B14D6246099F02E04F
:1058E800103C102CA2DD01331032CBF800500BF124
:1058F800080B072B4BF8046C25922493F0DD3846EF
:10590800494623AAC34602F07BFA00287FF40FAA6F
:10591800259A249BE4E7249A17980132169984441F
:10592800CBF80400072ACBF80010CDF894C02492D5
:1059380000F373820BF1080BAAE7069BD9073FF522
:1059480033AE01230F9A25961C44CBF80020CBF8E0
:105958000430072C24947FF75DAE5BE7099849462D
:1059680023AA02F04DFA00287FF4E1A9259EC34638
:10597800249C36E60998494623AA02F041FA0028F1
:105988007FF4D5A9259EC346249C1BE60998494661
:1059980023AA02F035FA00287FF4C9A9DDF894C0DB
:1059A800C346FFF79ABA302B0F9B3FF4B4AD013BC7
:1059B8001A460F933023C2EB080401F8013CFFF7A5
:1059C800FDB9C246CDF81CC0204629460A2200234C
:1059D800FBF738F902F1300E2046294600230A2247
:1059E8000AF801EDFBF72EF904460D4654EA0503C3
:1059F800EAD1DDF81CC0CAEB0804CDF83CA0FFF7DB
:105A0800DDB913981499CDF81CC002F097F9DDF8A8
:105A18001CC0002840F0CC80069C0321614A624BE0
:105A280024F080041090472ED8BF1A460694079198
:105A38000C4611900F929DF86F70FFF7C6B9069B40
:105A48000C9A13F0400F13463FF4C9AB1488043284
:105A5800002501230C92FFF788B9069B0C9A13F0D6
:105A6800400F134600F030810433148800250C934E
:105A7800FFF7CDBB069BDD060BD4069B5C0608D55D
:105A88000C9A136804320C92BDF828201A80FFF78C
:105A9800AFB80C9A136804320C920A9A1A60FFF78E
:105AA800A7B8069B0C9A13F0400F13463FF426AC98
:105AB800B2F900400433E5170C9322462B46FFF752
:105AC800F9BA374DFFF737BA0998494623AA02F0C1
