:020000041A00E0
:1000000000A0081025C4001A5302001A5902001A51
:100010005F02001A6502001A6B02001A000000005D
:100020000000000000000000000000007102001A43
:100030007702001A000000007D02001AE1AF001AEA
:100040008302001A8302001A8302001A00000000D3
:100050008302001A8302001A8302001A8302001A24
:100060008302001A8302001A8302001A8302001A14
:100070008302001A8302001A8302001A8302001A04
:100080008302001A8302001A8302001A8302001AF4
:100090008302001A8302001A8302001A8302001AE4
:1000A0008302001A8302001A8302001A8302001AD4
:1000B0008302001A8302001A8302001A8302001AC4
:1000C0008302001A8302001A8302001A8302001AB4
:1000D0008302001A8302001A8302001A8302001AA4
:1000E0008302001A8302001A8302001A8302001A94
:1000F000000000008302001A8302001A8302001A23
:10010000000000008302001A8302001A8302001A12
:100110008302001A98B6011A18600810CC04000077
:1001200094B6011A008000200000000094B6011A65
:10013000142000100000000094B6011A00000810FE
:100140000000000094B6011A00000010000000003A
:1001500094B6011A106008100400000098B6011A45
:10016000000000200000000098B6011A0082002064
:100170000000000098B6011A00C000200000000036
:10018000E8640810101C000000800020000000003F
:100190001420001000000000000008100000000003
:1001A00000000010000000001460081000000000B3
:1001B000000000200000000000820020000000007D
:1001C00000C000200000000080B48BB000AFF860D9
:1001D000B9607A60BB687B62FB683B620023FB61AD
:1001E00010E07B6A0433BB613B6A04337B613B6A8A
:1001F0001A687B6A1A60FB690433FB617B693B62A6
:10020000BB697B62FA697B689A42EAD32C37BD46A8
:100210005DF8047B704780B487B000AF78603960C8
:100220007B687B6100233B610AE07B690433FB60F0
:100230007B6900221A603B6904333B61FB687B6188
:100240003A693B689A42F0D31C37BD465DF8047B9F
:10025000704780B400AFFEE780B400AFFEE780B423
:1002600000AFFEE780B400AFFEE780B400AFFEE76A
:1002700080B400AFFEE780B400AFFEE780B400AF0B
:10028000FEE780B400AFFEE7FFFFFFFFFFFFFFFFC9
:10029000FFFFFFFFFFFFFFFFFFFFFFFFFFFFFFFF6E
:1002A000FFFFFFFFFFFFFFFFFFFFFFFFFFFFFFFF5E
:1002B000FFFFFFFFFFFFFFFFFFFFFFFFFFFFFFFF4E
:1002C000FFFFFFFFFFFFFFFFFFFFFFFFFFFFFFFF3E
:1002D000FFFFFFFFFFFFFFFFFFFFFFFFFFFFFFFF2E
:1002E000FFFFFFFFFFFFFFFFFFFFFFFFFFFFFFFF1E
:1002F000FFFFFFFFFFFFFFFFFFFFFFFFFFFFFFFF0E
:1003000080B483B000AF0346FB71FB791B2B0ED882
:10031000FA79094902F116039B000B445B6843F02C
:100320000101054802F116039B00034459600C3794
:10033000BD465DF8047B70470000054080B582B083
:1003400000AF0346FB71FB791B2B05D8FB791846E0
:1003500000F01EF9034600E0112318460837BD4699
:1003600080BD80B485B000AF3B600346FB800B4688
:100370007B7113463B717B79002B02D00323FB601A
:1003800001E00123FB603B79002B03D0FB6843F0C5
:100390000403FB603B68022B03D1FB6843F020039E
:1003A000FB60FB88B3F5A17F08D3FB88A3F5A1739D
:1003B00008492033FA6841F8332005E0FB880649F4
:1003C0002033FA6841F833201437BD465DF8047BCA
:1003D000704700BF002005400010054080B582B086
:1003E00000AF0346FB80FB88B3F5A17F04D3FB88F5
:1003F000184600F0EFF80BE0FB88074903F12002F4
:1004000051F8322042F001020349203341F83320F1
:100410000837BD4680BD00BF0010054080B400AF66
:10042000074B5B6823F00C03054A5360044B5B6881
:1004300043F00303024A5360BD465DF8047B7047F6
:100440000030044080B582B000AF0346FB80FB88DB
:10045000B3F5A17F04D3FB88184600F0D5F80BE074
:10046000FB88074903F1200251F8322022F00102F3
:100470000349203341F833200837BD4680BD00BF13
:100480000010054080B586B000AF0346FB80FB88B6
:10049000B3F5A17F08D3FB88A3F5A173194A2033D4
:1004A00052F833307B6105E0FB88174A203352F85D
:1004B00033307B617B6903F00103002B1BD0FB8889
:1004C000184602F0ABF90346FB72FB7A184602F0BD
:1004D00035FCF8607B695B0903F00703002B02D051
:1004E00002233B6101E001233B61FA683B69B2FBF7
:1004F000F3F3FB6001E00023FB60FB68184618374C
:10050000BD4680BD002005400010054080B483B08A
:1005100000AF0346FB71FB7908491A010A441832FF
:10052000926842F0010205491B010B4418339A609E
:100530000C37BD465DF8047B704700BF00000540E6
:1005400090B585B000AF0346FB71FB79184602F009
:1005500043FB0346FB73FB790B4903F1120251F88D
:1005600022209208D2B20949CB5C1340DBB21C4670
:10057000FB7B184602F050FB0246631CB2FBF3F310
:1005800018461437BD4690BD000005409499011AE5
:1005900080B485B000AF0346FB71FB790C4A16337B
:1005A0009B0013445B68FB60FB6803F00103002BB6
:1005B00006D1FB681B0EDBB203F01F03DBB200E0C9
:1005C000112318461437BD465DF8047B704700BF01
:1005D0000000054080B483B000AF0346FB80FB8879
:1005E000A3F5A173074903F1200251F8322042F02C
:1005F00001020449203341F833200C37BD465DF831
:10060000047B70470020054080B483B000AF0346F0
:10061000FB80FB88A3F5A173074903F1200251F881
:10062000322022F001020449203341F833200C37F4
:10063000BD465DF8047B70470020054080B582B060
:1006400000AF78600220012101220123FFF789FE1B
:100650007868002100F01BF80837BD4680BD80B4E3
:1006600085B000AF786039607B681B6803F4803325
:10067000FB603B689B019BB2FA681343FB607B689D
:10068000FA681A601437BD465DF8047B704780B481
:1006900083B000AF786039607B681B6823F48032D8
:1006A0007B681A603B68012B05D17B681B6843F4AB
:1006B00080327B681A600C37BD465DF8047B70475A
:1006C00080B584B000AF0D4B1B68BB600C4B1B6842
:1006D0007B60BB680B4A934203D17B680A4A934212
:1006E00001D0002300E00123FB73FB7B002B01D032
:1006F00000F00CF81037BD4680BD00BF40EF00E0B1
:1007000044EF00E0210011101100001180B485B009
:1007100000AF074B1B68FB60FB6843F47003FB6092
:10072000FB68034A13601437BD465DF8047B7047CD
:1007300088ED00E080B582B000AF0346FB71FA7926
:1007400006491346DB009B1A9B000B449B88184606
:10075000FFF744FE0837BD4680BD00BF6860081043
:1007600080B582B000AF0346FB71FA7906491346A3
:10077000DB009B1A9B000B449B881846FFF762FE28
:100780000837BD4680BD00BF6860081080B582B0E4
:1007900000AF0346FB71FA7907491346DB009B1A49
:1007A0009B000B449B881846FFF76CFE03461846D7
:1007B0000837BD4680BD00BF6860081080B485B0B2
:1007C00000AF786039607B685B6803F0F803582BF2
:1007D00000F21E8101A252F823F000BF050A001AA0
:1007E000110A001A110A001A110A001A110A001A35
:1007F000110A001A110A001A110A001A4109001AF6
:10080000110A001A110A001A110A001A110A001A14
:10081000110A001A110A001A110A001A4109001AD5
:10082000110A001A110A001A110A001A110A001AF4
:10083000110A001A110A001A110A001A6309001A93
:10084000110A001A110A001A110A001A110A001AD4
:10085000110A001A110A001A110A001AE109001AF5
:10086000110A001A110A001A110A001A110A001AB4
:10087000110A001A110A001A110A001A6309001A53
:10088000110A001A110A001A110A001A110A001A94
:10089000110A001A110A001A110A001AED09001AA9
:1008A000110A001A110A001A110A001A110A001A74
:1008B000110A001A110A001A110A001AF909001A7D
:1008C000110A001A110A001A110A001A110A001A54
:1008D000110A001A110A001A110A001ACB09001A8B
:1008E000110A001A110A001A110A001A110A001A34
:1008F000110A001A110A001A110A001AE109001A55
:10090000110A001A110A001A110A001A110A001A13
:10091000110A001A110A001A110A001AA909001A6C
:10092000110A001A110A001A110A001A110A001AF3
:10093000110A001A110A001A110A001AA309001A52
:100940003B681B785B003A689268002A0CBF012262
:100950000022D2B213431A467B689A603C23FB60A4
:1009600058E03B689B68002B0CD13B681B69002B4F
:1009700002D16FF0100301E06FF0200303F03C039D
:10098000FB6047E03A685268501C3968486012784A
:1009900011467A6891605A1E3B689A603C23FB605E
:1009A00038E02C23FB6001E03C23FB603B68DB6804
:1009B000591C3A68D1607A689268D2B21A703B6862
:1009C0001B695A1E3B681A6101E03C23FB603B68CF
:1009D0001B69012B1EDDFB6823F00403FB6019E09B
:1009E0003B6805221A752C23FB6013E03B6801224B
:1009F0001A752C23FB600DE03B6802221A753C231C
:100A0000FB6007E03B6803221A752C23FB6001E0C2
:100A10003C23FB60FB6883F03C027B681A60FB6848
:100A200023F010027B689A61FB6803F01003002B2F
:100A300003D03B681B7D022B08D13B681B7D042B38
:100A400006D13B6800221A75002302E0012300E072
:100A5000002318461437BD465DF8047B704780B408
:100A600083B000AF03460A46FB711346BB71FA79A7
:100A7000BB79012B0BD108491346DB009B1A9B0065
:100A80000B4410331A68137DDBB2042BFBD00C37F8
:100A9000BD465DF8047B704768600810B0B584B04F
:100AA00000AF03460A46FB711346BB71FD79BB7963
:100AB000012B36D11C4A2B46DB005B1B9B001344E9
:100AC00010331C68A36801334EF6602202FB03F367
:100AD000FB6022E0FB79184600F0F2F90346002B98
:100AE00013D0FB79184600F0BEF90F4A2B46DB0005
:100AF0005B1B9B00134410331B689B6801334EF64D
:100B0000602202FB03F3FB6007E0FB68013BBB6074
:100B1000FB68002B05D0BB68FB60237DDBB2042B98
:100B2000D8D01037BD46B0BD6860081080B582B01F
:100B300000AF0346FB71FB791846FFF7FBFDFA791E
:100B400005491346DB009B1A9B000B441B686C2273
:100B50009A610837BD4680BD6860081080B582B0D4
:100B600000AF0346FB71FA7907491346DB009B1A75
:100B70009B000B441B686C229A61FB791846FFF7B7
:100B8000EFFD0837BD4680BD6860081080B584B0B1
:100B900000AF03463960FB71FB791846FFF7F6FD9D
:100BA00002463B68B2FBF3F3FB60FA79084913464F
:100BB000DB009B1A9B000B441B68FA6852081A6101
:100BC0001A69F9688A1A5A611037BD4680BD00BF9C
:100BD0006860081080B483B000AF03463960FB71D1
:100BE000FA7913491346DB009B1A9B000B44103320
:100BF0001B68002B08D10E491346DB009B1A9B0093
:100C00000B4408333968196009491346DB009B1A05
:100C10009B000B4408331A683B689A420CBF0123BF
:100C20000023DBB218460C37BD465DF8047B7047E5
:100C30006860081090B585B000AF03463960FB715D
:100C4000FC79414A2346DB001B1B9B0013440833FD
:100C50001B68FA791046032198473B6804221A75ED
:100C6000394A2346DB001B1B9B00134410333A68B0
:100C70001A60354A2346DB001B1B9B0013441033CC
:100C80005B68002B0AD1304A2346DB001B1B9B000C
:100C900013441B682C229A6160221A602A4A234658
:100CA000DB001B1B9B00134408331B68FA791046BA
:100CB00001219847244A2346DB001B1B9B00134459
:100CC000103300221A603B689B6801334EF66022A5
:100CD00002FB03F3FB6007E0FB68013BBB60FB68C2
:100CE000002B2CD0BB68FB60174A2346DB001B1B84
:100CF0009B0013441B681A6802F01002002AEBD113
:100D000011492246D200121B92000A44183212687E
:100D100002F47F42002A03D028229A6144221A60FA
:100D2000094A2346DB001B1B9B00134408331B6846
:100D3000FA791046042198473B681B7D00E00323A5
:100D400018461437BD4690BD6860081090B58BB04A
:100D500000AF3A601A460346FB710B46BB7113465F
:100D60007B7107F1080300221A60043300221A6025
:100D7000043300221A60043300221A600433002274
:100D80001A60043300221A600433BB793B723B685B
:100D9000FB607C793C61631C4EF6602202FB03F32E
:100DA0007B6207E07B6A013B3B627B6A002B0BD0D6
:100DB0003B6A7B62FA7907F1080310461946FFF790
:100DC00039FF0346022BEDD03B69E31A18462C3756
:100DD000BD4690BD80B58AB000AF3B600346FB7155
:100DE0000B46BB7113467B7107F1080300221A60A2
:100DF000043300221A60043300221A6004330022F4
:100E00001A60043300221A60043300221A6004338B
:100E1000BB793B727B1DFB6001233B613B687B61BF
:100E20003B6BBB613B6B01334EF6602202FB03F36D
:100E30007B6207E07B6A013B3B627B6A002B0BD045
:100E40003B6A7B62FA7907F1080310461946FFF7FF
:100E5000F1FE0346022BEDD0BB693A6BD31A18465C
:100E60002837BD4680BD90B583B000AF0346FB7107
:100E7000FC79124A2346DB001B1B9B0013441968B4
:100E80000E4A2346DB001B1B9B00134410331B68D8
:100E900008461946FFF792FC0346002B0BD1074A80
:100EA0002346DB001B1B9B00134408331B68FA79A5
:100EB0001046022198470C37BD4690BD6860081067
:100EC00080B483B000AF0346FB71FA790A49134638
:100ED000DB009B1A9B000B441B681B6803F0080394
:100EE000002B14BF01230023DBB218460C37BD468C
:100EF0005DF8047B704700BF6860081080B582B061
:100F000000AF78603960044B1B687868396898478F
:100F10000837BD4680BD00BF0001401080B58AB0D3
:100F200000AF39237B6107F114023B1D10461946BF
:100F3000FFF7E4FF7B68DBB218462837BD4680BD6B
:100F400080B582B000AF184B1B68184A13601A684E
:100F50007A605A681146164A11609A681146154A15
:100F60001160DA681146144A11601A6A1146134A70
:100F700011605A6A1146124A11609A6A1146114A62
:100F80001160DA6A1146104A11601A6B11460F4A55
:100F900011605B6B1A460E4B1A607B6898470346DC
:100FA00018460837BD4680BD040140109C700810EB
:100FB000A0700810A4700810A8700810AC70081079
:100FC000B0700810B4700810B8700810BC70081029
:100FD000C070081080B485B000AF0346FB71FB7988
:100FE0005B09DBB29A00094B1344FB60FB7903F009
:100FF0001F03DBB21A46012393401A46FB681A60AE
:101000001437BD465DF8047B704700BF00310540D2
:1010100080B485B000AF0346FB71FB795B09DBB29E
:101020009A00054B1344FB60FB6800221A601437DA
:10103000BD465DF8047B70470031054080B582B045
:1010400000AF7860A020012101220123FFF789F978
:101050007B684FF0FF321A607B6800225A607B6821
:101060000C229A607B680022DA600837BD4680BD9A
:1010700080B582B000AF7860FFF7D0F978680021C2
:1010800000F047F87868002100F087F8786800F0F1
:101090001FF87B6803221A607B681B68002BFBD15A
:1010A0007B680022DA607B68FF221A617B6800227D
:1010B0001A640837BD4680BD80B483B000AF786045
:1010C0007B6800229A600C37BD465DF8047B704750
:1010D00080B483B000AF78607B689B6843F0020205
:1010E0007B689A607B689B6803F00203002BF3D057
:1010F0007B689B6803F011027B689A607B689B6841
:1011000003F00203002BF3D10C37BD465DF8047BDE
:10111000704780B582B000AF78600B46FB70FB78FB
:10112000012B03D1786800F04EF805E07B689B68DE
:1011300003F012027B689A600837BD4680BD80B418
:1011400085B000AF786039607B689B68BB60BB6826
:1011500003F00103002B07D0BB6803F012027B6889
:101160009A600023FB730DE00023FB730AE0FB7B16
:101170003A6852F823107A68083342F82310FB7B50
:101180000133FB73FB7B072BF1D97B68BA689A604C
:101190001437BD465DF8047B704780B582B000AF60
:1011A00078600B46FB70FB78012B03D1786800F068
:1011B0001FF805E07B689B6843F010027B689A602B
:1011C0000837BD4680BD80B483B000AF78607B68CF
:1011D0009B6843F001027B689A607B689B6803F020
:1011E0000103002BF3D00C37BD465DF8047B70473C
:1011F00080B483B000AF78607B689B6803F0030223
:101200007B689A607B689B6803F01003002BF3D126
:101210000C37BD465DF8047B704780B582B000AFE7
:1012200003463960FB711346BB71FB79062B01D174
:1012300001F032FBFB79042019460122002301F062
:101240008FFD3B68104A93420CD9FB7918460F4931
:101250000D4A0D4B01F056FB042009210122002309
:1012600001F07EFD0A4B1B68FA79104619463A6870
:101270003B6801F047FBBB79002B01D000F00AF876
:101280000837BD4680BD00BF80778E06001BB700C3
:10129000E499011A90B583B000AF00237B6018E099
:1012A0000F4A7B6812F823000D4A7B689B001344A9
:1012B00059780B4A7B689B0013449C78084A7B68EA
:1012C0009B001344DB78224601F04AFD7B68013322
:1012D0007B607B68112BE3D90C37BD4690BD00BF06
:1012E0009C99011A80B485B000AF78607B680F4A82
:1012F00093420AD07B680E4A934209D07B680D4A1C
:10130000934208D08423FB8107E0A423FB8104E0FF
:10131000A323FB8101E08523FB81FB899BB2184657
:101320001437BD465DF8047B704700BF00400C4099
:1013300000300C400050084080B582B000AF7860AB
:101340007868FFF7CFFF03461846FFF747F80837DE
:10135000BD4680BD80B582B000AF78607868FFF789
:10136000C1FF03461846FFF76DF80837BD4680BD3C
:1013700080B485B000AF78607B685B68FB607B6899
:1013800000225A607B6801229A607B6802225A60C0
:101390007B689B68002BFBD17B68FA685A60143726
:1013A000BD465DF8047B704780B485B000AF7860BF
:1013B000084611461A460346FB700B46BB7013469F
:1013C0007B7097F90130012202FA03F09A1C520057
:1013D000032191400143F9607968C86BF968C943FA
:1013E00001407868C16397F9030000FA03F31943D9
:1013F000BB78934041EA03027B68DA631437BD4649
:101400005DF8047B704780B485B000AF78607B687E
:101410000E4A93420AD07B680D4A934209D07B68FA
:101420000C4A934208D08123FB8107E0A223FB8171
:1014300004E0A123FB8101E08223FB81FB899BB2B5
:1014400018461437BD465DF8047B704700200C40F9
:1014500000100C400020084080B584B000AF7860D8
:101460007868FFF7D0FF03461846012101220123C7
:10147000FEF777FF7B6807229A607B680022DA65B7
:101480007B6800225A607B680022DA607B68002259
:101490001A627B680022DA647B6800225A657B68E6
:1014A00000221A657B68094A934205D17B680022B5
:1014B0001A617B689B69FB607B680322DA607B684A
:1014C00010229A621037BD4680BD00BF0020084040
:1014D00080B582B000AF78607B680022DA657868FA
:1014E000FFF791FF03461846FEF7ACFF0837BD46ED
:1014F00080BD2DE9B04F90B000AF7860396078685A
:10150000FFF781FF03461846FEF7BCFFF8614FF076
:10151000FF33BB6201233B6300237B630123BB6377
:101520000023FB636AE0FB691A464FF000031D07C6
:1015300045EA121514073B6B1A464FF0000302FBF5
:1015400005F004FB03F10144A4FB022319440B46FC
:10155000386BF96A0144386800FB01F18A464FF0A4
:10156000000B1046194652465B4617F095FB0246A3
:101570000B46C7E904233B697B62D7E904239846FD
:101580004FF0000943463B623B69002B05DA7B6A5A
:101590005B427B623B6A01333B62BA6A7B6A9A4276
:1015A00018D33B6A002B15D03B6A1B0C002B11D1C2
:1015B0003B6A022B02D8FB6A002B0BD17B6A002B03
:1015C00011D07B6ABB62FB6A7B633B6BBB633B6A8C
:1015D000FB6300E000BFFB6A0133FB62FA6A3B6B0E
:1015E0009A42A0D307E07B6ABB62FB6A7B633B6BDA
:1015F000BB633B6AFB633B6B01333B63BB6A002B02
:101600000BD03B6B0F2B08D87B6BFB6000237B63FD
:101610007B6BFB62FB687B63E0E7FB6B002B2BD0F3
:101620007B68DB6843F080027B68DA60FB6B190A39
:10163000FB6BDAB27B681A60CAB27B685A607B685F
:10164000DB6823F080027B68DA60BB6B1B01DAB2D7
:101650007B6B03F00F031A437B689A62FB691B09DB
:10166000BA6B02FB03F2B96B7B6B0B44F96B01FBAA
:1016700003F3B2FBF3F300E0002318464037BD4606
:10168000BDE8B08F80B584B000AF0346FB71FB7935
:10169000002B02D00123FB7301E00023FB730D4BF1
:1016A0005B6819780B4B1B685A7C07F10F030846DF
:1016B0001146012208F070FA0346002B04D1FA7B90
:1016C000044B5A74002301E04FF0FF3318461037E3
:1016D000BD4680BD3060081080B584B000AF0346C1
:1016E000FB80012002F09CF920233B73FB88012B37
:1016F00005D100237B73052001F0CEFD16E0FB88A9
:10170000052B05D801237B73052001F0C5FD0DE0F5
:10171000FB88142B05D802237B730A2001F0BCFD43
:1017200004E003237B73142001F0B6FD7B7B9B0157
:10173000DBB243F00703DBB2DBB27B73114B5B68B8
:101740001978104B1B685A7D07F10C0308461146A7
:10175000022208F021FA0346002B0DD1094B082282
:101760009A72084B00221A73064B01221A75002048
:1017700001F0B2FE002301E04FF0FF3318461037AE
:10178000BD4680BD3060081080B588B000AF03460C
:101790000A46FB801346BB80FB881B0A9BB2DBB268
:1017A0003B73FB88DBB27B730F4B5B6819780E4B86
:1017B0001B685A7F07F10C0308461146022208F005
:1017C000EBF90346002B08D1074B012283F82520B3
:1017D000054ABB88D384002301E04FF0FF3318464D
:1017E0002037BD4680BD00BF3060081080B582B094
:1017F00000AF002003F090FB0B4B1B7CFB710A4BEE
:101800005B681A78FB1D10462321012208F0C4F9F9
:10181000054B002283F8242001F0F0FA002318463B
:101820000837BD4680BD00BF3060081080B500AFEE
:1018300040F6F63004494FF48062C82302F0E2F922
:101840000346184680BD00BF308D011A80B588B0B0
:1018500000AF0346FB806A4A07F1140311889278AF
:1018600019809A70674A07F11003118892781980DD
:101870009A70654A07F10C031188927819809A7062
:10188000624A07F108031188927819809A70FB88E0
:1018900003F003039BB2194607F120030B4413F82E
:1018A0000C3C3B77FB88DB089BB203F003039BB245
:1018B0001A4607F12003134413F80C3C7B77FB888E
:1018C0009B099BB203F003039BB207F1200018446D
:1018D00010F80C0CB87707F12000014411F8101C27
:1018E000397607F120010A4412F8102C7A7607F1B4
:1018F0002002134413F8103CBB7607F11C0340F29E
:10190000264003211A4602F0D1F80346002B67D186
:1019100007F1180340F22A4003211A4602F0C6F8E4
:101920000346002B5FD107F11C0207F10C031046A0
:101930001946032213F078FB07F1180207F1080398
:1019400010461946032213F06FFBFB8803F00403D3
:101950009BB2002B09D03B7F43F00103DBB23B7706
:101960003B7E43F00103DBB23B76FB8803F02003B0
:101970009BB2002B09D07B7F43F00103DBB27B7766
:101980007B7E43F00103DBB27B76FB8803F480733C
:101990009BB2002B09D0BB7F43F00103DBB2BB77C6
:1019A000BB7E43F00103DBB2BB7607F11C034FF4AF
:1019B000886003211A4602F079F80346002B15D1FE
:1019C00007F1180340F2314003211A4602F06EF885
:1019D0000346002B0DD10E4AFB88138100230AE039
:1019E0004FF0FF3307E04FF0FF3304E04FF0FF33D9
:1019F00001E04FF0FF3318462037BD4680BD00BFE1
:101A0000149A011A189A011A1C9A011A209A011A9A
:101A10008070081080B588B000AF0346FB80204A74
:101A200007F1100310685168926807C3FB88C82B40
:101A300029D8FB88C82292FBF3F39BB2013BFB83BE
:101A4000FB8B1B0A9BB2DBB23B72FB8BDBB27B7264
:101A500007F1080340F2162002211A4602F026F888
:101A60000346002B12D107F1100340F6C1200C21D0
:101A70001A4602F01BF80346002B0AD1094AFB88DC
:101A80009381002307E04FF0FF3304E04FF0FF3372
:101A900001E04FF0FF3318462037BD4680BD00BF40
:101AA000249A011A8070081080B586B000AF0346F2
:101AB0000A46FB711346BB80FB7903F00703DBB2D8
:101AC000002B00F00781BB88B3F5C86F00F20581D9
:101AD000BB8807EE903AF8EE677A9FED8E7AC7EEF4
:101AE000877AC7ED047A07F10B03184601F030FB43
:101AF000FB7A023B0E2B00F2F38001A252F823F096
:101B00003D1B001AE11C001A6F1B001AE11C001A91
:101B1000E11C001AE11C001AA11B001AE11C001AAA
:101B2000E11C001AE11C001AE11C001AE11C001A59
:101B3000E11C001AE11C001AD31B001AD7ED047A2D
:101B40009FED757A67EE877AFCEEE77AC7ED007A4B
:101B50003B88FB82D7ED047A9FED707A67EE877A37
:101B6000FCEEE77AC7ED007A3B88BB8249E0D7ED0F
:101B7000047A9FED6B7A67EE877AFCEEE77AC7ED21
:101B8000007A3B88FB82D7ED047A9FED667A67EE98
:101B9000877AFCEEE77AC7ED007A3B88BB8230E0BB
:101BA000D7ED047A9FED607A67EE877AFCEEE77AEC
:101BB000C7ED007A3B88FB82D7ED047A9FED5B7A14
:101BC00067EE877AFCEEE77AC7ED007A3B88BB8246
:101BD00017E0D7ED047A9FED567A67EE877AFCEE30
:101BE000E77AC7ED007A3B88FB82D7ED047A9FED58
:101BF000517A67EE877AFCEEE77AC7ED007A3B8888
:101C0000BB82FB8A1B0A9BB2DBB23B73FB8ADBB253
:101C10007B73BB8A1B0A9BB2DBB2BB73BB8ADBB292
:101C2000FB73FB7903F00103DBB2002B16D007F145
:101C30000C034FF4EA7002211A4601F037FF034605
:101C4000002B50D107F10C0302334FF492700221A4
:101C50001A4601F02BFF0346002B47D1FB7903F016
:101C60000203DBB2002B16D007F10C034FF4EC702B
:101C700002211A4601F01AFF0346002B39D107F161
:101C80000C0302334FF4947002211A4601F00EFF48
:101C90000346002B30D1FB7903F00403DBB2002BA9
:101CA0002DD007F10C034FF4EE7002211A4601F01B
:101CB000FDFE0346002B24D107F10C0302334FF441
:101CC000967002211A4601F0F1FE0346002B1BD14B
:101CD00000231BE04FF0FF3318E04FF0FF3315E017
:101CE0004FF0FF3312E04FF0FF330FE04FF0FF33C0
:101CF0000CE04FF0FF3309E04FF0FF3306E0002324
:101D000004E04FF0FF3301E04FF0FF33184618377F
:101D1000BD4680BD000048430000804600004046AC
:101D2000000000460000C04500008045000040451E
:101D3000000000450000C04480B584B000AF0346F9
:101D4000FB710023FB73FB7903F00103DBB2002B73
:101D500001D03023FB73FB7903F00203DBB2002BCD
:101D600004D0FB7B43F00C03DBB2FB73FB7903F085
:101D70000403DBB2002B04D0FB7B43F00303DBB294
:101D8000FB7307F10F034FF4A47001211A4601F011
:101D90008DFE034618461037BD4680BD80B584B021
:101DA00000AF0346FB71FB79002B05D0FB79042BB8
:101DB00004D90423FB7101E00123FB71FB79013B92
:101DC000DBB2FB7307F10F0340F24F1001211A46FB
:101DD00001F06CFE034618461037BD4680BD80B545
:101DE00084B000AF0346FB80FB880D4AA2FB0323AF
:101DF0009B08FB81FB891B0A9BB2DBB23B73FB890F
:101E0000DBB27B7307F10C034FF4EF7002211A462B
:101E100001F04CFE034618461037BD4680BD00BF9A
:101E2000CDCCCCCC80B584B000AF0346FB80FB8822
:101E30000C4AA2FB03239B08FB81FB891B0A9BB274
:101E4000DBB23B73FB89DBB27B7307F10C034FF40E
:101E5000ED7002211A4601F029FE0346184610379C
:101E6000BD4680BDCDCCCCCC80B584B000AF786011
:101E70000B467B807B68134A82FB03129211DB17AF
:101E8000D31A7A8802FB03F3FB60FB681B16DBB2F4
:101E90003B72FB681B14DBB27B72FB681B12DBB26C
:101EA000BB72FB68DBB2FB7207F108034FF4AE7044
:101EB00004211A4601F0FAFD034618461037BD46C4
:101EC00080BD00BFD34D621080B584B000AF034623
:101ED000FB80FB880C4AA2FB03239B08FB80FB884A
:101EE0001B0A9BB2DBB23B73FB88DBB27B7307F14F
:101EF0000C034FF4AD7002211A4601F0D7FD0346E2
:101F000018461037BD4680BDCDCCCCCC80B584B052
:101F100000AF0346FB80FB880C4AA2FB03239B080F
:101F2000FB80FB881B0A9BB2DBB23B73FB88DBB2F6
:101F30007B7307F10C034FF4AC7002211A4601F0D9
:101F4000B5FD034618461037BD4680BDCDCCCCCC80
:101F5000F0B587B000AF0346FB8002233B73CA2372
:101F60007B73E323BB730923FB7307F10C03682026
:101F700004211A4601F09AFDA3233B73FB8803F06A
:101F800040039EB2002E06D0C0237B73C823BB73D0
:101F9000C223FB7305E0A3237B73A323BB73A3239B
:101FA000FB73FB8803F4C0739CB2002C06D0C423DF
:101FB0003B74CC237B74C623BB7405E0A3233B7422
:101FC000A3237B74A323BB74A323FB74A3233B75BC
:101FD000A3237B7507F10C0340F6A7200A211A46BC
:101FE00001F064FDFB8803F003039DB2002D02D0D5
:101FF00020233B7301E0D8233B7307F10C0340F629
:10200000B62001211A4601F051FDFB8803F02003A0
:102010009BB2002B03D0012000F0BEF802E00020AC
:1020200000F0BAF8002C1ED0FB8803F480739BB23A
:10203000002B08D0B2233B738B237B73B623BB7377
:102040009B23FB7307E0B0233B7380237B73B42394
:10205000BB739023FB7307F10C0340F6A22004210D
:102060001A4601F023FDFB8803F001039BB2002B0D
:1020700025D0F8233B7307F10C034FF40B600121CB
:102080001A4601F013FD0720FA21FFF70DFD072086
:10209000FFF752FE0120FFF781FE6420FFF79FFE4D
:1020A0004FF4FA70FFF7BEFE3948C821FFF7DCFE97
:1020B0002820FFF709FF0A20FFF728FF09E0D823AF
:1020C0003B7307F10C034FF40B6001211A4601F03A
:1020D000EDFCFB8803F002039BB2002B02D0D92356
:1020E0003B7301E0D8233B7307F10C0340F23D70D2
:1020F00001211A4601F0DAFCFB8803F004039BB2CD
:10210000002B03D0012000F06BF802E0002000F06B
:1021100067F8FB8803F010039BB2002B03D001206B
:1021200000F085F802E0002000F081F8FB8843F021
:1021300008039AB2174B5A8100F060FE154B00223B
:102140009A73002E02D0134B06229A73002C05D0EE
:10215000104B9B7B0633DAB20E4B9A73FB8803F06D
:1021600014039BB2002B05D00A4B9B7B1033DAB2D1
:10217000084B9A73002D05D0064B9B7B0433DAB2D3
:10218000044B9A73002318461C37BD46F0BD00BFB0
:1021900009E3CA028070081080B586B000AF03461C
:1021A000FB71FB79002B03D000F0D2F9034610E05D
:1021B0000A4A07F10C031068516803C3127A1A70B7
:1021C00007F10C034FF4976009211A4601F06EFCE9
:1021D000034618461837BD4680BD00BF309A011A25
:1021E00080B584B000AF0346FB71FB79002B08D0AB
:1021F000C0233B73C2237B73C423BB73C623FB730F
:1022000006E007F10C0318468B21042213F00AF8AC
:1022100007F10C0340F6982004211A4601F046FC11
:1022200000F0ECFD034618461037BD4680BD80B572
:1022300084B000AF0346FB71FB79002B08D020234C
:102240003B7328237B733023BB733823FB7306E077
:1022500007F10C031846A321042212F0E3FF07F153
:102260000C0340F69E2004211A4601F01FFC00F0EA
:10227000C5FD034618461037BD4680BD80B584B005
:1022800000AF78607B68DB7823F03F02FA7303F0DD
:102290003F02BA737A68527802F00102D2B2002A81
:1022A00010D0BA7BD2087A7303F00703DBB2013394
:1022B0003B730F4B1B68002B04D0797B3A7B08469D
:1022C000114698477B685B7803F00803DBB2002B6C
:1022D00008D0074B5B68002B04D0FA7B9209D2B27E
:1022E00010469847002318461037BD4680BD00BFF2
:1022F00080700810B0B58EB000AFF860B9607A6039
:102300003B60BB6C00221A80904B9B7B9AB207F11A
:10231000100310461946FA6C01F018FA0346002B18
:1023200040F00D81894B5B8903F0140292B2002AC0
:102330005AD03A7C11067A7C12041143BA7C1202FC
:102340000A43F97C42EA01047A6814603A7D110676
:102350007A7D12041143BA7D12020A43F97D42EAE2
:1023600001007A6850603A7E11067A7E12041143A9
:10237000BA7E12020A43F97E11437A6891603A7F6D
:1023800015067A7F12041543BA7F12022A43FD7F95
:102390002A437D68EA60241400140914121404FB13
:1023A00004F400FB00F0204401FB01F1014402FBB6
:1023B00002F20A443A633A6B02F17142B2F1007FD1
:1023C00007D900F01BFDBB6C00221A804FF0FF33D1
:1023D000B7E0BA6C128842F4807291B2BA6C118084
:1023E000102287F8372002E0002287F8372003F018
:1023F000400292B2002A45D097F8372007F1380101
:10240000114411F8281C090288B2511C07F1380444
:10241000214411F8281C89B2014388B2B9680880A8
:10242000911C07F13800014411F8281C090288B2F8
:10243000D11C07F13804214411F8281C89B201434A
:1024400088B2B9684880111D07F13800014411F8BD
:10245000281C090289B2053207F13800024412F83B
:10246000282C92B20A4391B2BA68918097F837202B
:10247000063287F83720BA6C128842F0080291B20F
:10248000BA6C118003F4C07292B2002A45D097F85A
:10249000372007F13801114411F8281C090288B2CD
:1024A000511C07F13804214411F8281C89B201435A
:1024B00088B2F9680880911C07F13800014411F8CE
:1024C000281C090288B2D11C07F13804214411F8F4
:1024D000281C89B2014388B2F9684880111D07F1B0
:1024E0003800014411F8281C090289B2053207F1AD
:1024F0003800024412F8282C92B20A4391B2FA68CA
:10250000918097F83720063287F83720BA6C128806
:1025100042F0700291B2BA6C118003F003039BB2D7
:10252000002B07D097F8373007F1100213441846F4
:10253000FFF7A4FE386805F05BFA002301E04FF0D6
:10254000FF3318463837BD46B0BD00BF8070081055
:1025500080B586B000AF094A3B461068516803C396
:10256000127A1A703B464FF4976009211A4601F01F
:102570009DFA034618461837BD4680BD3C9A011A9D
:1025800080B588B000AFF8607A601A460B46FB72DF
:102590001346BB72FB68174A934202D00323BB82E7
:1025A00001E00423BB82BB8A1846FDF76BFFB861CC
:1025B000FB7A002B05D0BA7A7B6802FB03F3FB6140
:1025C00006E07A6813469B0013445B001344FB61EA
:1025D000BB695A00FB691A44FB695B00B2FBF3F369
:1025E000DBB2013BFB75FB7DDBB218462037BD46F5
:1025F00080BD00BF00400E4080B485B000AF786061
:102600000B46FB707B681B6823F0E063FB60FB7884
:102610001A06FB681A437B681A601437BD465DF8DA
:10262000047B704780B586B000AF786039607B6806
:102630001B4A934202D00323FB8101E00423FB8168
:10264000FB891846012101220123FDF78AFE7B68E0
:102650000022DA603B68134A1A603B6800221A7154
:102660003B6800225A71786800210E4A0B23FFF75D
:1026700087FF0346FB75FB7D1B0243F400133B61A0
:102680003B681B7903F00703DBB25B041A463B6926
:1026900013433B617B683A691A601837BD4680BDB9
:1026A00000400E40801A060080B487B000AFF8608A
:1026B0000B467A60FB72FA7AFB68043253F82230D8
:1026C0007B617B69002B09DA7B699B099BB2C3F3B1
:1026D00009039AB27B681A80012300E000231846A0
:1026E0001C37BD465DF8047B704780B582B000AFF3
:1026F00078600B46FB701346BB70FB78012B0FD93B
:10270000BB78002B06D07B681B6843F000627B68B7
:102710001A6005E07B681B6823F000627B681A6022
:10272000FB7878681946FFF767FF0837BD4680BD1C
:1027300080B483B000AF78600B46FB701346BB706B
:10274000BB78012B09D17B681A68FB78012101FA5B
:1027500003F31A437B681A600FE07B681B6823F061
:10276000E0627B681A607B681A68FB78012101FAD5
:1027700003F3DB431A407B681A600C37BD465DF8F3
:10278000047B704780B582B000AF78600B46FB7069
:1027900078680021FFF730FFFB78002B06D17B68BB
:1027A0001B6823F480327B681A6005E07B681B6835
:1027B00043F480327B681A600837BD4680BD80B51F
:1027C00000AF6920FDF75EFE0246014B1A6080BD36
:1027D0009070081080B487B000AFF860B9607A607C
:1027E0003B60BB68FA6802FB03F37B617A697B6834
:1027F0009A4207D37B69084A934203D87A693B68B7
:102800009A4201D900237B617B6918461C37BD467B
:102810005DF8047B704700BF00CB280C80B485B006
:1028200000AF0346FB800023BB601C23FB731BE04F
:102830001848B9680B465B000B445B0003441B88D7
:10284000F98899420AD31348B9680B465B000B44D8
:102850005B0003445B88F988994203D9BB68013364
:10286000BB6001E01346FB73FB7B1C2B0AD10949BB
:10287000BA6813465B0013445B000B441A79FB7B78
:102880009342D5D1FB7BDBB218461437BD465DF8C9
:10289000047B70472899011A80B485B000AF4FF4CB
:1028A0007A737B60144B9B69FB60FB6823F0020327
:1028B000BB60114B9B69BA689A4202D00E4ABB6852
:1028C0009361FB6823F00303FB600C4B1B680C4A0D
:1028D000934203D9FB6843F00403FB60064AFB689C
:1028E00093617B685A1E7A60002BFAD11437BD467B
:1028F0005DF8047B704700BF00000540E499011AB1
:10290000FF2C310180B58CB000AFB9607A603B60BC
:102910000346FB73FB7B184600F07EF978627B6808
:10292000B3F1FF3F4BD07A687B6AB2FBF3F33B62B3
:10293000786A396ABA683B68FFF74CFFF8613B6A0E
:102940000133BB61786AB969BA683B68FFF742FF37
:102950007861FB69002B09D07B69002B06D1FB7BDA
:102960001846396A00F05AF8034653E0FB69002B19
:1029700009D17B69002B06D0FB7B1846B96900F0B2
:102980004DF8034646E0FB69002B18D07B69002B0D
:1029900015D07A68FB69D21A79697B68CB1A9A429A
:1029A00006D9FB7B1846396A00F038F8034631E057
:1029B000FB7B1846B96900F031F803462AE0BA6893
:1029C0007B6AB2FBF3F3FB623A687B6AB2FBF3F318
:1029D0003B610023BB62786AF96ABA683B68FFF71B
:1029E000F9FEF861FB69002B01D0FB6ABB62FA6A51
:1029F0003B699A4203D2FB6A0133FB62EBE7BB6A95
:102A0000002B06D0FB7B1846B96A00F007F8034696
:102A100000E0002318463037BD4680BD80B588B041
:102A200000AF03463960FB71FA23BB60FB7918469F
:102A300000F0F2F838612D4B5B6C7B613B693A68C2
:102A400002FB03F33B613B68013BFB607B6923F0C6
:102A5000F8537B61FB791B061A467B6913437B6144
:102A60007A69234B13407B613B69224A93421DD80C
:102A70000123BB610023FB6105E0FB690133FB61BE
:102A8000BB695B00BB61BB693A6902FB03F35B0096
:102A9000184A9342F1D9FB681A04FB691B021A43D6
:102AA0007B69134343F040037B610FE03B69124AAB
:102AB000934207D8FB681A047B69134343F0C003B1
:102AC0007B6103E000F07AF800230AE07B6923F0E1
:102AD0000103064A5364BB685A1EBA60002BFAD140
:102AE0003B6918462037BD4680BD00BF0000054049
:102AF0003DCC00FFFF5E4C09FFCF121380B58CB0B8
:102B000000AF2C4B5B6CFB62FB6A1B0EDBB203F06D
:102B10000F03DBB2184600F07FF8B862264A3B1D6F
:102B200010681860234B1B6C03F00103002B3CD092
:102B3000FB6A1B0CDBB27B62FB6A1B0B03F003031B
:102B40003B62FB6A1B0A03F00303FB61FB6ADB09C0
:102B500003F00103BB61FB6A9B0903F001037B6186
:102B60007B6A01333B613B6A0133FB603A1DFB69C1
:102B700013441B78BB60BB69002B02D17B69002B1F
:102B800007D0BA6AFB68B2FBF3F33A6902FB03F3BE
:102B90000CE0BB685B003A69B2FBF3F3B96AFA6810
:102BA000B1FBF2F202FB03F300E0002318463037DA
:102BB000BD4680BD00000540489A011A80B400AFB0
:102BC000044B5B6C43F00103024A5364BD465DF85D
:102BD000047B70470000054080B485B000AF034619
:102BE000FB71FB790B4A123352F82330FB60FB6810
:102BF00003F00103002B06D1FB681B0EDBB203F0D0
:102C00001F03DBB200E0112318461437BD465DF800
:102C1000047B70470000054080B584B000AF0346D8
:102C2000FB71FB79102B6DD801A252F823F000BF85
:102C3000752C001A7D2C001A832C001A972C001A70
:102C4000AB2C001A052D001AB32C001ABB2C001A4D
:102C5000C32C001ACB2C001A052D001A052D001AC2
:102C6000D32C001ADD2C001AE72C001AF12C001AC4
:102C7000FB2C001A4FF40043FB604BE0284BFB6039
:102C800048E0284BD3F82C3103F00703042B3CD049
:102C9000254BFB603EE0234BD3F82C3103F00703B8
:102CA000042B35D1214BFB6034E0214B1B68FB60CA
:102CB00030E0204B1B68FB602CE01F4B1B68FB6067
:102CC00028E01D4B5B68FB6024E0FFF717FFF8600E
:102CD00020E00020FDF734FCF8601BE00120FDF748
:102CE0002FFCF86016E00220FDF72AFCF86011E0E6
:102CF0000320FDF725FCF8600CE00420FDF720FC24
:102D0000F86007E00023FB6004E00023FB6001E0C3
:102D1000054BFB60FB6818461037BD4680BD00BF01
:102D2000001BB7000030044040787D0180F0FA02BB
:102D3000D48C011AE499011A9470081080B582B0FD
:102D400000AF0346FB71FB791846FDF7F7FA03461F
:102D50001846FFF761FF034618460837BD4680BD99
:102D600090B484B000AF0446084611461A46234684
:102D7000FB710346BB710B467B7113463B71FA79BD
:102D80001C4902F116039B000B445B68FB60FB7956
:102D90001B2B22D8BB79112B28D0F968164B0B407E
:102DA000FB607B79002B03D0FB6843F40063FB607E
:102DB0003B79002B03D0FB6843F00103FB60BB7938
:102DC0001B061946FB680B43FB600A4902F1160318
:102DD0009B000B44FA685A6008E0FB6843F001016D
:102DE000044802F116039B00034459601037BD46A6
:102DF00090BC704700000540FEF7FFE080B582B050
:102E000000AF8D4B9B7A002B00F0EF800023FB710D
:102E1000894B5B681978884B1B685A7CFB1D0846F8
:102E20001146012206F0B8FE0346002B40F0E08078
:102E3000814B5B681978804B1B685A79FB1D0846EB
:102E40001146012206F0A8FE0346002B40F0D38075
:102E5000794B5B681978784B1B681A79FB1D08461B
:102E60001146012206F098FE0346002B40F0C68072
:102E7000714B93F82430002B5BD00C23FB716E4B0D
:102E80005B6819786C4B1B681A79FB1D0846114664
:102E9000012206F081FE0346002B40F0B280322072
:102EA00004F074FDC023FB71634B9B7A03F00103B4
:102EB000DBB2002B01D0E023FB715F4B5B6819781C
:102EC0005D4B1B681A79FB1D08461146012206F06E
:102ED00063FE0346002B40F09780574B5B7C002B32
:102EE00002D00223FB7101E00023FB71524B5B68AF
:102EF0001978514B1B685A7CFB1D0846114601226C
:102F000006F04AFE0346002B40F081800023FB714F
:102F1000494B5B681978484B1B685A79FB1D08467A
:102F20001146012206F038FE0346002B72D1002321
:102F30007EE00423FB71404B5B6819783E4B1B68B5
:102F40001A79FB1D08461146012206F025FE0346AC
:102F5000002B62D1384B9B7C002B06D1364B9B7AE1
:102F600003F00103DBB2002B02D14023FB7101E02F
:102F70006023FB71304B5B6819782F4B1B681A7903
:102F8000FB1D08461146012206F006FE0346002BF3
:102F900046D1322004F0FAFC274B5B7C002B02D098
:102FA0000123FB7101E00023FB71234B5B6819785F
:102FB000214B1B685A7CFB1D08461146012206F076
:102FC000EBFD0346002B2ED11B4B5B681A781A4B86
:102FD0001B685B79104619460122184B06F0DCFD90
:102FE0000346002B22D1002322E04FF0FF331FE0E5
:102FF0004FF0FF331CE04FF0FF3319E04FF0FF3389
:1030000016E04FF0FF3313E04FF0FF3310E04FF0C6
:10301000FF330DE04FF0FF330AE04FF0FF3307E0DE
:103020004FF0FF3304E04FF0FF3301E04FF0FF3388
:1030300018460837BD4680BD306008104060081053
:1030400080B483B000AF7860164B1B7A032B1ED878
:1030500001A252F823F000BF6930001A7130001A43
:103060007B30001A8530001A7B68FA221A8011E042
:103070007B684FF4FA721A800CE07B684FF47A7226
:103080001A8007E07B684FF4FA621A8002E07B68DE
:1030900000221A80002318460C37BD465DF8047BD9
:1030A000704700BF3060081080B584B000AF0346A1
:1030B000FB80264B9B7A002B39D0FB88B3F5FA7F37
:1030C0000FD0B3F5FA7F02D8FA2B07D032E0B3F570
:1030D0007A7F09D0B3F5FA6F09D02BE00023FB7398
:1030E00007E00823FB7304E01023FB7301E01823BF
:1030F000FB73164B1A7AFB7BDB08DBB29A421CD0BF
:10310000124B5B681978114B1B689A7907F10F0312
:1031100008461146012206F03FFD0346002B0ED162
:10312000FB7BDB08DAB2094B1A72002309E04FF08F
:10313000FF3306E04FF0FF3303E0002301E04FF0E0
:10314000FF3318461037BD4680BD00BF3060081001
:1031500080B483B000AF78601A4B5B7A032B26D81B
:1031600001A252F823F000BF7931001A8131001A10
:103170008931001A9131001A7B6802221A700AE024
:103180007B6804221A7006E07B6808221A7002E04D
:103190007B6810221A700B4BDB7C002B0AD07B68FB
:1031A0001B785B00DAB27B681A70002303E04FF0F3
:1031B000FF3300E0002318460C37BD465DF8047B62
:1031C000704700BF3060081080B584B000AF034680
:1031D000FB71304B9B7A002B4DD0FB79023B0E2BC1
:1031E0004CD801A252F823F02532001A7D32001A81
:1031F0002B32001A7D32001A7D32001A7D32001AFD
:103200003132001A7D32001A7D32001A7D32001AE6
:103210007D32001A7D32001A7D32001A7D32001A8A
:103220003732001A0023FB7307E00823FB7304E026
:103230001023FB7301E01823FB73164B5A7AFB7BB8
:10324000DB08DBB29A421CD0124B5B681978114B39
:103250001B68DA7907F10F0308461146012206F0D0
:103260009BFC0346002B0ED1FB7BDB08DAB2094B3B
:103270005A72002309E04FF0FF3306E04FF0FF33AE
:1032800003E0002301E04FF0FF3318461037BD463E
:1032900080BD00BF3060081080B584B000AF034629
:1032A000FB80244B9B7A002B39D0FB88BB2B02D9A7
:1032B0000123FB7319E0FB88612B02D90223FB7306
:1032C00013E0FB88292B02D90323FB730DE0FB8855
:1032D000132B02D90423FB7307E0FB88092B02D9C7
:1032E0000523FB7301E00623FB73124BDA7AFB7BA9
:1032F0009A4217D00F4B5B6819780E4B1B689A786F
:1033000007F10F0308461146012206F045FC03466B
:10331000002B09D1FA7B074BDA72002306E04FF04D
:10332000FF3303E0002301E04FF0FF33184610376E
:10333000BD4680BD3060081080B483B000AF7860B7
:10334000094B93F82430002B05D1074BDA897B68B1
:103350001A80002301E04FF0FF3318460C37BD46BA
:103360005DF8047B704700BF3060081080B584B002
:1033700000AF0346FB80344B9B7A002B57D0324B77
:1033800093F82430002B55D12F4B1B7D002B0DD0F3
:10339000FB88013B9BB2272B05D8FB88184601F020
:1033A000B5FE00234BE0002001F0B0FEFB88032BAC
:1033B00007D9FB88B3F57A7F05D94FF47A73FB8080
:1033C00001E00423FB80FB884FF47A7292FBF3F355
:1033D000DBB2013BDBB2FB731B4B5B6819781A4B0A
:1033E0001B685A7807F10F0308461146012206F0C0
:1033F000D3FB0346002B20D1FB7B01334FF47A72C1
:1034000092FBF3F39AB2104BDA810F4B1B8D642BB6
:1034100028BF64239BB2184600F018F80A4BDB89DA
:103420005B089BB21846FFF737FF002307E04FF019
:10343000FF3304E04FF0FF3301E04FF0FF33184655
:103440001037BD4680BD00BF3060081080B584B025
:1034500000AF0346FB80FB88002B2CD01D4BDB8983
:10346000FA889A422AD8FA88642A2AD8FA88B3FBBA
:10347000F2F39BB2DBB2013BDBB2FB73154B5B6833
:103480001978144B1B6893F8242007F10F030846A2
:103490001146012206F080FB0346002B14D10D4B90
:1034A000DB891A46FB7B013392FBF3F39AB2094B9B
:1034B0001A8500230AE04FF0FF3307E04FF0FF3397
:1034C00004E04FF0FF3301E04FF0FF3318461037B0
:1034D000BD4680BD3060081080B584B000AF0346A3
:1034E000FB71FB7923F00103FB71214B93F824302E
:1034F000002B31D11E4B9B7A002B2FD01C4A127C03
:10350000FA72FA791340DBB2194A19461174FA7942
:103510009A4202D10023FB6002E04FF0FF33FB60D0
:10352000FB79002B03D1124B1B7D002B03D0012014
:1035300001F0F2FC02E0002001F0EEFCFB79002B30
:103540000FD0FFF75BFC0346002B0CD0084AFB7A38
:1035500013744FF0FF3307E0002305E04FF0FF3313
:1035600002E0FB6800E0FB6818461037BD4680BDEE
:103570003060081080B584B000AF0346FB71FB7962
:1035800003F07003DBB2002B02D00123FB7307E0D2
:10359000FB79002B02D00023FB7301E04023FB7377
:1035A000694B5B681978684B1B685A7D07F10F03FC
:1035B00008461146012206F0EFFA0346002B05D01B
:1035C000614B00229A724FF0FF33B8E0FB7B23F08F
:1035D0004003DAB25C4B1A730023FB73FB7903F0F0
:1035E0004003DBB2002B01D10423FB73FB7903F012
:1035F0002003DBB2002B04D1FB7B43F00203DBB2E0
:10360000FB73FB7903F01003DBB2002B04D1FB7BCF
:1036100043F00103DBB2FB73FB7903F00803DBB279
:10362000002B04D1FB7B43F03803DBB2FB73464B2A
:103630005B681978444B1B689A7D07F10F030846B5
:103640001146012206F0A8FA0346002B05D03E4B96
:1036500000229A724FF0FF3371E0FB79002B05D006
:10366000FB79082B02D0002000F0DAF9364B5B68BA
:103670001978354B1B681A7907F10E030846114675
:10368000012206F0B7FA0346002B50D1FB7903F074
:103690000103DBB2002B07D00123FB73BB7B43F09C
:1036A0002003DBB2BB7306E00023FB73BB7B23F07C
:1036B0002003DBB2BB73244B93F82430002B05D0DE
:1036C000BB7B63F07F03DBB2BB7304E0BB7B03F027
:1036D0007F03DBB2BB731C4B5B6819781A4B1B680A
:1036E00093F8262007F10F0308461146012206F041
:1036F00053FA0346002B1DD1134B5B681978124B0C
:103700001B681A7907F10E0308461146012206F0DC
:1037100043FA0346002B10D10B4AFB7993720A4BF4
:1037200000221A75322004F031F9002307E04FF02F
:10373000FF3304E04FF0FF3301E04FF0FF33184652
:103740001037BD4680BD00BF3060081080B586B020
:1037500000AF0346B9607A60FB813D4B93F824309B
:10376000002B63D03A4B9B7A002B62D0384B5B68BE
:103770001978374B1B681A7B07F11403084611466A
:10378000022206F037FA0346002B55D13B7D1B027F
:103790009AB27B7D9BB213439BB2FB82FA8AFB8970
:1037A0009A4205D27B6800221A704FF0FF334BE03B
:1037B000274B5B685A88520892B2F98A914218D90D
:1037C0001978234B1B68DA7C07F11403084611466D
:1037D000012206F00FFA0346002B30D13B7D03F0A7
:1037E0001003DBB2002B04D0FFF708FB6FF00103DE
:1037F0002AE0174B5B681978154B1B685A7BFB89CD
:10380000DBB2084611461A46BB6806F0F3F90346D8
:10381000002B17D1FA8AFB89B2FBF3F39BB2DBB220
:10382000013BDAB27B681A7000230DE04FF0FF33E2
:103830000AE04FF0FF3307E04FF0FF3304E04FF0B2
:10384000FF3301E04FF0FF3318461837BD4680BD07
:103850003060081080B584B000AF0346FB71664B42
:103860009B7CFA799A4200F0AF80FB79002B4DD017
:10387000614B5B681978604B1B681A7907F10F037D
:1038800008461146012206F0B5F90346002B40F028
:103890009D80FB7B23F02003DBB2FB73564B5B6800
:1038A0001978554B1B681A7907F10F030846114622
:1038B000012206F071F90346002B40F08A800320B4
:1038C00004F064F80223FB734B4B93F82230002B77
:1038D00001D08223FB73484B93F82330002B04D094
:1038E000FB7B43F03003DBB2FB73434B5B6819781F
:1038F000414B1B68DA7D07F10F0308461146012290
:1039000006F04AF90346002B59D065E03A4B5B6854
:103910001978394B1B681A7907F10F0308461146CD
:10392000012206F067F90346002B58D1324B9B7AEF
:1039300003F00103DBB2002B05D0FB7B43F0200337
:10394000DBB2FB7304E0FB7B23F02003DBB2FB73F1
:10395000294B5B681978284B1B681A7907F10F030C
:1039600008461146012206F017F90346002B39D10B
:10397000032004F00BF8204B93F82230002B02D0E8
:103980008023FB7301E00023FB731B4B93F8233070
:10399000002B04D0FB7B43F03003DBB2FB73164BF0
:1039A0005B681978144B1B68DA7D07F10F03084632
:1039B0001146012206F0F0F80346002B15D10E4AFD
:1039C000FB799374002312E0002310E04FF0FF33E3
:1039D0000DE04FF0FF330AE04FF0FF3307E04FF008
:1039E000FF3304E04FF0FF3301E04FF0FF331846A0
:1039F0001037BD4680BD00BF3060081080B483B072
:103A000000AF0346FB71054AFB7982F822300023A0
:103A100018460C37BD465DF8047B704730600810CF
:103A200080B584B000AF0346FB711F4B93F8233081
:103A3000FA799A4230D0FB79002B02D03023FB7305
:103A400001E00023FB73184B9B7C002B04D0FB7B15
:103A500043F00203DBB2FB73134B93F82230002BCD
:103A600004D0FB7B63F07F03DBB2FB730E4B5B6820
:103A700019780D4B1B68DA7D07F10F0308461146D4
:103A8000012206F089F80346002B07D1064AFB798C
:103A900082F82330002303E0002301E04FF0FF33DE
:103AA00018461037BD4680BD3060081080B584B020
:103AB00000AF03463A60FB800B46BB803B68002B9F
:103AC00035D0244B9B7A002B34D0FB881B0A9BB249
:103AD000DBB23B73FB88DBB21A467A731A46BB88AB
:103AE0001A441C4B5B6859898A4226DC1978194BA9
:103AF0001B68DA7E07F10C0308461146022206F025
:103B00004BF80346002B1BD1124B5B681978114B05
:103B10001B681A7EBB88DBB2084611461A463B6812
:103B200006F03AF80346002B0DD100230DE04FF0CC
:103B3000FF330AE04FF0FF3307E04FF0FF3304E0BC
:103B40004FF0FF3301E04FF0FF3318461037BD460A
:103B500080BD00BF3060081080B584B000AF034660
:103B60003A60FB800B46BB803B68002B35D0244B72
:103B70009B7A002B34D0FB881B0A9BB2DBB23B73D1
:103B8000FB88DBB21A467A731A46BB881A441C4B70
:103B90005B6859898A4226DC1978194B1B68DA7EE2
:103BA00007F10C0308461146022205F0F5FF034613
:103BB000002B1BD1124B5B681978114B1B681A7EC6
:103BC000BB88DBB2084611461A463B6806F012F87D
:103BD0000346002B0DD100230DE04FF0FF330AE028
:103BE0004FF0FF3307E04FF0FF3304E04FF0FF33B7
:103BF00001E04FF0FF3318461037BD4680BD00BFCF
:103C000030600810B0B58AB000AFB96011461A46EE
:103C10000346FB810B46BB811346FB802C4B93F87C
:103C20002530002B42D1BB68002B42D00023FB84FF
:103C300030E0FA89FB8CD31A102BA8BF10231D4645
:103C40002B46BB84FB8CBA68D418FA8CBB8C10460C
:103C500019462246FFF72AFF0346002B2CD1F98C88
:103C6000BA8C07F11403084611461A46FFF774FF91
:103C70000346002B23D1ABB21A4607F114032046AA
:103C8000194611F09FF90346002B1BD1FA8CBB8C0F
:103C90001344FB84FA8CFB899A42CAD3BA89FB8805
:103CA00010461946FDF770FD03460DE04FF0FF3357
:103CB0000AE04FF0FF3307E04FF0FF3304E04FF02E
:103CC000FF3301E06FF0010318462837BD46B0BD51
:103CD0003060081080B584B000AF0346FB711E4B06
:103CE00093F82430FA799A422DD0FB79002B26D014
:103CF000194B93F82530002B27D0002001F00CF948
:103D00000020FFF7A7FD144BDB8C1846FFF72EFBB6
:103D10000023FB73104B5B681A7807F10F03104602
:103D20002321012205F038FF0B4B012283F82420C8
:103D3000012001F0F1F8FFF761F8002307E0FDF73B
:103D400055FD034603E0002301E04FF0FF33184622
:103D50001037BD4680BD00BF3060081080B584B00C
:103D600000AF0120FFF776FD0C23FB7310E0FA7B18
:103D70003B1D10460021012205F03CFFB860BB68E6
:103D8000002B02D13B79482B05D0FB7B0133FB7321
:103D9000FB7B0F2BEBD9FB7B0F2B05D9A64804F03F
:103DA000F6F84FF0FF3343E1A44AFB7B82F82A3058
:103DB00000233B71FA7B3B1D10460A21012205F0CE
:103DC000EBFE0346002B40F00A81012003F0DEFDEC
:103DD0000F233B71994B93F82A203B1D10460A2173
:103DE000012205F0D9FE0346002B40F0FB800120A4
:103DF00003F0CCFD914B93F82A203B1D1046102177
:103E0000032205F0F7FE0346002B40F0EE803B79DD
:103E10009BB280339BB29AB2884B9A857B799BB2D6
:103E200080339BB29AB2854BDA85BB799BB28033E3
:103E30009BB29AB2814B1A8600233B717F4B93F859
:103E40002A203B1D10460A21012205F0A5FE03464B
:103E5000002B40F0CD80012003F098FD0020FFF7FB
:103E6000F9FC40233B71754B5B681978734B1B68F9
:103E70009A7E3B1D08461146012205F08DFE034641
:103E8000002B40F0B8806D4B93F82A3063F07F032D
:103E9000DBB23B71694B5B681978684B1B689A7F92
:103EA0003B1D08461146012205F076FE0346002B15
:103EB00040F0A48002233B71604B5B6819785F4B34
:103EC0001B68DA7F3B1D08461146012205F064FE9F
:103ED0000346002B40F0958088233B71574B5B686D
:103EE0001978564B1B6893F820203B1D0846114655
:103EF000012205F051FE0346002B40F085804F4B18
:103F000093F82A303B714D4B5B6819784B4B1B681B
:103F100093F821203B1D08461146012205F03CFE86
:103F20000346002B73D10A233B71444B5B6819781D
:103F3000424B1B6893F822203B1D08461146012284
:103F400005F02AFE0346002B64D181233B713B4BD5
:103F50005B681978394B1B6893F823203B1D084692
:103F60001146012205F018FE0346002B55D101230E
:103F70003B71324B5B681978304B1B6893F82620F5
:103F80003B1D08461146012205F006FE0346002BA4
:103F900046D103233B71294B5B681978274B1B687B
:103FA00093F827203B1D08461146012205F0F4FD39
:103FB0000346002B37D180233B71204B5B68197877
:103FC0001E4B1B6893F829203B1D08461146012211
:103FD00005F0E2FD0346002B28D1002328E04FF036
:103FE000FF3325E04FF0FF3322E04FF0FF331FE0B7
:103FF0004FF0FF331CE04FF0FF3319E04FF0FF3379
:1040000016E04FF0FF3313E04FF0FF3310E04FF0B6
:10401000FF330DE04FF0FF330AE04FF0FF3307E0CE
:104020004FF0FF3304E04FF0FF3301E04FF0FF3378
:1040300018461037BD4680BD4C9A011A30600810F2
:1040400090B587B000AF78603960404B9B7A03F041
:104050000103DBB2002B64D03C4B5B6819783B4B0F
:104060001B6893F8282007F10C0308461146082224
:1040700005F0C0FD0346002B56D13B7B03F0010346
:10408000DBB2002B53D0FB7CDAB252B2002A51DBF8
:1040900003F04003DBB2002B4FD1BB7B1B029AB273
:1040A0007B7B9BB213439AB27B68114619803B7CA1
:1040B0001B0299B2FB7B9BB20B4398B27B68014613
:1040C0005980BB7C1B0299B27B7C9BB20B4399B29B
:1040D0007B680C469C8013B21C4A928D12B202FB84
:1040E00003F31B129AB27B681A8003B2174AD28D6F
:1040F00012B202FB03F31B129AB27B685A800BB216
:10410000124A128E12B202FB03F31B129AB27B68A0
:104110009A803B68002B13D0386803F069FC0023B9
:104120000FE04FF0FF330CE04FF0FF3309E06FF08A
:10413000010306E06FF0020303E06FF0020300E00A
:10414000002318461C37BD4690BD00BF30600810E4
:1041500080B483B000AF7860054B5B689A897B6858
:104160001A80002318460C37BD465DF8047B704763
:104170003060081080B582B000AF78603960084BBD
:10418000DB6F43F00203064AD367064879681022C2
:1041900010F04AFF024A3B6853620837BD4680BDB3
:1041A000E46D0810F46D081080B582B000AF78603F
:1041B0003960084BDB6F43F00103064AD3670648BA
:1041C0007968102210F030FF024A3B68136208370A
:1041D000BD4680BDE46D0810246E081080B582B025
:1041E00000AF7860396078680549102210F01CFF34
:1041F000044B1A6A3B681A600837BD4680BD00BF91
:10420000246E0810E46D081080B400AF034B5B6FA0
:104210001846BD465DF8047B704700BFE46D08108A
:1042200080B400AF034B1B6D1846BD465DF8047BA0
:10423000704700BFE46D081080B483B000AF7860B1
:10424000064B9A6E7B681A60044B93F864301846EC
:104250000C37BD465DF8047B704700BFE46D081065
:1042600080B584B000AF0346FB71134B93F8643004
:10427000FA799A4209D1FB79022B02D100F0B0F908
:1042800017E00D4B00229A6613E00B4B00229A6652
:10429000094AFB7982F86430FB79012B02D00223B2
:1042A000FB6001E00123FB60F8680321002201F0BC
:1042B000EBFC1037BD4680BDE46D081080B582B0C0
:1042C00000AF7860786803490C2210F0ADFE083723
:1042D000BD4680BD0C6E081090B583B000AF78600D
:1042E000204B5A681F4BDB681046194601F04BFE05
:1042F00004461C4B9A681B4B1B681046194601F07C
:1043000042FE0346E21A7B681A60164B9A68154B08
:10431000DB681046194601F036FE0446114B5A6818
:10432000104B1B681046194601F02DFE0346E2189B
:104330007B685A600B4BDB681846194601F023FE78
:104340000446084B1B681846194601F01CFE03463C
:10435000234403F140427B689A60002318460C37DF
:10436000BD4690BDE46D081080B582B000AF7860A6
:1043700078680449102210F057FE002318460837C9
:10438000BD4680BDF46D081080B582B000AF786086
:104390000D4BDB6F03F00303002B0AD00B480C49D5
:1043A000094A01F03EFE084BDB6F23F00303064A87
:1043B000D36778680449102210F036FE00231846AF
:1043C0000837BD4680BD00BFE46D0810246E08109C
:1043D000F46D081080B584B000AFF860B9607A6001
:1043E000F868FFF7D1FF03F013FF02467B681A60FD
:1043F00003F0D6FE0346002B05D001F0C7FA0246B3
:10440000BB681A600DE003F0DFFE0346002B05D009
:1044100001F0B0FA0246BB681A6002E0B86800F02A
:10442000EDF81037BD4680BD80B483B000AF786032
:10443000054A7B68C2F88030002318460C37BD4619
:104440005DF8047B704700BFE46D081080B500AFD5
:1044500004484FF44871072201F060F80023184621
:1044600080BD00BF2944001A80B500AF114800216B
:10447000882210F0D7FE0F4B4FF080425A630D4B4D
:104480004FF080429A630B4B4FF08042DA63094B46
:104490004FF080421A64074B4FF080421A61054B7F
:1044A0004FF080421A60034B034AC3F88420002374
:1044B000184680BDE46D0810DB0F494080B582B01E
:1044C00000AFFFF7D1FF78607B68002B03D100F0CD
:1044D000AAF8034600E07B6818460837BD4680BD51
:1044E00080B483B000AF7860034A7B6853650C37B3
:1044F000BD465DF8047B7047E46D081080B400AFE2
:10450000034B1B6F1846BD465DF8047B704700BF28
:10451000E46D081080B483B000AF7860034A7B6814
:1045200013670C37BD465DF8047B7047E46D0810D7
:1045300080B483B000AF7860034A7B6893670C3720
:10454000BD465DF8047B7047E46D081080B400AF91
:10455000034B9B6F1846BD465DF8047B704700BF58
:10456000E46D081080B582B000AF786003487968C8
:104570000C2210F059FD0837BD4680BD3C6E081076
:1045800080B582B000AF7860786803490C2210F0E3
:104590004BFD0837BD4680BD3C6E081080B582B02B
:1045A00000AF78607B68002B04D0786800F04AF890
:1045B000034600E0162318460837BD4680BD80B587
:1045C00082B000AF78607B68002B04D0786800F080
:1045D00061F8034600E0162318460837BD4680BD43
:1045E00080B400AF044B9B6E0133034A9366BD4613
:1045F0005DF8047B704700BFE46D081080B582B0A1
:1046000000AF786003F0F2FD0346002B05D001F007
:10461000D3F902467B681A6002E07B6800221A60C8
:104620000837BD4680BD80B582B000AF044800F0B9
:10463000A9F878607B6818460837BD4680BD00BF82
:104640004D44001A80B586B000AF786078680021CC
:10465000002201F00DF907F10C031846FFF73CFEAC
:104660007B681A68FB689B13D21A7B681A607B68A8
:104670005A683B699B13D21A7B685A607B689A68B8
:104680007B699B13D21A7B689A60002318461837FF
:10469000BD4680BD80B586B000AF786007F10803E5
:1046A0001846FFF77BFF0346002B1FD10023FB7545
:1046B00017E0FB7D9B007A681A44FB7D9B0007F1A5
:1046C00018010B4453F8103C07EE903AF8EEE77AE5
:1046D0009FED097A67EE877AC2ED007AFB7D0133A0
:1046E000FB75FB7D022BE4D9002300E0162318465E
:1046F0001837BD4680BD00BF0000803780B500AFD1
:1047000003480021542210F08DFD0023184680BD7F
:104710006C6E081080B584B000AF78600023FB6039
:1047200024E01749FB689B000B4459687B68994259
:1047300019D1531EF968994211D0FB689B001049AA
:104740000B44181DFB6801339B000D490B44191DD8
:10475000FB68D31A013B9B001A4610F0FFFC00F0E7
:1047600053F8034608E0FB680133FB60044B1A680A
:10477000FB689342D5DB162318461037BD4680BD33
:104780006C6E081080B483B000AF78600A4B1B6871
:10479000132B09DC08499A000A44796851600133F7
:1047A000054A1360002300E0162318460C37BD4667
:1047B0005DF8047B704700BF6C6E081080B584B054
:1047C00000AF0023BB600023FB6011E00D4ABB6813
:1047D0009B0013445B68984778607B68002B04D08B
:1047E000FB68002B01D17B68FB60BB680133BB60B9
:1047F000044B1B68BA689A42E8DBFB68184610371E
:10480000BD4680BD6C6E081080B400AF054B1B68C0
:10481000013B044A136000231846BD465DF8047B43
:10482000704700BF6C6E081080B500AF04480021CF
:104830004FF4CC7210F0F6FC014B0C225A6080BD94
:10484000C06E081080B487B000AFF860B9607A60BD
:104850003B6000237B610EE023497A6913465B00CD
:1048600013449B000B44B0331B683A689A4232D021
:104870007B6901337B611C4B1B687A699A42EBDBD5
:10488000132B2ADC18491A4652001A4492000A4493
:10489000B03239681160796813481A4652001A44D8
:1048A00092000244A83211600F489A1CF96840F83F
:1048B00022100D4803F11602B96840F822100A4A86
:1048C00051687A680A440C3207494A600133064A43
:1048D0001360002302E0162300E0162318461C375D
:1048E000BD465DF8047B7047C06E081080B584B08B
:1048F00000AFF860B9607A60F868B9687A6800F06B
:10490000B7FF064B9B6903F04003002B01D1002346
:1049100000E0012318461037BD4680BD58700810CE
:1049200080B584B000AFF860B9607A60F868B968A3
:104930007A6800F0C1FF064B5B6903F04003002B6F
:1049400001D1002300E0012318461037BD4680BD89
:104950005870081080B584B000AFF860B9607A6014
:10496000F868B9687A6800F0D7FF064BDB6903F096
:104970004003002B01D1002300E00123184610372B
:10498000BD4680BD5870081080B584B000AFF86097
:10499000B9607A60F8680949102210F045FB074BAE
:1049A0001B69DAB2BB681A70044B5A6A7B681A60DA
:1049B000024B1B6A18461037BD4680BD5870081060
:1049C00080B58CB000AFF860B9607A60374B1B6877
:1049D0001846194601F0D7FAB862344B1A68334BBF
:1049E000DB681046194601F0CEFA78622F4B5A6800
:1049F0002E4B9B681046194601F0C5FA38622B4BC6
:104A00009B681846194601F0BEFAF8613A6A7B6A5B
:104A1000D31ABB61FA69BB6A134403F140437B615B
:104A2000BB6907EE903AB8EEE77A7B6907EE903AF9
:104A3000F8EEE77A17EE100A17EE901A11F068F9FF
:104A400007EE100ADFED1A7A67EE277A9FED197AE2
:104A5000C7EE877AC7ED0B7AD7ED0B7AF5EEC07A01
:104A6000F1EE10FA07D5D7ED0B7A9FED137A77EEBA
:104A7000877AC7ED0B7AD7ED0B7A9FED107A67EE48
:104A8000877AFDEEE77A17EE902AFB681A60074BEB
:104A90001B69DAB2BB681A70044B5A6A7B681A60E9
:104AA000024B1B6A18463037BD4680BD587008104F
:104AB00000003443DB0F49400000B443000080474E
:104AC00080B52DED048B92B000AFF860B9607A60CC
:104AD000924B1B681846194601F055FA78648F4BC3
:104AE0001A688E4B5B681046194601F04CFA386420
:104AF0008A4B1A68894B9B681046194601F043FAA5
:104B0000F863864B1A68854BDB681046194601F03E
:104B10003AFAB863814B5A68804B9B681046194635
:104B200001F031FA78637D4B5A687C4BDB681046A4
:104B3000194601F028FA3863784B9B6818461946E5
:104B400001F021FAF862754B9A68744BDB681046E5
:104B5000194601F018FAB862704BDB68184619461E
:104B600001F011FA78627A6BBB6BD31A3B62FA6A76
:104B70007B6C134403F14043FB613B6A07EE903AC0
:104B8000F8EEE78AFB6907EE903AB8EEE78A18EE8E
:104B9000900A18EE101A11F0BBF8034607EE903A8F
:104BA000F1EE677A9FED5E7A67EE877A9FED5D7A28
:104BB00087EE879ABA6A3B6C1344BB61BB6907EE08
:104BC000903AF8EEE79A28EEA87A68EE087A77EE3F
:104BD000277A17EE900A11F09DF8034619EE900A15
:104BE000194611F095F807EE100ADFED4D7A67EEE1
:104BF000277A9FED4C7AC7EE877A7A6A7B6C1344EA
:104C0000B3F1804F12DAF5EEC07AF1EE10FA06DB5E
:104C10009FED437A77EE677AC7ED047A08E09FED5F
:104C2000427A77EE677AC7ED047A01E0C7ED047A3D
:104C300003F1404307EE903AB8EEE77A3A6BFB6B2C
:104C4000D31A07EE903AF8EEE77A17EE100A17EE4D
:104C5000901A11F05DF807EE100ADFED317A67EE79
:104C6000277A9FED307AC7EE877A9FED307A77EE1C
:104C7000C77A9FED2E7AF4EEC77AF1EE10FA06DBD2
:104C80009FED277A77EE677AC7ED057A01E0C7EDE9
:104C9000057AD7ED057A9FED267AF4EEC77AF1EE24
:104CA00010FA07D59FED207AD7ED057A77EE677A6F
:104CB000C7ED057AD7ED047A9FED1E7A67EE877A05
:104CC000FDEEE77A17EE902AFB681A60D7ED057AB9
:104CD0009FED187A67EE877AFDEEE77A17EE902A55
:104CE000FB685A60DFED137A69EE277AFDEEE77A0A
:104CF00017EE902AFB689A60084B1B69DAB2BB6812
:104D00001A70064B5A6A7B681A60044B1B6A184675
:104D10004837BD46BDEC048B80BD00BF58700810FD
:104D200000003443DB0F4940000034C30000B442AC
:104D30000000B4C20000804780B584B000AFF860C6
:104D4000B9607A600948F96801F0F6FE074B1B6903
:104D5000DAB2BB681A70054B5A6A7B681A60034B5B
:104D60001B6A18461037BD4680BD00BF587008103A
:104D7000B0B584B000AF786049484A494A4AFFF765
:104D800029FB7B681B6B464A53617A68516F444A22
:104D900091617A68D2F8B8204148C26103F480700A
:104DA000002803D07868C06AB86002E04FF47A70D7
:104DB000B86001F48070002808D07868006FBC6883
:104DC000844206DDB8600120F86004E00020F8604D
:104DD00001E00020F86002F48070002808D07868B4
:104DE000D0F8B400BC68844202DDB8600220F860EC
:104DF0007868D0F8204104F48070002807D07868E3
:104E0000D0F82C01BD68854201DD0320F860F86808
:104E1000022821D003282FD001280ED003F0400310
:104E2000002B14BF01230023DBB21A461C4B1A626D
:104E30007B689B6B1A4A53622DE001F04003002B04
:104E400014BF01230023DBB21A46154B1A627B689C
:104E5000DB6F134A53621EE002F04003002B14BFC5
:104E600001230023DBB21A460D4B1A627B68D3F88C
:104E7000C0300B4A53620EE004F04003002B14BF15
:104E800001230023DBB21A46054B1A627B68D3F874
:104E90002431034A5362002318461037BD46B0BD83
:104EA00058700810687008107C70081080B500AF4A
:104EB00004484FF46171072200F030FB03461846A6
:104EC00080BD00BF714D001A80B500AF03480021BE
:104ED000282210F0A7F90023184680BD587008104A
:104EE00080B582B000AFFFF7EFFF78607B68002BE2
:104EF00003D100F007F8034600E07B681846083746
:104F0000BD4680BD80B500AF0248FFF73BFC0346BD
:104F1000184680BDAD4E001A80B584B000AF034680
:104F2000FB711F4B93F82430002B1CD0FB79002B16
:104F300002D00223FB7301E00023FB73184B5B6874
:104F40001978174B1B685A7C07F10F030846114666
:104F5000012204F021FE0346002B15D1FA7B104BF1
:104F60005A74002317E00E4B9B7A002B0FD0FB796D
:104F7000002B03D00A4B5B7C002B0BD1FB7918462E
:104F8000FCF780FB034606E04FF0FF3303E04FF0F1
:104F9000FF3300E0002318461037BD4680BD00BF38
:104FA0003060081080B584B000AF786080233B7219
:104FB000544B5B681978534B1B685A7D07F1080303
:104FC00008461146012204F0E7FD0346002B7ED17E
:104FD000642002F0DBFC00233B724A4B5B681978CB
:104FE000484B1B685A7D07F1080308461146012209
:104FF00004F0D2FD0346002B6CD1424B0022DA7440
:10500000404BFF229A723F4BFF221A723D4BFF2208
:105010005A723C4BFF22DA723A4B4FF6FF72DA813A
:10502000384BFF221A74374BFF229A74354B4FF6D8
:10503000FF721A85334B01221A73324B012283F817
:105040002220304B002283F823202E4B00225A7559
:105050002C4B00221A752C4800210C2210F0E2F88B
:10506000284B002283F82420264B002283F8252099
:10507000244B0022DA844FF4FA60FEF715F8034659
:10508000002B2AD10220FEF79FF80346002B27D1E0
:105090002A20FEF701F90346002B24D13220FEF727
:1050A00065F90346002B21D10020FEF715FA0346CF
:1050B000002B1ED1FEF752FE0A20FEF7C7F9034669
:1050C000002B19D10020FEF755FA002316E04FF00F
:1050D000FF3313E04FF0FF3310E04FF0FF330DE0EC
:1050E0004FF0FF330AE04FF0FF3307E04FF0FF339C
:1050F00004E04FF0FF3301E04FF0FF331846103764
:10510000BD4680BD306008104660081080B584B090
:1051100000AF0346FB80FB88282B24D8FB88002B9C
:105120001BD10020FEF77CFC00233B7307237B731D
:10513000114B5B681978104B1B685A7D07F10C0303
:1051400008461146022204F027FD0346002B0DD12C
:10515000094B00221A7500230AE0FB881846FCF769
:10516000BBFA034604E04FF0FF3301E04FF0FF339A
:1051700018461037BD4680BD3060081080B584B039
:1051800000AF78603960284B9B7A002B43D0264BC8
:105190005B681978244B1B681A7C07F10C030846DE
:1051A0001146022204F026FD0346002B36D13B7B3C
:1051B0001B029AB27B7B9BB21343FB813B68002BA3
:1051C00002D0386802F014FCB7F90E3007EE903ABE
:1051D000B8EEE77A144B5B681A8912B207EE902A90
:1051E000F8EEE77A37EE677ADB8807EE903AF8EE6A
:1051F000E77AC7EE277A9FED0D7A77EE877A9FEDF3
:105200000C7A67EE877AFDEEE77A17EE902A7B68D4
:105210001A60002304E04FF0FF3301E04FF0FF334A
:1052200018461037BD4680BD3060081000000C42A3
:105230000000804780B483B000AF0A4BD3F8103130
:10524000012B0CBF01230023DBB27B60054B002246
:10525000C3F810217B6818460C37BD465DF8047B07
:10526000704700BF446A081080B582B000AF786014
:1052700039607B68002B04D0786807490C220FF056
:10528000D3FE3B68002B04D0044BD3F80C213B68C1
:105290001A600837BD4680BD446B0810446A081088
:1052A00080B584B000AFF860B9607A60BB6803F085
:1052B0002003002B1CD1FB681B689AB2234BA3F878
:1052C0004820FB685B689AB2204BA3F84A20FB6831
:1052D0009B689AB21D4BA3F84C201C4B5B6F43F0AC
:1052E00080031A4A53671A481A4902F0F7FF19E077
:1052F000FB681B68154AD365FB685B68134A136635
:10530000FB689B68114A5366104B5B6F43F02003A8
:105310000E4A5367BB6803F003030C4A93670E4AB7
:10532000C2F83431094B5B6F43F4A073074A5367EB
:10533000064BDB6F054AC2F88030044A7B68D367AE
:10534000002318461037BD4680BD00BF846B08108F
:10535000C86B0810586B0810446A081080B582B0FA
:1053600000AF786039600D48796806220FF05CFE66
:105370000B4B1B6B43F4E073094A1363084B9B6BA5
:10538000074AD363064A3B6893630548054902F020
:10539000A5FF002318460837BD4680BD886B08105E
:1053A000846B0810446B081080B588B000AFF860BB
:1053B000B9607A60BB6803F02003002B23D1F86842
:1053C00000F026FB07F11403184600F001FB7B698F
:1053D0009AB2284BA3F88C20BB699AB2254BA3F84C
:1053E0008E20FB699AB2234BA3F8902022482349D0
:1053F00002F074FF1F4BD3F8B83043F080031D4A0E
:10540000C2F8B8301FE0FB681B681A4AC2F8A03027
:10541000FB685B68174AC2F8A430FB689B68154AB2
:10542000C2F8A830134BD3F8B83043F02003114A28
:10543000C2F8B830BB6803F003030E4AC2F8BC30B0
:105440000F4AC2F838310B4BD3F8C030094AC2F8C2
:10545000C430084A7B68C2F8C030064BD3F8B83075
:1054600043F4A073034AC2F8B8300023184620372B
:10547000BD4680BD846B08100C6C0810386B08109A
:10548000446A081080B483B000AF786039600E4A77
:105490007B68C2F8E4300C4BD3F8FC3043F4E07383
:1054A000094AC2F8FC30084BD3F80431064AC2F866
:1054B0000831054A3B68C2F80431002318460C370E
:1054C000BD465DF8047B7047846B081080B584B0DE
:1054D00000AFF860B9607A600E48F96810220FF0EA
:1054E000A3FD0D4A7B68C2F824310B4BD3F8203161
:1054F00043F4E073084AC2F82031BA6802F400723B
:105500001343054AC2F82031002318461037BD4620
:1055100080BD00BF946C0810846B0810B0B489B0D3
:1055200000AFF860B9607A600023BB6118E04249BF
:10553000BA6913465B0013449B000B445A68FB682E
:105540009A4271D03C49BA6913465B0013449B00F0
:105550000B449A68BB689A4268D0BB690133BB614F
:10556000354B1B68BA699A42E1DB132B58DC002BE0
:1055700032D00022BA6102E0BA690132BA61BA6976
:105580009A420ADA2C48B9690A4652000A44920043
:1055900002449168BA689142EEDBBA699A421DD022
:1055A0007B6114E07A69541E234879690A465200E7
:1055B0000A44920081182048224652002244920058
:1055C00002440D1D043207CA85E807007C61796931
:1055D000BA699142E6DC01E00022BA611648B96975
:1055E0000A4652000A4492000244F9685160124887
:1055F000B9690A4652000A4492000244B9689160AF
:105600000D48B9690A4652000A4492000244083221
:10561000796851600133084A13600023FB6101E09F
:105620000C23FB61FB6902E0162300E016231846F9
:105630002437BD46B0BC7047446A081090B484B0AB
:1056400000AF78600023FB602FE01D49FA68134625
:105650005B0013449B000B445A687B689A4221D13B
:10566000FB680133BB6016E0BB685A1E1449134641
:105670005B0013449B0019441148BA6813465B0051
:1056800013449B00C2180B1D043207CA83E80700AD
:10569000BB680133BB60BB68A342E5DB631E084AFD
:1056A000136007E0FB680133FB60054B1C68FB6877
:1056B000A342CADB002318461037BD4690BC704792
:1056C000446A081080B584B000AF354B1B6B03F003
:1056D0004003002B02D002237B6001E000237B60AB
:1056E0002F4B5B6F03F04003002B03D07B6843F02C
:1056F00001037B602A4BD3F8B83003F04003002B42
:1057000003D07B6843F004037B60254BD3F8FC3067
:1057100003F04003002B03D07B6843F008037B6059
:105720001F4BD3F8203103F01003002B03D07B680C
:1057300043F010037B600023BB600023FB6022E08A
:105740001849BA6813465B0013449B000B440833A6
:105750005A687B681340002B12D01249BA6813466E
:105760005B0013449B000B445B680D48984738600E
:105770003B68002B04D0FB68002B01D13B68FB6029
:10578000BB680133BB60074B1B68BA689A42D7DB22
:1057900000F00AF8FB6818461037BD4680BD00BF10
:1057A000846B0810446A081080B400AF2F4B1B6B49
:1057B00003F04002002A03D043F010032B4A136386
:1057C0002A4B5B6F03F04002002A03D043F0100322
:1057D000264A5367254BD3F8B83003F04002002A1D
:1057E00004D043F01003214AC2F8B8301F4BD3F85D
:1057F000FC3003F04002002A04D043F010031B4A9F
:10580000C2F8FC30194BD3F8203103F04002002AD3
:1058100004D043F01003154AC2F82031134B1B6B20
:1058200023F04003114A1363104B5B6F23F04003D6
:105830000E4A53670D4BD3F8B83023F040030B4AA0
:10584000C2F8B830094BD3F8FC3023F04003074AC4
:10585000C2F8FC30054BD3F8203123F04003034A53
:10586000C2F82031BD465DF8047B7047846B081098
:1058700080B584B000AFF860B9607A60FB68002B37
:1058800004D0F8680A490C220FF0CEFB7B68002B8D
:1058900003D0084BDA6F7B681A60BB68002B04D01A
:1058A000044B9B6FDAB2BB681A701037BD4680BDDF
:1058B000E06B0810846B081080B584B000AFF8600E
:1058C000B9607A60F8680B490C220FF0ADFB7B6879
:1058D000002B03D0084B9A6B7B681A60BB68002BC7
:1058E00004D0054B5B6BDAB2BB681A701037BD464B
:1058F00080BD00BF9C6B0810846B081080B582B01F
:1059000000AF7860786803490C220FF08DFB0837F0
:10591000BD4680BD9C6B081080B584B000AFF860B8
:10592000B9607A60F86810490C220FF07DFB7B6843
:10593000002B04D00D4BD3F8C0207B681A60BB68E5
:10594000002B0ED00A4BD3F83C31002B03D0BB68A0
:1059500000221A7005E0054BD3F8BC30DAB2BB6800
:105960001A701037BD4680BD246C0810846B081077
:10597000446A081080B400AF034B5B6B1846BD4609
:105980005DF8047B704700BF846B081080B400AFE3
:10599000074BD3F83C31002B03D1064BD3F8BC3076
:1059A00000E000231846BD465DF8047B704700BF49
:1059B000446A0810846B081080B400AF034B9B6FDF
:1059C0001846BD465DF8047B704700BF846B081025
:1059D00080B485B000AF78600023FB600DE0FB6809
:1059E0009B007A681A440949FB684E339B000B44BC
:1059F0005B681360FB680133FB60FB68022BEEDD24
:105A00001437BD465DF8047B704700BF846B0810F7
:105A100080B584B000AF78600023FB600CE0FB68C9
:105A20009B007A6813441A681549FB684C3341F8A7
:105A30002320FB680133FB60FB68022BEFDD104B7A
:105A4000D3F89031012B02D00023FB6011E078687D
:105A500000F056F810E0FB689B007A6813441A685F
:105A60000749FB684E339B000B445A60FB680133C7
:105A7000FB60FB68022BEEDD1037BD4680BD00BF2A
:105A8000846B081080B582B000AF00237B600AE011
:105A9000194A7B685A339B0013444FF000025A6046
:105AA0007B6801337B607B68082BF1DD13480021A4
:105AB00024220FF0B7FB00237B6012E07B689B0081
:105AC0000D4903F15A0292000A444FF07E51516091
:105AD000094A52334FF0804142F823107B6801336A
